:020000040800F2
:10000000000001203D3000080D2D0008112D0008D2
:10001000152D0008192D00081D2D000800000000F6
:10002000000000000000000000000000212D00087A
:10003000252D000800000000292D00082D2D0008A6
:100040008D3000088D3000088D3000088D3000089C
:100050008D3000088D3000083D2D0008192E000855
:100060008D3000088D3000088D3000088D3000087C
:100070008D3000088D300008952E0008992E00085C
:10008000292F00088D3000088D3000080000000086
:100090000000000000000000000000008D3000089B
:1000A0008D3000088D3000088D3000088D3000083C
:1000B0008D3000088D3000088D3000088D3000082C
:1000C0008D3000088D3000088D3000088D3000081C
:1000D0008D3000088D3000088D30000800000000D1
:1000E0009D2E00088D3000088D30000800000000B3
:1000F0000000000000000000000000008D3000083B
:10010000000000008D3000088D3000088D300008A0
:1001100000000000000000000000000000000000DF
:100120008D3000088D3000088D3000081D2F00082C
:100130008D300008000000000000000000000000FA
:100140000000000000000000000000008D300008EA
:100150008D3000088D3000088D3000088D3000088B
:100160008D3000088D300008000000000000000005
:10017000000000000000000000000000000000007F
:10018000000000008D3000080000000000000000AA
:040190008D300008A6
:1001980010B5054C237833B9044B13B10448AFF3B9
:1001A80000800123237010BD1C0100200000000006
:1001B8005815010808B5034B1BB103490348AFF3B1
:1001C800008008BD0000000020010020581501082B
:1001D8002DE9F04F82B001904FF000744FF0007895
:1001E8004FF000054FF0000952F804CB52F804EB29
:1001F8000868CB6DC0FB0C45D1F88000CEF1000E2D
:10020800C3FB0E45D1F8DC30C0FB0C89C3FB0E895B
:1002180052F804CB52F804EB48688B6DC0FB0C45D0
:10022800D1F88400CEF1000EC3FB0E45D1F8D830CA
:10023800C0FB0C89C3FB0E8952F804CB52F804EBBF
:1002480088684B6DC0FB0C45D1F88800CEF1000ED4
:10025800C3FB0E45D1F8D430C0FB0C89C3FB0E8913
:1002680052F804CB52F804EBC8680B6DC0FB0C4580
:10027800D1F88C00CEF1000EC3FB0E45D1F8D0307A
:10028800C0FB0C89C3FB0E8952F804CB52F804EB6F
:100298000869CB6CC0FB0C45D1F89000CEF1000E7C
:1002A800C3FB0E45D1F8CC30C0FB0C89C3FB0E89CB
:1002B80052F804CB52F804EB48698B6CC0FB0C4530
:1002C800D1F89400CEF1000EC3FB0E45D1F8C8302A
:1002D800C0FB0C89C3FB0E8952F804CB52F804EB1F
:1002E80088694B6CC0FB0C45D1F89800CEF1000E24
:1002F800C3FB0E45D1F8C430C0FB0C89C3FB0E8983
:1003080052F804CB52F804EBC8690B6CC0FB0C45DF
:10031800D1F89C00CEF1000EC3FB0E45D1F8C030D9
:10032800C0FB0C89C3FB0E8901984FF4FE4E4EF0BA
:10033800FF0E4FEA946444EA851404F30F0401B4F1
:10034800DFF8EC06007804FB00F44FEA241401BC43
:100358004FEA986848EA891808F30F0801B4DFF8EB
:10036800D006007808FB00F84FEA281801BC048082
:10037800A0F8028002F5707201F580514FF0007408
:100388004FF000784FF000054FF0000952F804CB09
:100398000868D1F88030C0FB0C45C3FB0C8952F8C3
:1003A80004CB4868D1F88430C0FB0C45C3FB0C89EA
:1003B80052F804CB8868D1F88830C0FB0C45C3FBE1
:1003C8000C8952F804CBC868D1F88C30C0FB0C45B6
:1003D800C3FB0C8952F804CB0869D1F89030C0FBF4
:1003E8000C45C3FB0C8952F804CB4869D1F894300A
:1003F800C0FB0C45C3FB0C8952F804CB8869D1F8C3
:100408009830C0FB0C45C3FB0C8952F804CBC86973
:10041800D1F89C30C0FB0C45C3FB0C8901984FF404
:10042800FE4E4EF0FF0E4FEA946444EA851404F33E
:100438000F0401B4DFF8F805007804FB00F44FEA74
:10044800241401BC4FEA986848EA891808F30F0891
:1004580001B4DFF8DC05007808FB00F84FEA28183B
:1004680001BCA0F84040A0F84280A2F57872A1F53E
:1004780070614FF00F0C00F10400CDF800C001903E
:100488004FF000744FF000784FF000764FF0007A8C
:100498004FF000054FF000094FF000074FF0000B38
:1004A80052F804CB52F804EB0868CB6DC0FB0C453E
:1004B800C0FB0E67CEF1000EC3FB0C67C3FB0E45F5
:1004C800D1F8DC30D1F88000C3FB0E89C3FB0CAB3C
:1004D800CEF1000EC0FB0C89C0FB0EAB52F804CB6A
:1004E80052F804EB48688B6DC0FB0C45C0FB0E67E7
:1004F800CEF1000EC3FB0C67C3FB0E45D1F8D83014
:10050800D1F88400C3FB0E89C3FB0CABCEF1000EFF
:10051800C0FB0C89C0FB0EAB52F804CB52F804EBBD
:1005280088684B6DC0FB0C45C0FB0E67CEF1000E12
:10053800C3FB0C67C3FB0E45D1F8D430D1F8880053
:10054800C3FB0E89C3FB0CABCEF1000EC0FB0C89BC
:10055800C0FB0EAB52F804CB52F804EBC8680B6D25
:10056800C0FB0C45C0FB0E67CEF1000EC3FB0C6749
:10057800C3FB0E45D1F8D030D1F88C00C3FB0E89EF
:10058800C3FB0CABCEF1000EC0FB0C89C0FB0EAB5D
:1005980052F804CB52F804EB0869CB6CC0FB0C454D
:1005A800C0FB0E67CEF1000EC3FB0C67C3FB0E4504
:1005B800D1F8CC30D1F89000C3FB0E89C3FB0CAB4B
:1005C800CEF1000EC0FB0C89C0FB0EAB52F804CB79
:1005D80052F804EB48698B6CC0FB0C45C0FB0E67F6
:1005E800CEF1000EC3FB0C67C3FB0E45D1F8C83033
:1005F800D1F89400C3FB0E89C3FB0CABCEF1000EFF
:10060800C0FB0C89C0FB0EAB52F804CB52F804EBCC
:1006180088694B6CC0FB0C45C0FB0E67CEF1000E21
:10062800C3FB0C67C3FB0E45D1F8C430D1F8980062
:10063800C3FB0E89C3FB0CABCEF1000EC0FB0C89CB
:10064800C0FB0EAB52F804CB52F804EBC8690B6C34
:10065800C0FB0C45C0FB0E67CEF1000EC3FB0C6758
:10066800C3FB0E45D1F8C030D1F89C00C3FB0E89FE
:10067800C3FB0CABCEF1000EC0FB0C89C0FB0EAB6C
:1006880001F5807101984FF4FE4E4EF0FF0E4FEACF
:10069800946444EA851404F30F0401B4E448007830
:1006A80004FB00F44FEA241401BC4FEA986848EAB6
:1006B800891808F30F0801B4DD48007808FB00F832
:1006C8004FEA281801BC4FEA966646EA871606F3F1
:1006D8000F0601B4D648007806FB00F64FEA261646
:1006E80001BC4FEA9A6A4AEA8B1A0AF30F0A01B464
:1006F800CF4800780AFB00FA4FEA2A1A01BCDDF855
:1007080000C000EBCC0E2EF8026B2EF802AB20F8DE
:10071800024B20F8028BBCF1010C7FF4AEAE02B0A4
:10072800BDE8F08F2DE9F04F82B001904FF00074D2
:100738004FF0000552F804CB52F804EB0868CB6D73
:10074800CEF1000EC0FB0C45C3FB0E4552F804CB9E
:1007580052F804EB48688B6DCEF1000EC0FB0C45D7
:10076800C3FB0E4552F804CB52F804EB88684B6D76
:10077800CEF1000EC0FB0C45C3FB0E4552F804CB6E
:1007880052F804EBC8680B6DCEF1000EC0FB0C45A7
:10079800C3FB0E4552F804CB52F804EB0869CB6C46
:1007A800CEF1000EC0FB0C45C3FB0E4552F804CB3E
:1007B80052F804EB48698B6CCEF1000EC0FB0C4577
:1007C800C3FB0E4552F804CB52F804EB88694B6C16
:1007D800CEF1000EC0FB0C45C3FB0E4552F804CB0E
:1007E80052F804EBC8690B6CCEF1000EC0FB0C4547
:1007F800C3FB0E4501984FF4FE4E4EF0FF0E4FEA34
:10080800946444EA851404F30F0401B4884800781A
:1008180004FB00F44FEA241401BC048002F5707252
:1008280001F580514FF000744FF0000552F804CBE9
:100838000868C0FB0C4552F804CB4868C0FB0C455F
:1008480052F804CB8868C0FB0C4552F804CBC86842
:10085800C0FB0C4552F804CB0869C0FB0C4552F8A4
:1008680004CB4869C0FB0C4552F804CB8869C0FB2F
:100878000C4552F804CBC869C0FB0C4501984FF4ED
:10088800FE4E4EF0FF0E4FEA946444EA851404F3DA
:100898000F0401B46648007804FB00F44FEA2414FE
:1008A80001BC0484A2F57872A1F570614FF00F0CB9
:1008B80000F10200CDF800C001904FF000744FF035
:1008C80000764FF000054FF0000752F804CB52F8BD
:1008D80004EB0868CB6DC0FB0C45C0FB0E67CEF17E
:1008E800000EC3FB0E45C3FB0C6752F804CB52F84D
:1008F80004EB48688B6DC0FB0C45C0FB0E67CEF15E
:10090800000EC3FB0E45C3FB0C6752F804CB52F82C
:1009180004EB88684B6DC0FB0C45C0FB0E67CEF13D
:10092800000EC3FB0E45C3FB0C6752F804CB52F80C
:1009380004EBC8680B6DC0FB0C45C0FB0E67CEF11D
:10094800000EC3FB0E45C3FB0C6752F804CB52F8EC
:1009580004EB0869CB6CC0FB0C45C0FB0E67CEF1FD
:10096800000EC3FB0E45C3FB0C6752F804CB52F8CC
:1009780004EB48698B6CC0FB0C45C0FB0E67CEF1DD
:10098800000EC3FB0E45C3FB0C6752F804CB52F8AC
:1009980004EB88694B6CC0FB0C45C0FB0E67CEF1BD
:1009A800000EC3FB0E45C3FB0C6752F804CB52F88C
:1009B80004EBC8690B6CC0FB0C45C0FB0E67CEF19D
:1009C800000EC3FB0E45C3FB0C6701F5807101984F
:1009D8004FF4FE4E4EF0FF0E4FEA946444EA85143D
:1009E80004F30F0401B41248007804FB00F44FEA42
:1009F800241401BC4FEA966646EA871606F30F06EA
:100A080001B40B48007806FB00F64FEA261601BC35
:100A1800DDF800C000EB8C0E2EF8026B20F8024BBC
:100A2800BCF1010C7FF446AF02B0BDE8F08F0000C6
:100A380001000020034613F8012B002AFBD1181AE5
:100A48000138704753B94AB9002908BF00281CBFAC
:100A58004FF0FF314FF0FF3000F070B9ADF1080CE6
:100A68006DE904CE00F006F8DDF804E0DDE90223C4
:100A780004B070472DE9F047089E0D4604460F461E
:100A8800002B4AD18A42944665D9B2FA82F343B11F
:100A980002FA03FCC3F120029F4020FA02F2174336
:100AA8009C404FEA1C4E1FFA8CF5B7FBFEF1220C56
:100AB8000EFB117742EA074201FB05F090420AD982
:100AC8001CEB020201F1FF3780F01C81904240F2DA
:100AD800198102396244121AA4B2B2FBFEF00EFB6D
:100AE800102244EA024400FB05F5A5420AD91CEB92
:100AF800040400F1FF3280F00781A54240F204812E
:100B08006444023840EA0140641B00211EB1DC4005
:100B18000023C6E90043BDE8F0878B4208D9002EC0
:100B280000F0ED800021C6E900050846BDE8F08721
:100B3800B3FA83F1002949D1AB4202D3824200F2D1
:100B4800F880841A65EB030201201746002EE2D0D4
:100B5800C6E90047DFE702B9FFDEB2FA82F3002BED
:100B680040F090808A1A4FEA1C471FFA8CFE012138
:100B7800B2FBF7F507FB1520220C42EA00420EFBF8
:100B880005F0904208D91CEB020205F1FF3802D2A9
:100B9800904200F2CB804546121AA4B2B2FBF7F09D
:100BA80007FB102244EA02440EFB00FEA64508D9C2
:100BB8001CEB040400F1FF3202D2A64500F2BB8010
:100BC8001046A4EB0E0440EA05409FE7C1F1200758
:100BD8008B4022FA07FC4CEA030C05FA01F420FAD0
:100BE80007F3FD404FEA1C492343B5FBF9F81FFA08
:100BF8008CFE09FB18551C0C44EA054408FB0EF54D
:100C0800A54202FA01F200FA01F00BD91CEB040428
:100C180008F1FF3A80F08880A54240F28580A8F16B
:100C280002086444641B9DB2B4FBF9F309FB134446
:100C380045EA044403FB0EFEA64508D91CEB040450
:100C480003F1FF356CD2A6456AD9023B644443EAF6
:100C58000843A3FB0295A4EB0E04AC42C846AE467B
:100C680056D353D056B1B0EB080264EB0E0404FA25
:100C780007F7CA40CC401743C6E90074184600215C
:100C8800BDE8F087C3F1200102FA03FC20FA01F263
:100C980025FA01F19D402A434FEA1C471FFA8CFEB2
:100CA800B1FBF7F007FB1015110C41EA054100FBF9
:100CB8000EF58D4204FA03F408D91CEB010100F18A
:100CC800FF382FD28D422DD902386144491B92B288
:100CD800B1FBF7F507FB151142EA014205FB0EF1DE
:100CE800914208D91CEB020205F1FF3816D2914255
:100CF80014D9023D6244521A45EA004138E73146A8
:100D0800304608E73946E6E61046FBE64845A9D2EC
:100D1800B9EB020865EB0C0E013BA3E74546EAE791
:100D28002B4694E74046D1E7D0467BE7023D624434
:100D380032E708460AE76444023842E7704700BFD2
:100D48002DE9F04F2DED088BADF2746D15461C465C
:100D580002460B4602203149BDF8B896BDF8BC766C
:100D6800BDF8C0860FF002FF0122064601468CA896
:100D780004F0FEFA8246304610F0E4F9BAF1000FAA
:100D880005D00DF2746DBDEC088BBDE8F08F5146AF
:100D9800F8224EA810F020FB8CA94EA801F02EF9DD
:100DA8009DF83831184310F0FF060DD08CA804F0D8
:100DB800D7FB78980028E4D010F0C4F90DF2746DD0
:100DC800BDEC088BBDE8F08F8A998CA804F0E0FB95
:100DD800739B984507D9A8EB030303EBD37309EB7F
:100DE80063031FFA83F9729B9F4205D9FB1A03EB31
:100DF800D37304EB63039CB2DDF8F521084B9A42E8
:100E080003D1BDF80D32552B0CD0789808B110F0ED
:100E180099F98CA804F0A4FBB3E700BFF816010801
:100E28004D4A50470DF58A6B4FF408728CA9584605
:100E380010F02CFB4FF4F761012010F05DF98246A9
:100E480001F03AF8DD4BDE49186012AB8CAA019329
:100E5800DC4B12920093DC4ADC4BCDF84CA001F03D
:100E680063F8D64B186801F079F8D44B186801F08C
:100E78007BF8D24BD6481B680122196910F0AEF8EE
:100E8800D44BD54ACDF850B04FF0000AC3F800A0B3
:100E98000123137003216A9B04935046CDF834A0B4
:100EA8000FF032F9CD4908EE100A50235246CDE929
:100EB8000031C823514609EE900A0FF087F918EE61
:100EC800100A80210FF07EF9022118EE100A0FF0A7
:100ED8001BF903226FF07F4C4D23CDE9003C1146EE
:100EE800C5230FF073F9BE4B186859689A68B3F8B0
:100EF8000CC027AB07C3242251460DF1AA00A3F862
:100F080000C010F069FAB44AB64B1178B64A012904
:100F18000CBF114619460DF1A90318460FF0E6FD5E
:100F2800062118EE100A0FF0EFF8B04902910A22D4
:100F3800AF49009127AB1146CDF804A00FF096F900
:100F4800DFF8C4E2BEE80F000DF1D00CACE80F00EA
:100F5800DEF80030CCF800301E22514639A810F0D7
:100F68003BFAA44BA44A1B68934240F2278302F140
:100F78007852A2F55A02A2F51F72A2FB0323980C1D
:100F88000A220DF1E30110F00BFA062119EE900A7E
:100F98000FF0BAF8954B4FF0000A0DF1D00CCDE9DF
:100FA80001A3934B0093172263460A210FF05EF9C1
:100FB800DFF858E2BEE80F000DF5827CACE80F00C0
:100FC800DEF80030CCF800301E22514646A810F05A
:100FD80003FA062119EE900A0FF096F88349844A1D
:100FE80000920DF5827C63462D22CDE901A10A21EC
:100FF8000FF03CF950460FF035F808EE900A01233F
:101008004FF47F0251460AEE100A0FF047F818EE27
:10101800900A01234FF47F4232210FF03FF8012359
:10102800FF2218EE900A64210FF038F818EE900AA3
:101038005A210FF067F8032119EE900A0FF064F8AF
:101048004FF0FF0C09EE100A4623CDE9003C3C2284
:10105800BE230A210FF0BAF818EE901A19EE100AFA
:101068000FF0AEF8DFF8A8E1BEE80F000DF1840C30
:10107800ACE80F009EE803004CF8040B19EE900A48
:10108800ACF8001006210FF03FF86FF07F4C584A7B
:101098000092CDE901AC21AB3B2210210FF0E6F81C
:1010A800032119EE900A0FF02FF84FF47F0E08EE87
:1010B800900A1723CDE9003E0A22C22306210BEE2F
:1010C800100A0FF083F818EE900A80210FF07AF8D2
:1010D800EA88A988503AC83902EBD27201EBD1717B
:1010E800521019EE900A49100FF056FC0321504691
:1010F8000FF00AF8394A08EE100A2923CDE9003220
:101108005146C82352460FF061F818EE100A8021A4
:101118000FF058F8022118EE100A0EF0F5FF6FF0E4
:101128007F4303220193262311460093C5230FF022
:101138004DF8324B1693052118EE100ACDF85CA035
:101148008DF860A00EF0E0FF1422102308EE900A3C
:101158001521CDF800A00FF081F80DF1580C61466B
:1011680018EE900A0FF02AF8032118EE100A0EF074
:10117800CBFF234B1993052109EE100A18EE100A2C
:10118800CDF868A08DF86CA00EF0BEFF14221023D5
:1011980008EE900A1521CDF800A00FF05FF80DF1C8
:1011A800640C614618EE900A0FF008F8154B93E8A6
:1011B80003008DF83C100E9006212BE03C01002026
:1011C800351D0008A91E0008591E0008891E0008C0
:1011D800003C00403801002000000020A9A9A90017
:1011E800FC160108EC160108E016010800FFFF00D4
:1011F8000800002004000020FFE0F505483F010832
:10120800583F01080C17010870150108A4150108BA
:101218001417010818EE100A0EF076FFB64AB749FF
:10122800009202910EAB2821CDF804A00E220AEEFE
:10123800900A0FF01BF8B24B1978002900F0CC8106
:101248000B1F052B40F2C68109298CBF4FF47F4341
:101258004FF47F0301EBC10101EB011101931A2245
:101268000B1119EE100A2833009228210E220EF0D5
:10127800ADFF18EE900A00210EF0A6FF1AEE900AB4
:1012880000210EF0A1FFEA88A9882A3AC83902EBA2
:10129800D27201EBD171521018EE100A49100FF0FA
:1012A8007BFB984B00211B680593284602F0D0F879
:1012B800954996480B6896495A699B6E9200009228
:1012C80005220FF0F5FDDBF80C20DBF814309A420C
:1012D80040F28C800499059A0A9700234908CDE9C1
:1012E8000849CDF82C8007930692A94637468A46C6
:1012F8001C469846874D4FF48036C5F88060BFF38A
:101308004F8FBFF36F8F08220DAB10A9584604F01A
:101318006DF82E60002869D10D9B082B66D1109BB3
:101328007D4A934200F00281119BDBF81450DE07DE
:1013380048BF01331593BDF8423046F264329342F8
:1013480000F0AC8044F24432934200F0A7800026BB
:10135800159B93B16F4F4FF48033C7F88030BFF3BC
:101368004F8FBFF36F8F15995846294404F010F931
:101378004FF480333B60002838D166494FF4803001
:10138800C1F88000BFF34F8FBFF36F8F5E4B1B68B0
:10139800002B00F0CF81D3E924230860B2EB0A00C8
:1013A80063F10001844278EB010164D31AEB020077
:1013B80043F10001A04271EB08015CD30027574BB1
:1013C80019EE902A1B68934200F0EB8018EE102A61
:1013D8009A4200F0D98007F043FB002839D12EB992
:1013E800DBF81450DBF80C30AB4283D8494B4FF490
:1013F8008032C3F88020BFF34F8FBFF36F8F424C0A
:10140800236863B14249414805220FF0ADFD2068C9
:1014180000F0EEFD206800F053FD002323603D4BF3
:101428004FF48032C3F8802158461A6004F098F8C7
:10143800789808B10FF086FE1AEE100A0EF01CFE1E
:1014480019EE900A0EF098FE18EE100A0EF094FEAF
:1014580097E407F0E7FA314A19EE901A13688B42BD
:1014680000F00A81050740F1BC80264BC2ED009AC6
:101478001B680593B3E7A24273EB08013AD2A01A9E
:1014880068EB03014FF47A720023FFF7DBFA074693
:10149800002894D002F060FF002790E7049B1C19F5
:1014A800159B48F10008002B9CD0002F7FF44FAF0C
:1014B80014AB0193134E0B9B0093DDE908120A9BB2
:1014C80002974846376805F007FE0E4B144A064651
:1014D8001868144B1B68A2FB0323134AC01B12682D
:1014E8009B090DF21711B2FBF3F30A22C01A0FF091
:1014F80057FF2DE7012762E70800002000FFFF00E3
:10150800010000209C0300203C010020003C00401A
:101518000060024000E100E05249464638010020E0
:10152800D34D621004000020B4050020C5F8806087
:10153800BFF34F8FBFF36F8F10220DAB1CA9584616
:1015480003F054FF2E6000287FF450AF0D9B102B42
:101558007FF44CAF1C9B8C4A93427FF447AF02F157
:101568007C421D9B02F51F2202F20B3293427FF44C
:101578003DAF02F1A9521F9B02F5493202F2212226
:1015880093427FF433AF2BE7804B069A1B689B1A74
:1015980041F2873293427FF61EAF7D4A00231360E3
:1015A80019E77A4A05991268521A42F20F718A426B
:1015B8007FF60CAF764A0023136007E7754AA2FB53
:1015C8000323980C0A22202339A98DF8E3300FF061
:1015D800E7FEDAE4704B3DE619EE100A0EF0F4FD72
:1015E80051E6002B00F0948082074FD56B490A78AA
:1015F8000F2A3AD8531C033ADBB2052A0B7040F283
:101608009B80092B8CBF4FF47F424FF47F0203EB82
:10161800C30303EB031301921B111A2219EE100ADC
:101628002833009228210E220EF0D0FDB9F80620AA
:10163800B9F804102A3AC83902EBD27201EBD17119
:1016480019EE100A491052100FF06CF919EE100A31
:1016580001210EF0B9FD18EE900A00210EF0B4FD3C
:101668001AEE900A00210EF0AFFD494B83ED008A77
:10167800464B1B680693B2E610F008013BD0444A7B
:1016880000231360414B1B680593A8E6C3077FF549
:10169800A6AE424A1378002BE7D0591EC9B2117082
:1016A800002961D0053B052B5CD909298CBF4FF473
:1016B8007F434FF47F0301EBC10101EB011101935B
:1016C8001A220B1119EE100A009228330E22282133
:1016D8000EF07CFDB9F80620B9F804102A3AC8398A
:1016E80002EBD27201EBD17119EE100A52104910B7
:1016F8000FF018F9AFE7C5070ED5079B002BC1D02F
:101708001BEE100A6FF00C0207910FF00BF9B9E706
:1017180041073FF56BAE67E782070FD5079B002BA4
:10172800B0D119461BEE100A0D220FF0FBF8012369
:101738000793A7E7086059E6174A68E710F0300FE3
:10174800A0D0079B93BB164A16491378012B164B5A
:101758000DF1A90016BF19460323012313700FF0DA
:10176800C5F98FE70C4BA6E719EE100A0EF02CFD11
:1017780018EE900A01210EF027FD1AEE900A0121B9
:101788000EF022FD71E700BF415649589C03002026
:101798003801002083DE1B4300FFFF00010000200A
:1017A80000000020EC160108E0160108414B1968FA
:1017B800414B99424BD0A820404B9A6822F0030233
:1017C80042F001029A609A6802F00C02042AFAD1E7
:1017D8001A6822F080721A605D68394A2A4042EA23
:1017E800801242F4800242F019025A605A6822F4C8
:1017F80040325A601A6842F080721A602F4A1368A1
:101808009B01FCD5936823F0030343F00203936024
:101818002A4A936803F00C03082BFAD1294B994202
:1018280023D0244B274A1A604FF0E023264A274941
:101838005961F02182F8231000229A6107221A6167
:101848000DF1E3010A2278200FF0AAFD1AE7204AD9
:10185800136823F0070343F003031360136803F0CE
:101868000703032BFAD1F020A6E7194A136823F0DF
:10187800070343F002031360136803F00703022B06
:10188800FAD10C4B0C4A1A604FF0E0230E4A11496A
:101898005961F02182F8231000229A6107221A6107
:1018A80039A920230A2254208DF8E3300FF078FD5F
:1018B800E8E600BF0400002000BD01050038024032
:1018C8000080BFFF000E270700ED00E0BFD4010035
:1018D800003C02401F4801002DE9F04F8388C6886C
:1018E8002DED028B963B93B0054603EBD3735B104B
:1018F8000321002004930EF007FCEB88013B0093C2
:10190800AB880024013B22462146019480460EF014
:101918005DFC20460EF0A6FBAB4A83460123214618
:1019280008EE100A0EF0BAFB01234FF47F02584666
:1019380064210EF0B3FB584621460EF0E3FB01216B
:1019480040460EF0E1FB4FF02D091E2322460746C4
:10195800CDF80890CDF8009001930F212346039409
:101968000EF04AFC594638460EF02AFC0121404642
:101978000EF0CAFB232322468246CDE90294019346
:101988001421322300940EF037FC594650460EF0CD
:1019980017FC032140460EF0B7FB22464123CDF841
:1019A80000903721814601940EF010FC59464846B4
:1019B8000EF006FC854B06930521404607948DF8EA
:1019C80020400EF0A1FB16231A4681465C210094A4
:1019D8000EF044FC484606A90EF0F0FB01214046F3
:1019E8000EF092FB962216217823CDE901212D3E97
:1019F800252219468146009206EBD67607220394E3
:101A08000EF0FAFB761059464846DFF8CC91DFF81D
:101A1800CCA10EF0D5FB3246049938460EF0BCFF37
:101A2800B9E80F000DF1340EAEE80F00D9F8003018
:101A38008EF800309AE80F000DF1240CACE807008E
:101A48002CF8023B06211B0C40468CF800300EF0A7
:101A58005BFB6FF07F43CDE901435D4B00930DF1D4
:101A6800340C6346A6F10D02A98883460EF0FEFBEE
:101A7800062140460EF048FB824609A80FF068F898
:101A880005900DA80FF064F8814609A80FF060F8DA
:101A980005994F4B0093A9EB00094FEAC9096FF06C
:101AA8007F424FEA5909C1EB41710292C9EBC1016A
:101AB80006F12D0209AB504601940EF0D7FB454ABA
:101AC800AB88C2F80080049A0DA89E1A0FF040F85F
:101AD800C000C0F19600A6EB5003A34270DD013BA5
:101AE8009B08013303EB83035B00DFF8F490049356
:101AF800FF2602E0049B9C4234D0E1B240460EF03F
:101B080061FBF1B238460EF089FF00226FF0030145
:101B180058460EF007FF0022042150460EF002FF3F
:101B2800E888AB88009000224FF0010CCDE9019CB9
:101B38001146284605F0D0FA083E0A3426EAE67629
:101B480080B9079B0833B3F5B47FA8BF4FF4B473CB
:101B5800FF2C0793CEDD014640460EF035FB049B73
:101B68009C42CAD14FF4FA6002F0F6FB0024012629
:101B7800E888AB88009000221146CDE901962846F6
:101B880005F0AAFA01460F346FF00302384641B94E
:101B98000EF002FFE1B238460EF040FFB4F5877F41
:101BA800E6D118EE100A0EF067FA40460EF0E4FA95
:101BB800084A0023136013B0BDEC028BBDE8F08F18
:101BC800DFF81C90CEE700BF00FFFF00B822010835
:101BD80008000020380100202C17010840170108D0
:101BE800B02201082DE9F04FD0F88430DFF83081B9
:101BF800DFF83091DFF830A189B00022D3E9004640
:101C080005460392D4F814C0E768674503AB4FF064
:101C1800080206A920463CD903F0E8FB002838D181
:101C2800039B082B35D1079AD4F814C0D30734D5B1
:101C3800069B3A4901328B42049235D0BDF81A30DE
:101C480046F277218B4203D044F257218B4241D18F
:101C580040F294739A421CDC06F1240B03AB5946FC
:101C6800204603F0C3FB034698B9DDE9031291420D
:101C78000FD130680093EA6EAB6ECDF814B003EB69
:101C8800820305A904AA0CF027FA58B303300128E7
:101C9800B8D9012009B0BDE8F08F0492002AB3D06A
:101CA800069B1E498B42C9D103AB102206F12401C1
:101CB800204603F09BFB0028EBD1039B102BE8D1B7
:101CC800736A4345E5D1B36A4B45E2D1336B53455B
:101CD800DFD197E70CEB0201204603F059FC0028FE
:101CE80090D0D6E7AB68012BD4D16A69E96EAB6EA8
:101CF800002A03EB8105CDDD541E05EB840405EBBA
:101D0800420232F8021D002361F30F0361F31F43FF
:101D1800AA4244F80439F4D1BCE700BF5249464608
:101D2800415649584C4953546D6F7669F0B5D0F80F
:101D38008430DFF818C11C685B6865691D628FB064
:101D4800002206460192BCE80F0004AF0FC75CF8FA
:101D5800043B3B80BCE80F000DF1240EAEE80F00F9
:101D6800DCF80030AEF80030E368AB4223D9082233
:101D780001AB0DEB0201204603F038FBD8B9019BFB
:101D8800082B18D103996569CB0717D50131EBD01A
:101D9800BDF80A3046F27722934217D044F2572210
:101DA800934213D02944204603F0F2FB18B9656921
:101DB800E368AB42DBD801200FB0F0BD0029D3D0D7
:101DC800BDF80A3046F277229342E7D140F2947385
:101DD8009942F0DC01AB04226946204603F006FB79
:101DE8000028E8D1019B042BE5D19DF8013013F0C0
:101DF800180F4FEAD3021CBFD24302F001019DF82D
:101E08000220C2F3810208BF0221C3F34103032A5F
:101E1800C3F10403CFD0032BCDD19DF8034001EBD0
:101E280041018B18A2090EAC04EB410104EB4303FA
:101E3800032A33F8283C31F8102C72610CBF0121B9
:101E480002211022C6E90323B160B5E7D8150108BD
:101E5800D0F8843070B5D3E9006504460CF036F943
:101E6800286020B1296A304603F092FB08B10120AE
:101E780070BD2046FFF7B6FE003818BF012070BDC0
:101E8800D0F8843010B51C68FFF7ACFE30B1E368B9
:101E98006069013B984234BF0220012010BD00BF99
:101EA800D0F8843010B5D3E9000403F059FB20685A
:101EB8000CF00EF9002010BDA02101200FF01CB974
:101EC80080B3D0F8843010B50446586808B10FF0D4
:101ED80039F9A06E08B10FF035F9206808B10FF094
:101EE80031F9A06908B10FF02DF9E06908B10FF0D8
:101EF80029F9206A08B10FF025F9606A08B10FF0D6
:101F080021F9E06A08B10FF01DF9A06A08B10FF0D5
:101F180019F9206B08B10FF015F92046BDE81040FB
:101F28000FF010B9704700BFA0B199B192B18BB151
:101F380010B4019C84B14FF0000C8367029BC46706
:101F4800C0E91C12C0F8843080F880C060465DF893
:101F5800044B7047012070470120F8E70221026F07
:101F680080F88010104700BF10B50446406904216E
:101F780040000FF0C1F808B30022A066636FE26664
:101F880020469847D0B96269A36FE2662046984711
:101F9800A0B99FED0B7B032384F880300A4963695D
:101FA80084F888002269C4F89C0001FB03F384EDDF
:101FB800247BB3FBF2F3C4F8983010BD012010BDA8
:101FC800000000000000000040420F00042310B58C
:101FD80080F88030C36E044643B94269A36FE26655
:101FE80020469847002384F8883010BD0022F5E782
:101FF8000521C26F80F88010104700BF2DE9F04F0F
:1020080087B00D4600230C22064602930DEB020111
:1020180002AB284603F0EAF980B9029B0C2B0DD1DC
:1020280003F18C43039A03F1461303F592439A4252
:1020380009D00124204607B0BDE8F08F02242046CD
:1020480007B0BDE8F08F744B059A9A42F1D186F833
:10205800AC00EA686B699A420446F0D9DFF8D4818B
:102068006E4FDFF8D491DFF8D4B115E0BB4208D148
:10207800059B4B4500F097805B4536D0684A9342F4
:1020880027D0049904396B692846194403F080FA6B
:102098006A69EB689A42D2D20C2202AB0DEB0201BC
:1020A800284603F0A3F904460028C7D1029B0C2B4D
:1020B800C4D1039B4345D9D104996B69C6F8EC1088
:1020C80004391944043BC6F8E830284603F060FA9E
:1020D800DEE704996B69C6F8F4100439C6F8F030E5
:1020E8001944284603F054FAD2E796F8AC10049B3A
:1020F800D6F8A80001930131C9B286F8AC10C1EB3B
:10210800C101C9000FF0D2F802ABC6F8A800082236
:1021180003A9284603F06AF900288FD1029B082BEF
:102128008CD1039B3F4A934283D196F8AC30D6F8C2
:10213800A8106FF03700382212FB03031944284611
:1021480002AB03F053F900287FF478AFDDF808A05C
:10215800BAF1380F7FF472AF02AB082203A9284600
:1021680003F044F900287FF469AF029B082B7FF441
:1021780065AF2D4B039A9A427FF45BAF96F8AC207B
:102188006FF037031AFB023AD6F8A830274A53F8FB
:102198000A3093421BD002F6EB32934229D0019BBE
:1021A800A3F14C016FE702AB402206F16801284613
:1021B80003F01CF900287FF441AF029B402B7FF409
:1021C8003DAFB36E1A4A93423FF462AF31E702ABB8
:1021D800282206F1AD01284603F008F900287FF40B
:1021E8002DAF029B282B7FF429AF019BA3F174012B
:1021F80049E702AB102206F1D501284603F0F6F8AC
:1022080000287FF41BAF029B102B7FF417AF019BB4
:10221800A3F15C0137E700BF415649204C495354AC
:102228006D6F7669737472687374726676696473B5
:1022380061766968696478316864726C7374726C09
:102248001AB140F8041B013AFBD170472E4A1368B3
:1022580023F0070343F0020310B51360136803F07B
:102268000703022BFAD12949294B0A6822F4404274
:1022780042F400420A601A6842F480321A601A680E
:102288009003FCD51A68234942F400221A60586862
:10229800214A01400A435A6059681D4A21F44031D5
:1022A8005960196841F08071196013689901FCD56B
:1022B800164A53685B04FCD5154CA36823F0F00359
:1022C800A360A36823F4E05343F48053A360A36896
:1022D80023F46043A360A36823F0030343F00203DD
:1022E800A360A36803F00C03082BFAD10B4802F093
:1022F80023F80A4802F042F8D4F88C3023F08073AF
:10230800C4F88C3010BD00BF003C02400070004093
:10231800003802400080BFFF192A400000BD0105B7
:10232800C84AC94B116841F400712DE9F04F11609A
:102338001168C64C41F480611160116841F48071E4
:102348001160596CC14A41F480415964596CD3B049
:1023580001F4804111911199196C41F0805119646F
:102368001B6C03F080531093109BD168B84B4FF649
:10237800FF0001400B43D360D368C3F30223C3F1CA
:1023880007011A1D042928BF0421062A88BFDA1E5E
:102398004FF0FF3303FA01F398BF0022DB43934069
:1023A8001B01DBB284F82330FFF750FFA94BAA4A80
:1023B8001B68A2FB03239B09013BB3F1807F09D271
:1023C8004FF0E022F02053610021072384F8230016
:1023D800916113610025CDE92B55CDE93755CDE93C
:1023E8003955994B9D4F1A6BDFF880929C4842F003
:1023F80004021A631A6B02F004021A921A9A1A6BF0
:1024080042F080021A631A6B02F080021B921B9A38
:102418001A6B42F001021A631A6B02F001021C9255
:102428001C9A1A6B42F002021A631B6B03F0020338
:102438001D931D9A4FF400531C2241F202060124F9
:10244800836135A9BA61C9F818604FF0020835935D
:10245800369401F0F1FC35A90C2338463593CDE9C3
:1024680038553694CDF8DC8001F0E6FC102335A908
:1024780038463593CDE93648CDE9385401F0DCFCCF
:1024880035A94846CDE93564CDE93785399401F059
:10249800D3FC744A93680F2123F00F0391FAA1F13A
:1024A80093609368F02123F0F00391FAA1F193600F
:1024B80011694FF4706393FAA3F3B3FA83F321F429
:1024C800706104FA03F30B43136103262BA82B94C2
:1024D800ADF8B0408DF8B26001F050FC2BA8CDF8F3
:1024E800AC80ADF8B0408DF8B2604FF4806A01F06E
:1024F80045FC2BA8ADF8B0408DF8B260CDF8ACA083
:1025080001F03CFCF96894FAA4F2B2FA82F294FA67
:10251800A4F3A240B3FA83F306FA02F2A34021EA35
:10252800020204FA03F31343FB60F96898FAA8F26D
:10253800B2FA82F298FAA8F3A240B3FA83F306FA41
:1025480002F2A34021EA020204FA03F31343FB60F8
:10255800D9F80C109AFAAAF2B2FA82F29AFAAAF305
:10256800A240B3FA83F306FA02F2A34021EA020278
:1025780004FA03F31343C9F80C303A6894FAA4F345
:10258800B3FA83F3A34006FA03F322EA030394FAA7
:10259800A4F43B603A6898FAA8F3B3FA83F35B00B3
:1025A80006FA03F322EA030398FAA8F83B60D9F87D
:1025B80000209AFAAAF3B3FA83F35B009E4022EA5A
:1025C80006029AFAAAFA214BC9F80020DB681E4EC7
:1025D800C3F30223C3F10702042A03F1040128BF4D
:1025E8000422062988BFDD1E4FF0FF339340DB43EA
:1025F80003F00103AB401C4A14491B01DBB2402025
:1026080082F806331060CB68C3F30223C3F10701D5
:102618001A1D042928BF0421062A88BFDA1E4FF094
:10262800FF3303FA01F36FEA030398BF002203F0B4
:10263800010393401B010C4A0449DBB2802082F855
:10264800073315E0003C02400038024000ED00E08E
:102658000003FA0504000020D34D62100000024078
:10266800000802400038014000E100E00004024098
:102678001060CB68C3F30223C3F107011A1D0429B4
:1026880028BF0421062A88BFDA1E4FF0FF3303FA59
:1026980001F36FEA030398BF002203F0010393409C
:1026A800BA49BB4A1B01DBB24FF4807081F828336A
:1026B8004860136B43F400131363136B03F40013A4
:1026C8001893189B136B43F480031363136B03F481
:1026D80080031993199BD1F80C3CC3F30223C3F16F
:1026E80007011A1D042928BF0421062A88BFDA1EFB
:1026F8004FF0FF3303FA01F36FEA030398BF002298
:1027080003F0020393401B01A04AA249DBB24FF435
:10271800804082F80E331060CB68C3F30223C3F104
:1027280007011A1D042928BF0421062A88BFDA1EBA
:102738004FF0FF3303FA01F36FEA030398BF002257
:1027480003F0020393401B01904A9249DBB24FF415
:10275800004082F80F331060CB68C3F30223C3F143
:1027680007011A1D042928BF0421062A88BFDA1E7A
:102778004FF0FF3303FA01F36FEA030398BF002217
:1027880003F0030393401B01804ADBB24FF0006162
:10279800002482F83B3335A85160282200210EF02E
:1027A8001BFE2E94336C7C4843F480433364336CB3
:1027B80003F480431693169B336B43F00203336391
:1027C800336B03F0020317934FF4604302274FF073
:1027D80001084FF0050B2B932BA90323CDE92C738C
:1027E800CDE92F8B179A01F027FB6C496C4A886D4D
:1027F80020F060608865886D20F0C0008865886D6D
:1028080020F4403040F480308865886D20F4907062
:102818008865886D20F400708865886D40F4806054
:102828008865886D20F4C0508865886D20F4C040A4
:102838008865C86E40F00400C866C86E40F00300A2
:10284800C866886D20F0C07040F080708865886D1B
:1028580020F4C0008865086F20F060600867086F82
:1028680020F0C00040F040000867086F20F44030B6
:1028780040F480300867086F20F490700867086F8C
:1028880020F400700867086F40F480600867086FDC
:1028980020F4C0500867086F20F4C0400867D1F8DA
:1028A800840040F00400C1F88400D1F8840040F0AE
:1028B8000300C1F88400086F20F0C07040F08070F9
:1028C8000867086F20F4C000086730204FF40079CB
:1028D8000A254FF4827A35A93B901046CDF8E89046
:1028E8003E95CDE93744CDE93C4435943994CDF84B
:1028F800D8A001F079FB2A4A516821F010015160F3
:1029080035A8282221460EF067FDCDE92E44726CC9
:10291800244842F480527264726C02F48052149219
:10292800149A326B42EA08023263326BCDF8C0B0B7
:1029380002EA0802159203232D932BA9159B2C97C5
:10294800A0232B9301F078FA174BDFF860B09A6D4B
:1029580022F0606242F0C0629A659A6D22F0C0026D
:1029680042F040029A659A6D22F440329A659A6D57
:1029780022F490729A659A6D22F400729A659A6DA3
:1029880042F480629A659A6D12E000BF00E100E0AF
:102998000038024000ED00E0000402400060024000
:1029A800003800400000024000640240003001404E
:1029B80022F4C05242F400629A659A6D22F4C04231
:1029C80042F400529A65DA6E42F00402DA66DA6E70
:1029D80042F00302DA669A6D22F0C07242F0807209
:1029E8009A659A6D22F4C0029A6535A94FF400637E
:1029F80058463793CDF8E890CDE93844CDE93B44C3
:102A0800CDF8D8A03594CDE93D4501F0EDFADBF8D5
:102A18000430DFF8E89223F01003CBF804302022CA
:102A2800214635A8CDE92244CDE9244426940EF068
:102A3800D3FCCDE92B44CDE92D44CDE92F44336CAB
:102A48003B433364336C3B401293129B22AD40F2FC
:102A5800E7332946ADF888304846D123249301F05E
:102A680047FBD9F80030414623F080034FF08048F7
:102A7800C9F80030D8F8183443F00803C8F81834F7
:102A8800602335AA3593484669233893CDE93644FF
:102A9800399401F079FBD8F81834884823F00403F6
:102AA800C8F81834D9F8043023F07003C9F8043092
:102AB800D9F8083023F08003C9F80830336B43F0A5
:102AC80001033363336B2C9703F0010313932BA992
:102AD8004023139A2B93CDE92D4430972F9401F07E
:102AE800ABF90EF0DBF8764AD2F8FC3013F08073BD
:102AF8000CD1D2F8FC1041F08071C2F8FC10A2F59C
:102B08005D425360136843F0010313606D4B2293D9
:102B180003F59A3323930823ADF898300423ADF8CE
:102B2800A0301023ADF8A830674BDFF890A1CDF89E
:102B380094A00FCB1EAC84E80F0094E80F004FF070
:102B4800030B0BAFCDF89CA0CDF8A4A0CDF890B0A6
:102B580087E80F005D4B08935D4B07935D4B069329
:102B68005D4B059302234FF001090A930023099551
:102B7800CDF81090CDE902334FF4A07E4FF0F00C61
:102B8800564FCDF804E0CDF800C07246634635A92B
:102B98003868534EDFF8688100F01AFB0546386044
:102BA80000F002FC3146284600F052FC4D494E48E0
:102BB800002202F0ABFB444B03F110040FCC0DF1E3
:102BC800AC0CACE80F000FCCACE80F0094E80300A5
:102BD8008CE8030004F024F92946836B04469847DF
:102BE800AB88EA880092E76B00222046063B062164
:102BF800B847236C2BA920469847636C3B4920466D
:102C080098475B464A462046A76C0021B8470223EE
:102C18000093374B374983F800B04FF480634A4636
:102C2800CDE9011334485346514601F0ADFB00216C
:102C3800314801F06DFC2846FEF74EFE3146284625
:102C480000F006FC0521204604F02CF915E0A36DE0
:102C580020469847E36D814620469847EB880293C3
:102C6800AB880146CDE9007348463B462A46FEF745
:102C780067F83146284600F0EBFB236D204698475D
:102C8800636D2046984707460028E0D0E368002295
:102C98000392DA6802925B68019323690093002229
:102CA80043461421284600F067FE05F0D9FE0028A7
:102CB800FBD03146284600F0CBFBDEE7000002409F
:102CC80000ED00E000300140001601087D3D0008DD
:102CD800753D00082D3D0008113D0008A4030020A3
:102CE800B19B31006C030020400100200800002047
:102CF80098340020000402407003002000040040C3
:102D0800683F0108FEE700BFFEE700BFFEE700BF1F
:102D1800FEE700BFFEE700BF704700BF704700BF77
:102D2800704700BF024A136801331360704700BF41
:102D38009C030020324A10B5546914F0010400D1F4
:102D480010BD01212F48516101F038FB01381F28BF
:102D5800F6D801A353F820F0032E0008E32D00084D
:102D6800492D0008F72D0008492D0008492D0008B5
:102D7800492D0008FB2D0008492D0008492D0008A1
:102D8800492D0008492D0008492D0008492D000843
:102D9800492D0008FF2D0008492D0008492D00087D
:102DA800492D0008492D0008492D0008492D000823
:102DB800492D0008492D0008492D0008492D000813
:102DC800492D0008492D0008492D0008492D000803
:102DD800492D0008E12D000820240B4A1378132BF5
:102DE800AED80A48591C40F82340117010BD082479
:102DF800F3E70424F1E71024EFE70224EDE700BF2E
:102E0800003C014070030020993400209C340020CD
:102E18001A4B5A69920700D47047022110B5184816
:102E2800596101F0CBFA01381F281BD8DFE800F000
:102E380021231A1B1A1A1A1D1A1A1A1A1A1A1A1FD1
:102E48001A1A1A1A1A1A1A1A1A1A1A1A1A1A1A10E4
:102E580020210C4A1378132B04D80B4C581C44F827
:102E68002310107010BD0821F3E70421F1E71021A9
:102E7800EFE70221EDE70121EBE700BF003C01404D
:102E880070030020993400209C340020704700BF54
:102E9800704700BF1B4B5A69520500D470474FF466
:102EA800806210B518485A61032101F087FA013889
:102EB8001F281BD8DFE800F021231A1B1A1A1A1D35
:102EC8001A1A1A1A1A1A1A1F1A1A1A1A1A1A1A1A55
:102ED8001A1A1A1A1A1A1A1020210C4A1378132BC4
:102EE80004D80B4C581C44F82310107010BD08214E
:102EF800F3E70421F1E71021EFE70221EDE70121D3
:102F0800EBE700BF003C014070030020993400202B
:102F18009C3400200148032100F0AEBE006402404A
:102F2800F8B52B4C636859050DD463681B0506D4A6
:102F3800274B4FF47C62DA60BFF34F8FF8BD254D05
:102F48002868C0B9F4E7234D286810B3FFF73EF8A6
:102F580008BB2868D0F89810D0F89C40DFF870C0FB
:102F6800D0E92423561844EB0307C0E92467DCF8AA
:102F780004301A05DCD5FFF729F8D0B92B68D3E956
:102F88002401D3E92626841846EB0105C3E9244524
:102F9800CEE76368CCE7052221460F480DF0E4FF31
:102FA8002868FFF725F82868FEF78AFF00202860C0
:102FB800D0E70749084805220DF0D6FF2868FFF733
:102FC80017F82868FEF77CFF00232B60D7E700BFBF
:102FD800006002403C010020003C00400C490D4AC2
:102FE8000B6810B50C4C121B2BB11844904207D833
:102FF8000860184610BD094B0B6018449042F7D979
:103008000EF018FA0C2303604FF0FF33184610BD7A
:10301800A003002000000120000400003836002032
:10302800034AD2F8883043F47003C2F888307047F6
:1030380000ED00E0DFF834D00D480E490E4A0023B9
:1030480002E0D458C4500433C4188C42F9D30B4A54
:103058000B4C002301E013600432A242FBD3FFF7BC
:10306800DFFF0EF0EDF9FFF75BF970470000012074
:10307800000000201C010020709401081C010020A1
:1030880034360020FEE70000036C13B1B0F844208A
:103098009A617047026C1AB1B0F844301B0493610E
:1030A800704700BF836B828F9A617047F8B5456A95
:1030B8002B685B06044623D494F865302BB9236C3F
:1030C8001BB1B4F8442012049A612B6823F42C43F2
:1030D8002B602B6843F040032B600B78012B4ED0FC
:1030E800022B6DD093B194F8653023B9236C13B1DA
:1030F800B4F844209A612B6823F040032B60F8BD94
:1031080000BF636A1B685F06D6D5F9E7A28F636ABA
:10311800A66B48781204B26118739A68960707D4A8
:1031280000BF9A689007FBD59A68120603D500BFBE
:103138009A681206FBD48E7801F1030E002E45D052
:1031480070460EEB060C636AA76B10F8012BA18F73
:10315800B9611A739A68970707D400BF9A689107EC
:10316800FBD59A68120603D500BF9A681206FBD4ED
:103178006045E8D10EEB06010B78012BB0D14E78F3
:1031880001F1020E16B370460EEB060C636AA76BCC
:1031980010F8012BA18FB9611A739A68970707D4A1
:1031A80000BF9A689107FBD59A68120603D500BF3D
:1031B8009A681206FBD46045E8D10EEB0601DBE7FE
:1031C80048788E1C01F0C8F8314686E7714684E7D6
:1031D8002DE9F04F83B0CDE90023BDF83090BDF85C
:1031E8003480BDF93860BDF93C709DF840B09DF859
:1031F80058A00C46002900F0B3807422002105462F
:1032080020460EF0E9F8DDF854C084F848A0BCE880
:103218000F0004F1240EAEE80F00BCE80F00AEE882
:103228000F00DCF80030CEF80030A36A002B3CD049
:10323800E26A5C49895C5A5822F001025A505A588D
:10324800D20703EB010005D500BF0268D207FBD403
:1032580094F848A0BAF1010F0BD0BAF1020F0ED1C1
:103268005A5822F4F0425A505A5842F420525A50AE
:1032780005E05A5822F4F0425A505A585A505A58AF
:1032880022F4802222F00E025A50426922F0800273
:1032980042615A5842F010025A505A5822F40072A9
:1032A8005A505A5842F480625A50019A00998A42F8
:1032B800134638BF0B468A4228BF0A46BBF1000FA7
:1032C80039D14A456681A781A280E380A4F800909D
:1032D800A4F8028048D8984546D3119B002B43D0C8
:1032E800129B002B40D0119A6261129AA261139A24
:1032F800E26117AB149A22620FCB002704F14C0647
:1033080084F808B086E80F00C4E91B7784F8647075
:1033180035B32B6F4BB101221D461B6F511C104654
:10332800CAB2002BF8D184F864002046E5662C6701
:1033380003B0BDE8F08FBBF1020F1ED0BBF1010F47
:1033480024D0BBF1030F0FD1A8EB0701C91A94468B
:10335800484637461A46C1460EB263468046B0E72D
:10336800204603B0BDE8F08F7422002120460EF0FD
:1033780033F8002003B0BDE8F08FA9EB0606A8EBF0
:103388000707B61AFF1A36B23FB29AE7A9EB060149
:10339800891A944648463E461A46C1460FB26346C5
:1033A80080468EE77C3F0108036B10B504465BB18D
:1033B800828E12049A61192000F0CEFF236BA28E30
:1033C8009A61192000F0C8FF6369207A984701467E
:1033D8002046FFF76BFE94F85A10E26C64290B46FE
:1033E80028BF642384F85A300AB3D16A174801FB0E
:1033F80003F3216DA0FB0303B1F5807F4FEA53135C
:1034080022D00FD801291AD0102908BF9363136856
:10341800DB0706D4136A19431162136843F00103EA
:10342800136010BDB1F5805FF1D11364EFE7636DF0
:10343800002BF6D0B4F8582019B19A6110BD536327
:10344800E5E712049A61F9E7D363E0E71F85EB51DA
:1034580010B5C4888388013C82B00022A4B2013B25
:10346800CDE900419BB2114600F097FB02B010BDB8
:103478002DE9F04F1F4689B0B9421646BDF94830CC
:10348800139A00F0A8809E4200F09480A3EB0608EF
:10349800A7EB0109B8F1000FB8BFC8F10008B9F1EE
:1034A800000FB8BFC9F10009C8451D463446BC46DF
:1034B8008E4640F396800C463D4631461F4676467A
:1034C8006346CA46B9420ADD641BB4460D4684EA1F
:1034D800E47A1E463946AAEBE47A63462F464B4DFA
:1034E800C2F3C40405EA122552092C4302F4F86217
:1034F800224394B2A7EB010B4FF6FF72CBF3C03512
:10350800B342C8BF012263BA05FA8BF59BB21FFA12
:103518008BFB0494CDF80CB01FFA8AFA6D10029256
:10352800059383460C4630E0B34252DDBBF80630C3
:10353800A3424EDD002E4CDB002CA4B215DBB3B247
:10354800009422461946584600F04AFADDE904314B
:103558009BF848205846012A08BF0B4601220DF166
:103568001E01ADF81E3000F09DFAA5EB0A031DB24E
:10357800002D9BB205DA029A1644039A134436B218
:103588001DB2013424B2A74220DBC845BBF8043081
:10359800CADCA3421DDDBBF80630B34219DD002C9E
:1035A80017DB002EA4B2E0DBB2B2009221465846E7
:1035B8002346C9E7B94225DD002907DB8488BC42D8
:1035C80004DD002B02DBC488B4420CDC09B0BDE882
:1035D800F08FA4B2C9E79E42EEDD34461E4623466C
:1035E800EAE7C2466EE7139227EAE77726EAE67229
:1035F8009BB2129392B28BB2B9B209B0BDE8F04F48
:1036080000F0CBBA3C460F462146D5E700F8FFFF4D
:103618002DE9F04383B00446DDF82C90BDF92880ED
:1036280000920E461546CDF804901F46FFF720FF7E
:1036380033462A4631462046CDE90089FFF718FF70
:1036480031463B4642462046CDE90089FFF710FF48
:103658003B462A4639462046CDE90A8903B0BDE8EB
:10366800F043FFF705BF00BF30B49942BDF908C069
:10367800039D02DD0C4619462346624502DD1446C9
:103688006246A446002B08DB84888C4205DDBCF129
:10369800000F02DBC488944201DC30BC70471FFA7B
:1036A8008CF422EAE27221EAE171039502949BB25A
:1036B80030BC92B289B200F070BA00BF2DE9F04F69
:1036C8008BB0A64C03919046159ADDF850909DF862
:1036D8005CC004EA1224C2F3C4015209214302F473
:1036E800F8620A4390F84810D9F8044092B20129C8
:1036F8000492169A00F01981049F984EC2F3C405EB
:1037080006EA12265209354302F4F86215430129E4
:10371800ADB201D16DBAADB299F808209A4204D879
:1037280099F80910994280F09780002399F80010C1
:103738004A1ED21002F1010BBBF1040F02922DDCDC
:1037480099F801200BFB03F302FB034A4FEACB0372
:10375800013B0126446A9E40BCF1000F7FD0EAB1CC
:10376800049BCDF850905BBA9BB200270793CDF825
:1037780014B0B946029A032A15D8DFE802F05F5C54
:10378800621200BFA3681B06FBD42368026C23F0F7
:103798004003236012B1B0F8443093610BB0BDE828
:1037A800F08FDAF80070059B9A440029F6D0039C44
:1037B80000250FFA88FB03E00134A942A4B22FDDEB
:1037C80007FA05F3334205F10105F5D0828823B2E3
:1037D8009A4244EA080CEFDDC3885B45ECDD1CF433
:1037E800004F2346E8D121464246CDF80080069096
:1037F80000F0F6F80698079990F84820049B012AEB
:1038080008BF0B460DF126010122ADF8263000F065
:1038180049F9149B069819780134A942A4B2CFDC5F
:10382800149B5B7809F101094B45B7DD08F10108E4
:103838001FFA88F89EE7BAF80070B4E79AF80070A3
:10384800B1E79AF802709AF801303F0447EA032773
:103858009AF800301F43A6E79B1ADBB266E708F127
:10386800FF3313449BB20093039B0290013B0B442C
:10387800424603999BB200F0B3F80298026C1AB161
:10388800B0F844301B049361836B828F9A6123687C
:1038980023F040032360236823F42C43236090F82B
:1038A8004830022B45D0236843F04003236099F841
:1038B8000130B3B3BBF1010F99F800304FF0000E9F
:1038C800AC462AD0BBF1020F45D0BBF1030F47D05D
:1038D800DAF80050DA4423B3002205FA02F1A368AB
:1038E800314214BF394661469B0703D400BFA36821
:1038F8009B07FBD590F84830022B1FD1E16099F85F
:10390800003001329342E8DC99F801200EF1010EF3
:10391800724506DDBBF1010FD4D19AF80050D9E702
:1039280000BFA3689A07FBD52CE7049D6FBABFB206
:10393800E3E6236843F400632360B4E7CBB2237360
:10394800A3689B07C1F3072103D400BFA3689B07A3
:10395800FBD52173D3E7BAF80050BBE700F8FFFFA7
:103968009AF802509AF801202D0445EA02259AF89F
:1039780000201543AEE700BF2DE9F04F1F4685B084
:103988001B780E9E9DF844A0DDE90F8905460C467C
:103998009346F3B13178AA8821449142284609DD3B
:1039A8007278E98893441FFA8BFB5A448A424FF095
:1039B80000040EDC2146CDE9029ACDE900685A469A
:1039C800FFF77CFE317817F8013F0C44A4B2002BB6
:1039D800E1D1EC81A5F810B005B0BDE8F08F00BFCB
:1039E80030B52C25B0F80CE0BDF80C407444724496
:1039F80034B42B25B0F80AE003EB0E0401EB0E03F8
:103A08002A223CB4D0F824E0036C846BB0F844500C
:103A1800B0F83CC0DEF80000010010F04000F9D119
:103A280021F42C4141F04001CEF8001013B14FEAC7
:103A3800054098614FEA0C40A06101BC8EF80C006B
:103A4800DEF8081011F00201FAD0DEF8081011F0C3
:103A58008001FAD12C281AD0C4F818C0022201BC5F
:103A68004FEA10218EF80C10DEF8081011F0020150
:103A7800FAD08EF80C00DEF808108900FBD0013A65
:103A8800EDD1DEF8081011F08001FAD1D2E703B1C8
:103A98009D61DEF8000020F0400040F40060CEF8A0
:103AA800000030BD30B56D40D0F824E0DEF80030BD
:103AB8009C4613F04003F9D14CF0400CCEF800C0FE
:103AC800036C23B1B0F844C04FEA0C449C61846B8A
:103AD800808FA0610888CEF80C002D4305B902310B
:103AE800DEF8080010F00200FAD0013AF2D1DEF850
:103AF800080010F08000FAD10BB1C3F818C0DEF846
:103B0800000020F04000CEF8000030BDD0F828C0FA
:103B18005CEA0C0C3FF4C6AF30B56D40D0F824E039
:103B2800DEF800301C0013F040037FF4BFAF44F010
:103B38004004CEF80040DEF8044044F00204CEF819
:103B48000440036C1BB1B0F8444024049C61836BAF
:103B5800848F9C6100F16004C06A182300FB03CCC9
:103B68000CF110004FF6FF739A42CEBFD21A1346DB
:103B78000022226043600EF10C0EC0F808E0C1601C
:103B880001682D430CBF41F4806121F4806141F04C
:103B9800010121F40071016030BD30B59942C2BF06
:103BA8008E4619467346BDF80C40A242C2BF9646DF
:103BB80022467446B0F804E0AEF1010E714531DCDE
:103BC800B0F806C0ACF1010C62452BDC7345C8BFE8
:103BD80073466445C8BF644682B000945D1A05F117
:103BE8000105A41A05FB04550400FFF7F9FE02B00D
:103BF8000498C0F3C401C0F3852241EA4211C0F31E
:103C0800C44241EAC221A4F86810200000F168010A
:103C18002A000125D0F828C05CEA0C0C3FF444AF18
:103C2800FFF77CBF30BD30B5B0F804E0714521D254
:103C380001EB030CF4451DD8B0F806E0724519D223
:103C4800039C1519754515D804FB03F4013D82B092
:103C58000095ACF101030500FFF7C2FE02B0280091
:103C680004992200059BBDE830401B433FF41AAF7E
:103C7800FFF74CBF30BD000000B50B00032BC6BFDB
:103C8800043B4FF00C0E4FF0080E0FF2740C1CF8AA
:103C980003C03F2202FA0CF240F80E20182201FB62
:103CA800020000F11000016821F0010101600168C3
:103CB80011F00101FBD1134B1B681A6E6AB14FF664
:103CC800FF718A42CEBF521A1146002241601A661D
:103CD800016841F00101016000BD586A416821F0A6
:103CE80002014160816811F08001FBD11A6C12B1A8
:103CF800B3F844109161016821F04001016000BDF2
:103D080000061016A403002003289CBF034B1B5C6D
:103D1800034888BF002380F841307047E44A01080F
:103D28001400002000B54FEA102C4FF0000E6CF381
:103D3800070E60F30F2E100A60F3174E62F31F6E22
:103D48004FF0000C0A0A62F3070C61F30F2C1A0AF1
:103D5800054862F3174C63F31F6CC0F803E0C0F822
:103D68000AC05DF804FB00BFA800002000487047A7
:103D7800BC00002000487047C400002003460079BA
:103D8800B0B11868F8B110B45A79012A2ED0022AB5
:103D98001AD012B301229B79002B39D0022B2FD0D5
:103DA800032B43D0012B37D001205DF8044B70471B
:103DB800204A1968136823EA01031360536823EA49
:103DC80001035360704770471A490C6804430C603C
:103DD8004C68044300224C60DDE716494C6824EA2D
:103DE80000044C600C6804430C60D4E711490C686B
:103DF80024EA00040C604C68044300224C60CAE7C3
:103E08000C4B996821EA00019960D9680143D9608F
:103E180010465DF8044B7047064BD96821EA00014B
:103E2800D9609968014399601046BEE7014B9968CB
:103E38000143E9E7003C01402DE9F0470C6894FA9A
:103E4800A4F2B2FA82F234FA02F37DD04FF0010EF6
:103E58004FF0030C4FF00F0A17E0D0F8008093FAE8
:103E6800A3F7B7FA87F793FAA3F3B3FA83F37F00BC
:103E78000CFA07F75B0028EA07089D4048EA0505A1
:103E88000560013234FA02F35ED00EFA02F32340E1
:103E9800F7D04D686F1E012F1FD8D0F8088093FA0D
:103EA800A3F7B7FA87F793FAA3F98E68B9FA89F9ED
:103EB8007F000CFA07F74FEA490928EA070706FACC
:103EC80009F847EA080787604768CE6827EA0307C2
:103ED80006FB03F847EA08074760D0F80C8093FA16
:103EE800A3F7B7FA87F793FAA3F97F000CFA07F755
:103EF80028EA0708B9FA89F90F694FEA490907FA60
:103F080009F948EA0907022DC760A6D193FAA3F771
:103F1800B7FA87F7072F1ADCD0F8208093FAA3F7AF
:103F2800B7FA87F793FAA3F94E69B9FA89F9BF0086
:103F38000AFA07F74FEA890928EA070706FA09F88B
:103F480047EA0807076288E70020BDE8F087D0F84D
:103F580024901F0A97FAA7F8B8FA88F897FAA7F7EB
:103F68004E69B7FA87F74FEA88080AFA08F8BF00D7
:103F780029EA080906FA07F749EA070747626CE7DA
:103F8800B0F5000F01D000207047134B9A68120259
:103F980020D4186810F000601BD010B45C68596811
:103FA800D3F88420D3F884300C4814F4800F0C4CD8
:103FB800C2F3881208BF204601F03F01C3F3027321
:103FC800B0FBF1F05DF8044B02FB00F0B0FBF3F03E
:103FD80070477047034870470038024040787D01B9
:103FE8000024F4000080BB000246006810F0400086
:103FF80028D1136830B423F47F4CD1E900352B4322
:104008008D684C692B43CD682B430D692B438D6913
:1040180023432B43CD692B430D6A2CF0BF0C2B4354
:1040280043EA0C031360536823F0040343EA144380
:10403800B5F5005F53600BD0D36923F4006330BC3F
:10404800D3617047D36923F400630120D3617047BB
:104058008B8C1361F0E700BFC3695B053ED470B574
:10406800C2690D46D1E9003122F4336204460B439C
:10407800A868296922F00F0213436A6903431343AE
:1040880043F400630229E3612AD000284FF40000BA
:1040980014BF40262026FFF773FFEA682969B2F5A6
:1040A800007F034607BF000A00EB8003B3FBF6F36B
:1040B80003EB83035B00B3FBF1F30C490533A1FB6E
:1040C80003131909881EFD28C3F3C00394BF41EAEE
:1040D8000321022111432162002070BD0120704795
:1040E800EA6811432162002070BD00BFCDCCCCCC62
:1040F800244A0368904230B434D0B0F1804F1DD0C8
:10410800A2F57C42904219D002F58062904215D007
:1041180002F58062904211D002F59A32904211D095
:1041280002F5806290420DD002F58062904209D07B
:104138008C680A880360C46282620CE04A6823F0D3
:1041480070031343CD688C680A8823F440732B43AB
:104158000360C4628262436943F00103436130BC77
:10416800002070474C68CA6823F07003234323F487
:104178004073134303608A680B88C26283620B69C9
:104188000363E8E700000140B1F5807F30B40346DF
:104198006CD025D801294BD0102946D1016A156960
:1041A80021F010010162016A40689C6921F0200138
:1041B80041EA0511156824F4E64444EA05245568E3
:1041C80021F0100141EA05115A4DAB4200F09780E9
:1041D800D26858609C6100209A6330BC19627047AD
:1041E800B1F5805F21D1016A156921F4805101621E
:1041F800016A4068DC6921F4005141EA053115681B
:1042080024F4E64444EA0524556821F4805141EA3F
:104218000531484DAB4200F08780D2685860DC61B8
:1042280000201A6430BC19627047012030BC704706
:10423800016A156921F001010162016A40689C69FF
:1042480021F002012943156824F073042C435568B2
:1042580021F001012943374DAB423CD0D268586068
:104268009C6100205A6330BC19627047016A156965
:1042780021F480710162016A4068DC6921F40071EF
:1042880041EA0521156824F073042C43556821F48C
:10429800807141EA0521274DAB4207D0D2685860AA
:1042A800DC610020DA6330BC19627047556921F47B
:1042B800006141EA8521956920F4805040EA0510A3
:1042C800956821F4806141EA8521D56920F4005080
:1042D80040EA4510E2E7556921F0080141EA850105
:1042E800956920F480702843956821F0040141EA1B
:1042F8008501D56920F4007040EA4500AEE75569AC
:1043080021F0800141EA8511956920F4806040EA36
:104318008500956821F0400141EA8511D56920F4AE
:10432800006040EAC50053E7956920F4804040EA00
:10433800851072E700000140064BA3FB00239B0990
:104348004FF0E022013B002005215361906111618B
:10435800704700BFD34D62104FF0E02382B01B6955
:104368000193421C019B18BF01304FF0E0221369F2
:10437800DB03FCD50138FAD102B07047014B186055
:10438800704700BF040000202DE9F84304460F469B
:1043980016460021282204301D46BDF82080BDF8AD
:1043A80028900DF019F8099B2760A680A560A4F84D
:1043B8000C802361A4F81490BDE8F88303460268D2
:1043C800B3F804C0126980681CEA020F0069B3F8E8
:1043D8000CC00CBF012200221CEA000F1869B3F8B8
:1043E80014C0006908BF42F002021CEA000F93F8EB
:1043F800280008BF42F0040210281DD093F82800B6
:10440800202819D0481E01281FD9032919D13E494F
:10441800D8690968884214D8987D02F004020028F7
:1044280060D1987D68B962B1012001F132029875B6
:1044380099610020DA6105E0032942D00139012998
:1044480003D9002083F82800704710B493F821108E
:1044580093F820408900C9B283F8211093F82110FD
:1044680002F00300014383F8211093F82100596AF0
:10447800002C00F00F00254C20560CBF4FF0010C0B
:104488004FF0FF3C0CFB00115962596A032911DCFB
:10449800596A033120DA520743BF00229A75202057
:1044A800022000225A6283F8212083F828005DF850
:1044B800044B7047510743BF00229A751020012012
:1044C800EFE711490968002201F6B8319A751046DC
:1044D800D96183F828207047002083F828005DF808
:1044E800044B70475AB901F132009A75D8619A693C
:1044F800891AB1F5FA6F34BF04200820A2E79A7D23
:10450800002A91D09DE700BF9C030020E84A0108DB
:1045180080F82010704700BF01F0B2BE01F0B2BDB4
:1045280038B5054C4FF00055A56101F0AFFE4FF4CA
:104538000053A36138BD00BF000802402DE9F843CD
:10454800002507688D758369002B00F0B180C36A68
:10455800013306460C4622D0F9680888D0B14FF0DE
:104568000208A94635B900F5205292B2B2F5006F9B
:10457800C0F0B48040F2623140EA054001F0A6FB89
:10458800FF28C9F1FF0340F29580012B00F2A880B3
:10459800002305B10023234400229A75A57DF26902
:1045A8001378202B99B200F0CF80052908BFE523A6
:1045B800637201235178202988B206D0052804EBBC
:1045C800030008BFE521417201339178202988B2A0
:1045D80006D0052804EB030008BFE521417201332A
:1045E800D178202988B206D0052804EB030008BF3B
:1045F800E521417201331179202988B206D00528B6
:1046080004EB030008BFE5214172013351792029E9
:1046180088B206D0052804EB030008BFE5214172E3
:1046280001339179202988B206D0052804EB0300CC
:1046380008BFE52141720133D179202988B206D01B
:10464800052804EB030008BFE52141720133117A04
:10465800202988B20BD0052803F1010004EB0306DA
:10466800204408BFE5212E27777202334172517A20
:10467800202988B206D0052804EB030008BFE521ED
:1046880041720133917A202988B25FD023440528EA
:1046980008BFE52159720021997255B3D37A03F006
:1046A8003F032372D3692360D38AE380138BA380EB
:1046B800BDE8F883D8B1002B3FF46BAF04EB0903D6
:1046C80098750123F9689944002531F8080008F124
:1046D800020800287FF446AF4B465AE70546F4E740
:1046E80004EB0902030A9375D0750223EAE703462F
:1046F8004FE7637A1846FBB16FF0070504F109012B
:1047080008262D1B0CE0192805D8107B064203F15A
:10471800200700D0FBB24B73681811F8013F5BB15A
:1047280098B22E2BA0F14100EDD14B73681811F807
:10473800013F1026002BF3D1204400238375137BFF
:10474800002BABD16372A9E7002333E7E1180020FF
:104758004872002DA2D1002BCBD13F23A375012095
:10476800EAE700BF70B54FF0FF360023B1420446B8
:104778000371866238D194F82C30B4F82A52EB2BA6
:104788000AD01833DBB2012B06D94AF655208542E8
:1047980014BF0320022070BD4AF655239D4209D05C
:1047A800B4F837305A1E1A4202D1B3F5007F29D027
:1047B800032070BD284E04F17E024FF0080C12F859
:1047C800010B16F8011B431A02D1BCF1010CF6D1FA
:1047D800002B36D0B4F837305A1E1A4202D1B3F53E
:1047E800007F30D0022070BD0D460A464078012374
:1047F80004F12C01FFF794FE08B9A562BBE7A66295
:10480800042070BD94F83930002BD1D05A1E1A42BA
:10481800CED1638F002BB8D094F83C30013B012BEC
:10482800B3D8B4F83D30002BAFD0B4F83F307F2B6D
:1048380003D8E36CB3F5803FA7D3B4F84230002B1C
:10484800A3D0002070BD94F83930002BCAD05A1E6E
:104858001A42DED0C6E700BFF84A01082DE9F04148
:10486800046800230B60002C00F09880224602E0C8
:104878003A2B00F0908012F8013B1F2BF8D8754BAB
:104888001C68002C00F0AB800C6023782BB160789A
:10489800FFF742FE10F001057AD0002360782370FC
:1048A800FFF73CFE10F0010571D129462046FFF7BD
:1048B80059FF022876D0042800F08B80012800F2E6
:1048C8008A80B4F83730A06AB3F5007F40F083805F
:1048D800B4F8422002B9226D94F83C306261591E46
:1048E8000129E37077D894F839108EB26681002ECA
:1048F80071D04E1E0E426ED1B4F83DE0A4F808E027
:104908001EF00F0F67D1B4F83F6006B9E66C678FE9
:10491800002F60D002FB03F307EB1E1C9C44B44538
:1049280059D8A6EB0C088845B8FBF1F653D34A4989
:104938008E4250D84FF6F5718E4273D840F6F57115
:104948008E4200EB070106F1020600EB0C07A0619E
:1049580067622661E16176D8BEF1000F3BD0194449
:1049680006EB460306F0010606EB5303012003F2AB
:10497800FF13B2EB532F21622DD3384A38491388DD
:10498800207001339BB21380E380E16000E00325CF
:104998002846BDE8F081A31C9A4222D00B25284660
:1049A800BDE8F081D4F8F211D4F80262D4F812828A
:1049B800D4F82272D1B90EBBB8F1000F28D157B183
:1049C80039462046FFF7CEFE01287FF67AAF042845
:1049D80001D10125DCE70D252846BDE8F0810C252D
:1049E800D6E72378302BD9D1026048E72046FFF775
:1049F800B9FE01287FF665AF002EDDD0314620468E
:104A0800FFF7B0FE01287FF65CAFB8F1000FD6D0F3
:104A180041462046FFF7A6FE01287FF652AF002F39
:104A2800D9D0CDE700EB0C016162B4F85610A06153
:104A3800B31C07445EEA0101E7612361CBD1A16D94
:104A48009B00032093E7BEF1000FC4D01944022055
:104A580073008CE7A8030020F5FFFF0FAC030020CC
:104A6800B0030020012930D9036999422DE9F041AA
:104A78000C46054602D30120BDE8F0810378022BDD
:104A880034D0032B23D0012BF5D1C169806A04EB04
:104A9800540801EB5827874247D1C8F3080308F1A7
:104AA80001082B4401EB5827874293F82C6047D123
:104AB800C8F308032B4493F82C3046EA0320E30795
:104AC8004CBF0009C0F30B00D6E701207047C66948
:104AD800836A06EBD1169E4200F12C071CD1A40074
:104AE80004F4FE74385920F07040C5E7C669836A3B
:104AF80006EB11269E4200F12C0704D1640004F451
:104B0800FF74385BB8E74078012332463946FFF72F
:104B180007FDF8B9AE62F1E740780123324639461D
:104B2800FFF7FEFCB0B9AE62D9E768783A4605F1FE
:104B38002C01FFF7F5FC68B9E969AF623846ACE7C4
:104B4800687801233A4605F12C01FFF7E9FC08B91A
:104B5800AF62ADE74FF0FF30A8628DE72DE9F84F5F
:104B68008468D0F8008000230546036184BB98F868
:104B78000030022B27D8B8F8083003B3D8F8203013
:104B8800C5E90543DBB108F12C03EB610027384682
:104B9800BDE8F88FF769B36A07EBD4179F4206F1AF
:104BA8002C095ED1A40004F4FE7459F8044024F0E2
:104BB8007044012C03D9D8F81030A3420CD802272E
:104BC8003846BDE8F88FD8F82030002BD3D01C46E3
:104BD800B8F80A20002A6ED1012C2E68EFD9336963
:104BE8009C42ECD23778022F24D0032FD2D0012F49
:104BF800E5D1F069B16A04EB540B00EB5B298945F8
:104C080038D1CBF308030BF1010B334400EB5B29DC
:104C1800894593F82CA03AD1CBF30803334493F891
:104C28002C304AEA032AE3074CBF4FEA1A14CAF3A6
:104C38000B04BEE7F769B36A07EB14279F4206F136
:104C48002C0905D1640004F4FF7439F80440B0E776
:104C5800707801233A464946FFF762FC10BBB762F9
:104C6800F0E7707801233A464946FFF759FCC8B97E
:104C7800B76297E770783B464A4606F12C01FFF782
:104C88004FFCA0B9F069C6F828904946B9E7707892
:104C980001234A4606F12C01FFF742FC38B9C6F851
:104CA8002890B9E74FF0FF33B36201276FE74FF061
:104CB800FF33B3626BE7D8F81030A11E023B99426C
:104CC80004D2D8F8243001FB023359E70023C5E9A0
:104CD800054374E72DE9F04F2DED028B89B0036889
:104CE800039380468A4611F8013B2F2BFAD05C2BA0
:104CF800F8D00023C8F808309AF800301F2B40F28B
:104D0800B282039BDE680024B51E1AF8010BA0B915
:104D180004254CB106EB440232F8023D202B01D0A9
:104D28002E2B38D1013CF7D10023338006221046C0
:104D380009B0BDEC028BBDE8F08F40F2623100F0A3
:104D4800E7FF03460028F1D01F28A44AE0D92F2BFB
:104D580012D05C2B10D07F2B08D812F8010B08B1A9
:104D68009842FAD1013A1278002ADFD1FF2CDDD01F
:104D780025F8023F0134C8E753461D782F2D9A467F
:104D880003F10103F9D05C2DF7D01F2D8CBF00254E
:104D98000125AD00BDE7002326F81430318820290D
:104DA80008BF324640F0D78132F8021F20299946C1
:104DB80003F10103F8D009F1020945F00305EDB24A
:104DC80006EB440333F8022D2E2A01D0013CF9D119
:104DD80008F1200202920B2320201B4303D002F883
:104DE800010B013BFBD1002900F078824FF0000B4A
:104DF800534608225F46C24620291BD02E2900F0C0
:104E08008481BA4240F28F814C4500F081817F292C
:104E180000F2B081DFF8C8C11CF8010B08B1884264
:104E2800FAD1BCF1010C9CF80000002800F0D481F4
:104E3800A846B7E145F00305EDB236F8191009F1B7
:104E480001090029D8D1D0469A4698F82030E52B98
:104E580004BF052388F82030082A00F06F810BF082
:104E68000C030C2B00F073810BF00303032B00F0F1
:104E78006E8105F002035BB91BF0010F1CBF45F002
:104E88001005EDB21BF0040F1CBF45F00805EDB28C
:104E980088F82B504046D8F800B0FFF75FFE02466E
:104EA800002840F02782D8F81870CDF814A0FF2207
:104EB8004FF0FF330192C8F82C3015460BF12C0641
:104EC800B946DBF828304B4514D09BF80100012384
:104ED8004A463146FFF724FB50B101224FF0FF3319
:104EE8001046CBF8283009B0BDEC028BBDE8F08F36
:104EF800CBF82890D8F81C402178E1B1E37AE5296D
:104F080003F03F0088F8060005D013F0080231D0FE
:104F18000F2800F089804FF0FF33C8F82C30FF25A8
:104F2800D8F81040D8F800702034B4F5001F05D325
:104F38000023C8F8183098F82B30E1E0D8F818901A
:104F4800B9F1000FF7D0C4F3080363B9D8F8141007
:104F580009F10109C8F81890002943D13A89B2EB40
:104F6800541F40F2C9802C371F44C8F81040C8F8B5
:104F78001C70A6E70F2857D0002D6BD098F82B701F
:104F8800F907C8D4DDF808C00B2514F8010B1CF884
:104F9800011BB0EB010E01D1013DF6D1BEF1000FAE
:104FA800B9D1DDF814A079073FF5C1AED80640F1B4
:104FB800AA800399D8F8102001F12C03C2F3080243
:104FC8000978134403295A8B04BF9B8A42EA034297
:104FD800C8F80820D8F8003094E600BF044B010850
:104FE800104B01087A89013A12EA542ABBD1384693
:104FF8000493FFF737FD012840F2B580431C00F009
:10500800B0803969049B884280F0AF800239C8F8C3
:105018001400023888423BBF79897A6A994600FBB6
:105028000129C8F818909EE798F82B305B063FF5E1
:1050380077AF4F065DD5627BD8F81030019201F04A
:10504800BF05C8F82C30637B019A934200F0CD80ED
:10505800FF2565E721786578C80140EA51002844B2
:10506800C0F34601A57841EAC01155FA81F1C1F3B0
:105078004600E57840EAC11055FA80F0C0F34601D1
:10508800257941EAC01155FA81F1C1F346006579E5
:1050980040EAC11055FA80F0C0F34601A57941EA0B
:1050A800C01155FA81F1C1F34600E57940EAC11013
:1050B80055FA80F0C0F34601257A41EAC01155FA45
:1050C80081F1C1F34600657A40EAC11055FA80F0D3
:1050D800C0F34601A57A41EAC01155FA81F1019859
:1050E800C9B281427FF44AAFDDF814A098F82B705A
:1050F80059E7A942ACD1A6E798F82B30C8F81810A0
:105108005C0700F1F580052211E64C457FF492AE6C
:105118000B2A00F0B3804FEA8B0B5FFA8BFBA1469A
:105128000B22082789E60B2A00F0A8804C45F2D00C
:1051380045F00305EDB2FFF486AEECE74FEA8B0BC2
:105148000BF00C030C2B5FFA8BFB7FF492AE45F04F
:105158000205EDB29CE62E294FF001097FF430AE2E
:105168002BE60122E3E50222E1E598F82B30C8F8A6
:1051780018A0C5E7084640F262310493019200F096
:10518800A5FD45F0020810F0800F019A049B5FFA14
:1051980088F8014611D000F07F015A48415C002987
:1051A80040F0AE8048F003085FFA88F55F210AEB0B
:1051B8000700013780F820103FE6FF28EFD9501E7E
:1051C800B84269D90AEB07004FEA112C4546013766
:1051D80080F820C0C9B2EAE7A1F1410080B21928DD
:1051E8005FD84BF0020BC9B2E1E7638B002B7FF469
:1051F8002FAF2778DFF81091069507F03F07013F9A
:1052080007EB470307EB8307DBF80C30CDF810807A
:1052180008EE106A079309F10D0A01201D46A04601
:1052280010E0FF2F204618D800F086FD034635F819
:1052380017001F4600F080FD87420ED120463746F2
:10524800D14538D019F8013B7E1C38F803400028B6
:10525800E7D14FF6FF739C42F2D0DDF8108018EECC
:10526800106AFF255CE68023404688F82B3009B099
:10527800BDEC028BBDE8F04FFFF770BCD0469A46F4
:1052880098F8203045F00305E52BEDB27FF4E7AD43
:10529800052388F82030E2E545F00305EDB217460E
:1052A800CBE5A1F1610080B219289CBF20394BF0F1
:1052B800010BC9B27BE74446069D2378DDF81080D0
:1052C8005C0618EE106A06D528B1079B33F817302C
:1052D800002B7FF4BDAE013DEDB221E698F82030F9
:1052E800E52B7FF4D5AD05238B4688F82030C0E543
:1052F80004221CE5042898F82B307FF418ADFFE64B
:10530800454687E5184B0108984B010800B583B05E
:10531800CDE9001009B38C4601E03A2B1AD01CF8ED
:10532800013B1F2BF9D8114B196811B100201860E7
:105338000870019911B10020088019601AB9104647
:1053480003B05DF804FB01A96846FFF787FA03B0CC
:105358005DF804FB8B1C9C4503D00B2003B05DF863
:1053680004FB0B78302BF8D1DDE700BFA803002041
:1053780070B590B00191002833D0044603A901A864
:105388001546FFF76BFA18B10023236010B070BD03
:10539800039E0199049604A8FFF79CFC0028F3D10A
:1053A8009DF93B30002B1FDB9DF8163013F01000E1
:1053B80001D00420E8E731780B9B03295A8B04BFFE
:1053C800998A42EA0142A260DB69E360F388A3801C
:1053D80005F001020023266022746374E3616361AF
:1053E800D4E7092010B070BD0620CDE72DE9F04FB5
:1053F8001F46002383B03B6050B1036804463BB1AD
:1054080015461A7822B1DA8888468188914205D0F3
:105418004FF00909484603B0BDE8F08F5878FFF708
:105428007BF8C107F4D494F81190B9F1000FF1D1C9
:10543800237C13F00103009300F08E806169E66815
:10544800D4F800A0761AAE4228BF2E46002EE1D02E
:10545800C1F3080204F1200B002A35D1BAF80A304A
:10546800013B13EA512342D0A069DAF81020023830
:10547800023A904248D2BAF80A10DAF8242001FB1E
:105488000022002A40D0B6F5007F1A4444D303EB2B
:10549800562088424FEA562588BFCD1A9AF801004F
:1054A8002B464146FFF73CF8002846D161696B025C
:1054B8003A6819441A44F61A3A6098446161A9D0C6
:1054C800C1F30802002AC9D0C2F50073B34228BF4D
:1054D80033465A4445469C465CEA0C0C06D012F802
:1054E800010B05F8010BBCF1010CF8D1E0E761BB39
:1054F800A068012808D9421C1FD0DAF81020A06142
:10550800023A02389042B6D34FF00209484684F86E
:10551800119003B0BDE8F08FE369934208D09AF880
:105528000100019201235946FEF7FAFF019A20B9BA
:105538006169E261C1F30802C6E7DDF80090012362
:105548004846637403B0BDE8F08FA16920680193F1
:10555800FFF788FA019BCCE74FF007095AE700BF2D
:1055680098B1036810B504462BB11A781AB181882E
:10557800DA88914201D0092010BD5878FEF7CCFF97
:1055880010F00100F7D1206010BD0920704700BF5E
:105598002DE9F04F83B040B1036804462BB11A7867
:1055A8001AB18088DA88904205D04FF00909484638
:1055B80003B0BDE8F08F58780091FEF7ADFFC20741
:1055C800F3D494F81190D4F800B0B9F1000FEED1EB
:1055D800E3680099994228BF19466369C4F8149092
:1055E8000029E4D0BBF80A60760213B3013B4A1ED7
:1055F800B3FBF6F0B2FBF6F282421AD37242A76905
:1056080013406361002F40F0D680C3F30803002BDA
:10561800CDD0E369BB42CAD09BF8010001233A46CA
:1056280004F12001FEF77CFF8146002835D1E761AF
:10563800BDE7A568A561002DB9D08A460023564567
:1056480080F0B7803344012D636107D0AAEB060AC6
:105658005F46CDF800903B69AB4204D84FF0020991
:1056680084F81190A3E73B78022B35D0032B19D08F
:10567800012BF3D1FA69B96A05EB550802EB5829F1
:10568800894545D078784A4607F12C01FEF748FF4E
:10569800002839D04FF0FF33BB624FF0010984F87E
:1056A800119084E7FB6903EBD518BB6A984507F1AD
:1056B8002C0909D07878012342464946FEF730FF85
:1056C8000028E7D1C7F82880AD0005F4FE7559F821
:1056D800055025F0704533E0FB6903EB1528BB6ADC
:1056E800984507F12C0909D07878012342464946A4
:1056F800FEF716FF0028CDD1C7F828806D0005F405
:10570800FF7539F805501BE0FA69C7F82890494633
:10571800C8F3080308F101083B4402EB58228A4207
:1057280093F82C901CD1C8F30808B84498F82C308A
:1057380049EA0329EB074CBF4FEA1915C9F30B05D2
:10574800012D8BD9DBF81030AB4287D95645A561BE
:1057580012D2636927683344AAEB060A63617AE7C1
:1057680078780192012307F12C01FEF7D9FE019AFE
:1057780000288FD1BA62D6E76369DDF800905344F8
:10578800CAF308076361002F3FF43FAFDBF810202E
:10579800023D023A9542BFF461AFBBF80A20DBF83C
:1057A800247005FB0277002F3FF458AF07EB5A2708
:1057B8002BE70B46E4E73D46A1EB030A3FE700BFB2
:1057C80030B585B0019100282FD0044603A901A85F
:1057D800FFF744F818B10023236005B030BD039DDE
:1057E800019925602046FFF775FAD0B994F92B3056
:1057F800002B0BDBA379DB0615D52978E269032991
:10580800538B04BF928A43EA0243A360EB88A380C8
:105818002046FFF7A3F9042805D00028DBD105B0FE
:1058280030BD0428D7D10520D5E7092005B030BD03
:1058380098B1036810B504462BB11A781AB181885B
:10584800DA88914201D0092010BD5878FEF764FE2D
:1058580010F00100F7D1206010BD0920704700BF8B
:105868002DE9F04F85B048B10368044633B11A7882
:1058780022B1DA8889468188914205D04FF0090A19
:10588800504605B0BDE8F08F5878FEF745FE10F099
:10589800010AF3D1B9F1000F00F0C380A6692768A7
:1058A8008EB3FF230193984607F12C0BBB6AB342D2
:1058B80012D07878012332465946FEF731FE50B1AE
:1058C8004FF0010A4FF0FF3200235046BA62A3613D
:1058D80005B0BDE8F08FBE62E369197899B1DA7A4C
:1058E800E52902F03F02A27105D02E2903D022F04B
:1058F8002000082850D125694FF0FF082035B5F55C
:10590800001F23680ED30023A36149462046FEF7F3
:1059180015FE256926682035B5F5001F53D30023E9
:10592800A361ADE7A669002EEDD0C5F308026AB9F8
:1059380061690136A66171B91A89B2EB551FE2D9BE
:105948002C332561E361002EB0D1DEE72C331344FC
:105958002561E361AAE75A89013A12EA5522EFD193
:10596800184603920293FFF77DF8012840F2D18090
:10597800421C00F0CB80029B19698842C3D20239CD
:10598800606102388842039A80F0BB805A895E6A57
:1059980000FB0266A661D3E70F2A40F0BD804806E7
:1059A8000CD55A7B2569019201F0BF08E5621146C2
:1059B8005A7B8A423BD04FF0FF089FE74145256953
:1059C800F9D10199F4E7A369002B3FF459AFC5F366
:1059D80008070FBB61690133A361002900F08C80BF
:1059E8007389013B13EA552816D13046FFF73AF878
:1059F800012840F26781431C00F0618133699842B5
:105A08008DD2023B60610238984203D27289736A70
:105A180000FB0238C4F818802C363E442561E66144
:105A28002EE7204605B0BDE8F04FFFF797B85A8B30
:105A3800002AC0D11A7822F04002013A02EB420152
:105A480002EB8102FF2AB3F80110B4D8F86820F8F5
:105A580012104FEA420CB3F80360002940F0AD8001
:105A68004FF6FF729642A6D1B3F805E04FF6FF72E3
:105A78009645A0D1B3F807604FF6FF7296429AD1C7
:105A8800B3F809E04FF6FF72964594D1DE894FF6D8
:105A9800FF7296428FD1B3F810E04FF6FF72964529
:105AA80089D15E8A4FF6FF72964284D1B3F814E02A
:105AB8004FF6FF7296457FF47EAFDE8A4FF6FF728F
:105AC80096427FF478AFB3F818E04FF6FF72964528
