:020000040800F2
:1000000000000120E52F0008552D0008592D00089B
:100010005D2D0008612D0008652D0008000000001E
:10002000000000000000000000000000692D000832
:100030006D2D000800000000712D0008752D0008CE
:1000400035300008353000083530000835300008FC
:100050003530000835300008852D0008F12D0008E6
:1000600035300008353000083530000835300008DC
:100070003530000835300008552E0008592E00088C
:10008000D12E00083530000835300008000000008F
:1000900000000000000000000000000035300008F3
:1000A000353000083530000835300008353000089C
:1000B000353000083530000835300008353000088C
:1000C000353000083530000835300008353000087C
:1000D00035300008353000083530000800000000D9
:1000E0005D2E0008353000083530000800000000A3
:1000F0000000000000000000000000003530000893
:1001000000000000353000083530000835300008A8
:1001100000000000000000000000000000000000DF
:10012000353000083530000835300008C52E00088D
:100130003530000800000000000000000000000052
:100140000000000000000000000000003530000842
:1001500035300008353000083530000835300008EB
:1001600035300008353000080000000000000000B5
:10017000000000000000000000000000000000007F
:100180000000000035300008000000000000000002
:0401900035300008FE
:1001980010B5054C237833B9044B13B10448AFF3B9
:1001A80000800123237010BD3001002000000000F2
:1001B8007413010808B5034B1BB103490348AFF397
:1001C800008008BD000000003401002074130108FD
:1001D8002DE9F04F82B001904FF000744FF0007895
:1001E8004FF000054FF0000952F804CB52F804EB29
:1001F8000868CB6DC0FB0C45D1F88000CEF1000E2D
:10020800C3FB0E45D1F8DC30C0FB0C89C3FB0E895B
:1002180052F804CB52F804EB48688B6DC0FB0C45D0
:10022800D1F88400CEF1000EC3FB0E45D1F8D830CA
:10023800C0FB0C89C3FB0E8952F804CB52F804EBBF
:1002480088684B6DC0FB0C45D1F88800CEF1000ED4
:10025800C3FB0E45D1F8D430C0FB0C89C3FB0E8913
:1002680052F804CB52F804EBC8680B6DC0FB0C4580
:10027800D1F88C00CEF1000EC3FB0E45D1F8D0307A
:10028800C0FB0C89C3FB0E8952F804CB52F804EB6F
:100298000869CB6CC0FB0C45D1F89000CEF1000E7C
:1002A800C3FB0E45D1F8CC30C0FB0C89C3FB0E89CB
:1002B80052F804CB52F804EB48698B6CC0FB0C4530
:1002C800D1F89400CEF1000EC3FB0E45D1F8C8302A
:1002D800C0FB0C89C3FB0E8952F804CB52F804EB1F
:1002E80088694B6CC0FB0C45D1F89800CEF1000E24
:1002F800C3FB0E45D1F8C430C0FB0C89C3FB0E8983
:1003080052F804CB52F804EBC8690B6CC0FB0C45DF
:10031800D1F89C00CEF1000EC3FB0E45D1F8C030D9
:10032800C0FB0C89C3FB0E8901984FF4FE4E4EF0BA
:10033800FF0E4FEA946444EA851404F30F0401B4F1
:10034800DFF8EC06007804FB00F44FEA241401BC43
:100358004FEA986848EA891808F30F0801B4DFF8EB
:10036800D006007808FB00F84FEA281801BC048082
:10037800A0F8028002F5707201F580514FF0007408
:100388004FF000784FF000054FF0000952F804CB09
:100398000868D1F88030C0FB0C45C3FB0C8952F8C3
:1003A80004CB4868D1F88430C0FB0C45C3FB0C89EA
:1003B80052F804CB8868D1F88830C0FB0C45C3FBE1
:1003C8000C8952F804CBC868D1F88C30C0FB0C45B6
:1003D800C3FB0C8952F804CB0869D1F89030C0FBF4
:1003E8000C45C3FB0C8952F804CB4869D1F894300A
:1003F800C0FB0C45C3FB0C8952F804CB8869D1F8C3
:100408009830C0FB0C45C3FB0C8952F804CBC86973
:10041800D1F89C30C0FB0C45C3FB0C8901984FF404
:10042800FE4E4EF0FF0E4FEA946444EA851404F33E
:100438000F0401B4DFF8F805007804FB00F44FEA74
:10044800241401BC4FEA986848EA891808F30F0891
:1004580001B4DFF8DC05007808FB00F84FEA28183B
:1004680001BCA0F84040A0F84280A2F57872A1F53E
:1004780070614FF00F0C00F10400CDF800C001903E
:100488004FF000744FF000784FF000764FF0007A8C
:100498004FF000054FF000094FF000074FF0000B38
:1004A80052F804CB52F804EB0868CB6DC0FB0C453E
:1004B800C0FB0E67CEF1000EC3FB0C67C3FB0E45F5
:1004C800D1F8DC30D1F88000C3FB0E89C3FB0CAB3C
:1004D800CEF1000EC0FB0C89C0FB0EAB52F804CB6A
:1004E80052F804EB48688B6DC0FB0C45C0FB0E67E7
:1004F800CEF1000EC3FB0C67C3FB0E45D1F8D83014
:10050800D1F88400C3FB0E89C3FB0CABCEF1000EFF
:10051800C0FB0C89C0FB0EAB52F804CB52F804EBBD
:1005280088684B6DC0FB0C45C0FB0E67CEF1000E12
:10053800C3FB0C67C3FB0E45D1F8D430D1F8880053
:10054800C3FB0E89C3FB0CABCEF1000EC0FB0C89BC
:10055800C0FB0EAB52F804CB52F804EBC8680B6D25
:10056800C0FB0C45C0FB0E67CEF1000EC3FB0C6749
:10057800C3FB0E45D1F8D030D1F88C00C3FB0E89EF
:10058800C3FB0CABCEF1000EC0FB0C89C0FB0EAB5D
:1005980052F804CB52F804EB0869CB6CC0FB0C454D
:1005A800C0FB0E67CEF1000EC3FB0C67C3FB0E4504
:1005B800D1F8CC30D1F89000C3FB0E89C3FB0CAB4B
:1005C800CEF1000EC0FB0C89C0FB0EAB52F804CB79
:1005D80052F804EB48698B6CC0FB0C45C0FB0E67F6
:1005E800CEF1000EC3FB0C67C3FB0E45D1F8C83033
:1005F800D1F89400C3FB0E89C3FB0CABCEF1000EFF
:10060800C0FB0C89C0FB0EAB52F804CB52F804EBCC
:1006180088694B6CC0FB0C45C0FB0E67CEF1000E21
:10062800C3FB0C67C3FB0E45D1F8C430D1F8980062
:10063800C3FB0E89C3FB0CABCEF1000EC0FB0C89CB
:10064800C0FB0EAB52F804CB52F804EBC8690B6C34
:10065800C0FB0C45C0FB0E67CEF1000EC3FB0C6758
:10066800C3FB0E45D1F8C030D1F89C00C3FB0E89FE
:10067800C3FB0CABCEF1000EC0FB0C89C0FB0EAB6C
:1006880001F5807101984FF4FE4E4EF0FF0E4FEACF
:10069800946444EA851404F30F0401B4E448007830
:1006A80004FB00F44FEA241401BC4FEA986848EAB6
:1006B800891808F30F0801B4DD48007808FB00F832
:1006C8004FEA281801BC4FEA966646EA871606F3F1
:1006D8000F0601B4D648007806FB00F64FEA261646
:1006E80001BC4FEA9A6A4AEA8B1A0AF30F0A01B464
:1006F800CF4800780AFB00FA4FEA2A1A01BCDDF855
:1007080000C000EBCC0E2EF8026B2EF802AB20F8DE
:10071800024B20F8028BBCF1010C7FF4AEAE02B0A4
:10072800BDE8F08F2DE9F04F82B001904FF00074D2
:100738004FF0000552F804CB52F804EB0868CB6D73
:10074800CEF1000EC0FB0C45C3FB0E4552F804CB9E
:1007580052F804EB48688B6DCEF1000EC0FB0C45D7
:10076800C3FB0E4552F804CB52F804EB88684B6D76
:10077800CEF1000EC0FB0C45C3FB0E4552F804CB6E
:1007880052F804EBC8680B6DCEF1000EC0FB0C45A7
:10079800C3FB0E4552F804CB52F804EB0869CB6C46
:1007A800CEF1000EC0FB0C45C3FB0E4552F804CB3E
:1007B80052F804EB48698B6CCEF1000EC0FB0C4577
:1007C800C3FB0E4552F804CB52F804EB88694B6C16
:1007D800CEF1000EC0FB0C45C3FB0E4552F804CB0E
:1007E80052F804EBC8690B6CCEF1000EC0FB0C4547
:1007F800C3FB0E4501984FF4FE4E4EF0FF0E4FEA34
:10080800946444EA851404F30F0401B4884800781A
:1008180004FB00F44FEA241401BC048002F5707252
:1008280001F580514FF000744FF0000552F804CBE9
:100838000868C0FB0C4552F804CB4868C0FB0C455F
:1008480052F804CB8868C0FB0C4552F804CBC86842
:10085800C0FB0C4552F804CB0869C0FB0C4552F8A4
:1008680004CB4869C0FB0C4552F804CB8869C0FB2F
:100878000C4552F804CBC869C0FB0C4501984FF4ED
:10088800FE4E4EF0FF0E4FEA946444EA851404F3DA
:100898000F0401B46648007804FB00F44FEA2414FE
:1008A80001BC0484A2F57872A1F570614FF00F0CB9
:1008B80000F10200CDF800C001904FF000744FF035
:1008C80000764FF000054FF0000752F804CB52F8BD
:1008D80004EB0868CB6DC0FB0C45C0FB0E67CEF17E
:1008E800000EC3FB0E45C3FB0C6752F804CB52F84D
:1008F80004EB48688B6DC0FB0C45C0FB0E67CEF15E
:10090800000EC3FB0E45C3FB0C6752F804CB52F82C
:1009180004EB88684B6DC0FB0C45C0FB0E67CEF13D
:10092800000EC3FB0E45C3FB0C6752F804CB52F80C
:1009380004EBC8680B6DC0FB0C45C0FB0E67CEF11D
:10094800000EC3FB0E45C3FB0C6752F804CB52F8EC
:1009580004EB0869CB6CC0FB0C45C0FB0E67CEF1FD
:10096800000EC3FB0E45C3FB0C6752F804CB52F8CC
:1009780004EB48698B6CC0FB0C45C0FB0E67CEF1DD
:10098800000EC3FB0E45C3FB0C6752F804CB52F8AC
:1009980004EB88694B6CC0FB0C45C0FB0E67CEF1BD
:1009A800000EC3FB0E45C3FB0C6752F804CB52F88C
:1009B80004EBC8690B6CC0FB0C45C0FB0E67CEF19D
:1009C800000EC3FB0E45C3FB0C6701F5807101984F
:1009D8004FF4FE4E4EF0FF0E4FEA946444EA85143D
:1009E80004F30F0401B41248007804FB00F44FEA42
:1009F800241401BC4FEA966646EA871606F30F06EA
:100A080001B40B48007806FB00F64FEA261601BC35
:100A1800DDF800C000EB8C0E2EF8026B20F8024BBC
:100A2800BCF1010C7FF446AF02B0BDE8F08F0000C6
:100A380001000020034613F8012B002AFBD1181AE5
:100A48000138704753B94AB9002908BF00281CBFAC
:100A58004FF0FF314FF0FF3000F074B9ADF1080CE2
:100A68006DE904CE00F006F8DDF804E0DDE90223C4
:100A780004B070472DE9F047089D04468E46002BC8
:100A88004DD18A42944669D9B2FA82F252B101FA3A
:100A980002F3C2F1200120FA01F10CFA02FC41EA4A
:100AA800030E94404FEA1C48210CBEFBF8F61FFACF
:100AB8008CF708FB16E341EA034306FB07F199426A
:100AC8000AD91CEB030306F1FF3080F01F8199421D
:100AD80040F21C81023E63445B1AA4B2B3FBF8F0F7
:100AE80008FB103344EA034400FB07F7A7420AD97E
:100AF8001CEB040400F1FF3380F00A81A74240F2A6
:100B080007816444023840EA0640E41B00261DB110
:100B1800D4400023C5E900433146BDE8F0878B4245
:100B280009D9002D00F0EF800026C5E90001304604
:100B38003146BDE8F087B3FA83F6002E4AD18B42DE
:100B480002D3824200F2F980841A61EB0303012088
:100B58009E46002DE0D0C5E9004EDDE702B9FFDE74
:100B6800B2FA82F2002A40F09280A1EB0C014FEA1F
:100B78001C471FFA8CFE0126200CB1FBF7F307FB7C
:100B8800131140EA01410EFB03F0884208D91CEB1F
:100B9800010103F1FF3802D2884200F2CB804346BC
:100BA800091AA4B2B1FBF7F007FB101144EA01449B
:100BB8000EFB00FEA64508D91CEB040400F1FF312A
:100BC80002D2A64500F2BB800846A4EB0E0440EA18
:100BD80003409CE7C6F12007B34022FA07FC4CEA21
:100BE800030C20FA07F401FA06F31C43F9404FEA14
:100BF8001C4900FA06F3B1FBF9F8200C1FFA8CFE29
:100C080009FB181140EA014108FB0EF0884202FA7C
:100C180006F20BD91CEB010108F1FF3A80F088803D
:100C2800884240F28580A8F102086144091AA4B2FA
:100C3800B1FBF9F009FB101144EA014100FB0EFE7B
:100C48008E4508D91CEB010100F1FF346CD28E45AA
:100C58006AD90238614440EA0840A0FB0294A1EB3B
:100C68000E01A142C846A64656D353D05DB1B3EB98
:100C7800080261EB0E0101FA07F722FA06F3F140C8
:100C88001F43C5E9007100263146BDE8F087C2F16F
:100C98002003D8400CFA02FC21FA03F391400143E7
:100CA8004FEA1C471FFA8CFEB3FBF7F007FB103620
:100CB8000B0C43EA064300FB0EF69E4204FA02F4CC
:100CC80008D91CEB030300F1FF382FD29E422DD91F
:100CD800023863449B1B89B2B3FBF7F607FB163354
:100CE80041EA034106FB0EF38B4208D91CEB0101D4
:100CF80006F1FF3816D28B4214D9023E6144C91A54
:100D080046EA004638E72E46284605E70646E3E663
:100D18001846F8E64B45A9D2B9EB020864EB0C0E6D
:100D28000138A3E74646EAE7204694E74046D1E77C
:100D3800D0467BE7023B614432E7304609E764442A
:100D4800023842E7704700BF2DE9F04F2DED088BC0
:100D5800ADF2746D15461C4602460B460220314919
:100D6800BDF8B896BDF8BC76BDF8C0860FF00EFE8B
:100D78000122064601468CA804F00CFB8246304648
:100D880010F00EF9BAF1000F05D00DF2746DBDEC3C
:100D9800088BBDE8F08F5146F8224EA810F030F9C4
:100DA8008CA94EA801F02EF99DF83861304310F057
:100DB800FF060DD08CA804F0E7FB78980028E4D053
:100DC80010F0EEF80DF2746DBDEC088BBDE8F08FF5
:100DD8008A998CA804F0F0FB739B984507D9A8EB77
:100DE800030303EBD37309EB63091FFA89F9729BB9
:100DF8009F4205D9FB1A03EBD37304EB6304A4B237
:100E0800DDF8F521084B9A4203D1BDF80D32552B78
:100E18000CD0789808B110F0C3F88CA804F0B4FB93
:100E2800B3E700BF481501084D4A50474FF4087210
:100E38008CA90DF58A6010F0BBF84FF4F76101201A
:100E480010F074F8824601F03BF8DF4BDF49186078
:100E580012AB8CAA0193DE4B12920093DD4ADE4B53
:100E6800CDF84CA001F064F8D74BDFF8A4A31868BC
:100E780001F078F8D44B186801F07AF8D24BD748CB
:100E88001B68012219690FF0C3FFD54BD54A4FF0F3
:100E9800000BC3F800B00DF58A6314930123137097
:100EA80003216A9B04935846CDF834B00FF020F81C
:100EB800CD4A08EE100A5023CDE900325946C8231E
:100EC8005A4609EE100A0FF077F818EE100A80213A
:100ED8000FF06EF8022118EE100A0FF009F803223D
:100EE8004D236FF07F41CDE90031C52311460FF046
:100EF80063F89AE80F000DF19C0CACE80700242277
:100F080059460DF1AA00ACF8003010F079F8B54A4E
:100F1800B64B1178B64A01290CBF114619460DF196
:100F2800A90318460FF0F2FC062118EE100A0EF07D
:100F3800DFFFB04AB04900920A2227AB0291CDF8F0
:100F480004B011460AF1340A0FF086F8BAE80F0027
:100F58000DF1D00CACE80F00DAF80030CCF8003016
:100F68001E22594639A810F04BF8A44BA44A1B6816
:100F7800934240F2288302F17852A2F55A02A2F570
:100F88001F72A2FB0323980C0A220DF1E30110F053
:100F9800A5F9062119EE100A0EF0AAFF964B4FF09C
:100FA800000A0DF1D00CCDE901A3924B0093172252
:100FB80063460A210FF050F8DFF858E2BEE80F0048
:100FC8000DF5827CACE80F00DEF80030CCF800307C
:100FD8001E22514646A810F013F8062119EE100AF1
:100FE8000EF086FF8449834A00920DF5827C6346A1
:100FF8002D22CDE901A10A210FF02EF850460EF05E
:1010080025FF08EE900A01234FF47F0251460AEEAD
:10101800100A0EF037FF18EE900A01234FF47F42B2
:1010280032210EF02FFF0123FF2218EE900A6421CF
:101038000EF028FF18EE900A5A210EF057FF0321F0
:1010480019EE100A0EF054FF4FF0FF0C4623CDE9BD
:10105800003C8346BE233C220A210EF0ADFF18EE69
:10106800901A58460EF0A2FFDFF8ACE1DFF878B12D
:10107800BEE80F000DF1840CACE80F009EE80300F9
:101088004CF8040B19EE100AACF8001006210EF00B
:101098002FFF6FF07F4C574A0092CDE901AC21AB8E
:1010A8003B2210210EF0D8FF032119EE100A0EF092
:1010B8001FFF4FF47F0E08EE100A1723CDE9003EFC
:1010C8000A22C22306210BEE100A0EF075FF18EE55
:1010D800100A80210EF06CFFEA88A988503AC839B6
:1010E80002EBD27201EBD171521019EE100A4910BD
:1010F8000FF062FB032150460EF0FAFE292308EE9A
:10110800100A5246CDE9003B5146C82308EE900A22
:101118000EF052FF18EE100A80210EF049FF18EE6B
:10112800100A02210EF0E4FE6FF07F4303220193C0
:10113800262311460093C5230EF03EFF314B16932C
:1011480018EE100A0521CDF85CA08DF860A00EF00D
:10115800CFFE142210231521CDF800A083460EF0EF
:1011680073FF0DF1580C614658460EF01DFF18EE3E
:10117800100A03210EF0BCFE234B1993052109EE3A
:10118800900A18EE100ACDF868A08DF86CA00EF041
:10119800AFFE1422102308EE100A1521CDF800A086
:1011A8000EF052FF0DF1640C614618EE100A0EF0B5
:1011B800FBFE164B93E803008DF83C100E900621B9
:1011C80018EE900A2AE000BF500100203D1D0008DB
:1011D800B11E0008611E0008911E0008003C004076
:1011E8004C01002000000020A9A9A9003C15010815
:1011F800301501080800002000FFFF00040000204F
:10120800FFE0F505883D0108983D01084C150108E7
:101218008C130108F4130108541501080EF068FE38
:10122800B74AB849009202910EAB2821CDF804A024
:101238000E220AEE900A0EF00FFFB34B1978002920
:1012480000F0CF810B1F052B40F2C98109298CBF03
:101258004FF47F434FF47F0301EBC10101EB011110
:1012680001931A220B1119EE900A283300922821B3
:101278000E220EF0A1FE18EE100A00210EF09AFEC2
:101288001AEE900A00210EF095FEEA88A9882A3AFB
:10129800C83902EBD27201EBD171521018EE900AE4
:1012A80049100FF089FA994B00211B6805932846CD
:1012B80002F0AAF8964997480B6897495A699B6EB5
:1012C8009200009205220FF00DFDDDF85C24DDF898
:1012D80064349A4240F28D800499059A0A97002353
:1012E8004908CDE90849CDF82C8007930692AA460B
:1012F800374689461C469846884D4FF48036C5F8CF
:101308008060BFF34F8FBFF36F8F08220DAB10A91A
:101318000DF58A6004F080F82E60002869D10D9BD5
:10132800082B66D1109B7E4A934200F00381119BE3
:10133800DDF86454DE0748BF01331593BDF8423029
:1013480046F26432934200F0AD8044F24432934254
:1013580000F0A8800026159B93B1704F4FF4803B96
:10136800C7F880B0BFF34F8FBFF36F8F15990DF596
:101378008A60294404F020F9C7F800B0002838D161
:1013880066494FF48030C1F88000BFF34F8FBFF338
:101398006F8F5F4B1B68002B00F0D181D3E92423AA
:1013A8000860B2EB090063F10001844278EB0101A7
:1013B80065D319EB020043F10001A04271EB08016B
:1013C8005DD30027574B19EE102A1B68934200F093
:1013D800ED8018EE902A9A4200F0DB8007F0DAFAE6
:1013E80000283AD12EB9DDF86454DDF85C34AB42FC
:1013F80082D84A4B4FF48032C3F88020BFF34F8F16
:10140800BFF36F8F424C236863B1434941480522BB
:101418000FF0C4FC206800F0EFFD206800F054FDD8
:10142800002323603D4B4FF48032C3F880210DF533
:101438008A601A6004F0A8F8789808B10FF0B0FD37
:101448001AEE100A0EF00CFD19EE100A0EF08AFDC5
:1014580018EE900A0EF086FD97E407F07DFA314AFF
:1014680019EE101A13688B4200F00B81050740F142
:10147800BD80264B82ED009A1B680593B2E7A24215
:1014880073EB08013AD2A01A68EB03014FF47A72A1
:101498000023FFF7D7FA0746002893D002F068FF29
:1014A80000278FE7049B1C19159B48F10008002BA7
:1014B8009BD0002F7FF44EAF14AB0193134E0B9BC0
:1014C8000093DDE908120A9B02975046376805F039
:1014D80099FD0E4B144A06461868144B1B68A2FB6C
:1014E8000323134AC01B12689B090DF21711B2FBA4
:1014F800F3F30A22C01A0FF0F1FE2CE7012761E787
:101508000800002000FFFF0001000020B0030020B9
:1015180050010020003C00400060024000E100E073
:10152800524946464C010020D34D62100400002069
:10153800C8050020C5F88060BFF34F8FBFF36F8FD9
:1015480010220DAB1CA90DF58A6003F065FF2E6013
:1015580000287FF44EAF0D9B102B7FF44AAF1C9BE5
:101568008B4A93427FF445AF02F17C421D9B02F502
:101578001F2202F20B3293427FF43BAF02F1A952D1
:101588001F9B02F5493202F2212293427FF431AFC8
:1015980029E7804B069A1B689B1A41F287329342CF
:1015A8007FF61CAF7C4A0023136017E7794A059938
:1015B8001268521A42F20F718A427FF60AAF764ACF
:1015C8000023136005E7754AA2FB0323980C0A223F
:1015D800202339A98DF8E3300FF080FED9E4704B51
:1015E8003AE619EE900A0EF0E5FC4EE6002B00F004
:1015F800948082074FD56B490A780F2A3AD8531C32
:10160800033ADBB2052A0B7040F29B80092B8CBF92
:101618004FF47F424FF47F0203EBC30303EB031342
:1016280001921B111A2219EE900A283300922821E0
:101638000E220EF0C1FCBAF80620BAF804102A3AB5
:10164800C83902EBD27201EBD17119EE900A491038
:1016580052100FF077F819EE900A01210EF0AAFC4B
:1016680018EE100A00210EF0A5FC1AEE900A0021CF
:101678000EF0A0FC484BC3ED008A464B1B6806934E
:10168800B0E610F008013BD0434A00231360414BF9
:101698001B680593A6E6C3077FF5A4AE414A1378F5
:1016A800002BE7D0591EC9B21170002961D0053B43
:1016B800052B5CD909298CBF4FF47F434FF47F0376
:1016C80001EBC10101EB011101931A220B1119EE73
:1016D800900A009228330E2228210EF06DFCBAF8E9
:1016E8000620BAF804102A3AC83902EBD27201EB84
:1016F800D17119EE900A521049100FF023F8AFE794
:10170800C5070ED5079B002BC1D01BEE100A6FF042
:101718000C0207910FF016F8B9E741073FF569AEDB
:1017280067E782070FD5079B002BB0D119461BEE40
:10173800100A0D220FF006F801230793A7E70860A7
:1017480057E6174A68E710F0300FA0D0079B8BBB0D
:10175800154A16491378012B154B0DF1A90016BF30
:1017680019460323012313700FF0D0F88FE70C4BB1
:10177800A6E719EE900A0EF01DFC18EE100A0121DA
:101788000EF018FC1AEE900A01210EF013FC71E716
:1017980041564958B00300204C01002083DE1B430A
:1017A80000FFFF0001000020000000203C15010898
:1017B80030150108414B1968414B99424BD0A8207C
:1017C800404B9A6822F0030242F001029A609A683C
:1017D80002F00C02042AFAD11A6822F080721A6008
:1017E8005D68394A2A4042EA801242F4800242F097
:1017F80019025A605A6822F440325A601A6842F054
:1018080080721A602F4A13689B01FCD5936823F0F5
:10181800030343F0020393602A4A936803F00C031E
:10182800082BFAD1294B994223D0244B274A1A6016
:101838004FF0E023264A27495961F02182F8231006
:1018480000229A6107221A610DF1E3010A22782029
:101858000FF044FD1BE7204A136823F0070343F009
:1018680003031360136803F00703032BFAD1F02076
:10187800A6E7194A136823F0070343F0020313602D
:10188800136803F00703022BFAD10C4B0C4A1A60B9
:101898004FF0E0230E4A11495961F02182F82310D4
:1018A80000229A6107221A6139A920230A225420AA
:1018B8008DF8E3300FF012FDE9E600BF04000020C8
:1018C80000BD0105003802400080BFFF000E270759
:1018D80000ED00E0BFD40100003C02401F480100B9
:1018E8002DE9F04F8388C6882DED028B963B93B087
:1018F800054603EBD3735B100321002004930EF01D
:10190800F7FAEB88013B0093AB880024013B2246A1
:101918002146019480460EF04FFB20460EF096FAC1
:10192800AB4A83460123214608EE100A0EF0AAFAB4
:1019380001234FF47F02584664210EF0A3FA58465B
:1019480021460EF0D3FA012140460EF0D1FA4FF0AD
:101958002D091E2322460746CDF80890CDF80090A1
:1019680001930F21234603940EF03CFB5946384659
:101978000EF01CFB012140460EF0BAFA2323224642
:101988008246CDE9029401931421322300940EF08B
:1019980029FB594650460EF009FB032140460EF03C
:1019A800A7FA22464123CDF80090372181460194B9
:1019B8000EF002FB594648460EF0F8FA854B06939E
:1019C8000521404607948DF820400EF091FA162321
:1019D8001A4681465C2100940EF036FB484606A95B
:1019E8000EF0E2FA012140460EF082FA9622162104
:1019F8007823CDE901212D3E252219468146009202
:101A080006EBD676072203940EF0ECFA76105946C8
:101A18004846DFF8CC91DFF8CCA10EF0C7FA324681
:101A2800049938460EF0C8FEB9E80F000DF1340EDF
:101A3800AEE80F00D9F800308EF800309AE80F00B1
:101A48000DF1240CACE807002CF8023B06211B0C16
:101A580040468CF800300EF04BFA6FF07F43CDE92A
:101A680001435D4B00930DF1340C6346A6F10D0262
:101A7800A98883460EF0F0FA062140460EF038FA9F
:101A8800824609A80EF074FF05900DA80EF070FFAD
:101A9800814609A80EF06CFF05994F4B0093A9EBFE
:101AA80000094FEAC9096FF07F424FEA5909C1EBB3
:101AB80041710292C9EBC10106F12D0209AB5046F2
:101AC80001940EF0C9FA454AAB88C2F80080049A1E
:101AD8000DA89E1A0EF04CFFC300C3F19603A6EBA7
:101AE8005303A34270DD013B9B08013303EB8303DF
:101AF8005B00DFF8F4900493FF2602E0049B9C420D
:101B080034D0E1B240460EF053FAF1B238460EF046
:101B180095FE00226FF0030158460EF013FE0022D6
:101B2800042150460EF00EFEE888AB880090002293
:101B38004FF0010CCDE9019C1146284605F062FAE8
:101B4800083E0A3426EAE67680B9079B0833B3F5DF
:101B5800B47FA8BF4FF4B473FF2C0793CEDD0146C2
:101B680040460EF027FA049B9C42CAD14FF4FA6013
:101B780002F0FEFB00240126E888AB8800900022D2
:101B88001146CDE90196284605F03CFA01460F3486
:101B98006FF00302384641B90EF00EFEE1B2384646
:101BA8000EF04CFEB4F5877FE6D118EE100A0EF061
:101BB80057F940460EF0D6F9084A0023136013B0CF
:101BC800BDEC028BBDE8F08FDFF81C90CEE700BFBC
:101BD80000FFFF00F8200108080000204C01002049
:101BE8006C15010880150108F02001082DE9F04F57
:101BF800D0F88430DFF83081DFF83091DFF830A199
:101C080089B00022D3E9004605460392D4F814C0EF
:101C1800E768674503AB4FF0080206A920463CD9A0
:101C280003F0FAFB002838D1039B082B35D1079A1B
:101C3800D4F814C0D30734D5069B3A4901328B42F5
:101C4800049235D0BDF81A3046F277218B4203D082
:101C580044F257218B4241D140F294739A421CDCE2
:101C680006F1240B03AB5946204603F0D5FB034687
:101C780098B9DDE9031291420FD130680093EA6EFA
:101C8800AB6ECDF814B003EB820305A904AA0CF0DF
:101C9800E9F858B303300128B8D9012009B0BDE8E4
:101CA800F08F0492002AB3D0069B1E498B42C9D1FB
:101CB80003AB102206F12401204603F0ADFB0028F7
:101CC800EBD1039B102BE8D1736A4345E5D1B36A86
:101CD8004B45E2D1336B5345DFD197E70CEB02015B
:101CE800204603F069FC002890D0D6E7AB68012BAA
:101CF800D4D16A69E96EAB6E002A03EB8105CDDDAC
:101D0800541E05EB840405EB420232F8021D002341
:101D180061F30F0361F31F43AA4244F80439F4D175
:101D2800BCE700BF52494646415649584C495354AE
:101D38006D6F7669F0B5D0F88430DFF818C11C688B
:101D48005B6865691D628FB0002206460192BCE897
:101D58000F0004AF0FC75CF8043B3B80BCE80F00E2
:101D68000DF1240EAEE80F00DCF80030AEF80030BC
:101D7800E368AB4223D9082201AB0DEB02012046F0
:101D880003F04AFBD8B9019B082B18D10399656960
:101D9800CB0717D50131EBD0BDF80A3046F27722D0
:101DA800934217D044F25722934213D02944204635
:101DB80003F002FC18B96569E368AB42DBD801207F
:101DC8000FB0F0BD0029D3D0BDF80A3046F2772213
:101DD8009342E7D140F294739942F0DC01AB0422BC
:101DE8006946204603F018FB0028E8D1019B042B24
:101DF800E5D19DF8013013F0180F4FEAD3021CBF4C
:101E0800D24302F001019DF80220C2F3810208BF0B
:101E18000221C3F34103032AC3F10403CFD0032BE8
:101E2800CDD19DF8034001EB41018B18A2090EACFE
:101E380004EB410104EB4303032A33F8283C31F84F
:101E4800102C72610CBF012102211022C6E9032364
:101E5800B160B5E728140108D0F8843070B5D3E92B
:101E6800006504460BF0F8FF286020B1296A304667
:101E780003F0A2FB08B1012070BD2046FFF7B6FEB3
:101E8800003818BF012070BDD0F8843010B51C6828
:101E9800FFF7ACFE30B1E3686069013B984234BF9C
:101EA8000220012010BD00BFD0F8843010B5D3E95E
:101EB800000403F069FB20680BF0D0FF002010BD80
:101EC800A02101200FF032B880B3D0F8843010B5CB
:101ED8000446586808B10FF063F8A06E08B10FF017
:101EE8005FF8206808B10FF05BF8A06908B10FF03F
:101EF80057F8E06908B10FF053F8206A08B10FF0FD
:101F08004FF8606A08B10FF04BF8E06A08B10FF0BB
:101F180047F8A06A08B10FF043F8206B08B10FF03A
:101F28003FF82046BDE810400FF03AB8704700BFB0
:101F3800A0B199B192B18BB110B4019C84B14FF0AA
:101F4800000C8367029BC467C0E91C12C0F8843088
:101F580080F880C060465DF8044B704701207047E8
:101F68000120F8E70221026F80F88010104700BFB7
:101F780010B504464069042140000EF0D7FF08B3AD
:101F88000022A066636FE26620469847D0B962696E
:101F9800A36FE26620469847A0B99FED0B7B032309
:101FA80084F880300A49636984F888002269C4F893
:101FB8009C0001FB03F384ED247BB3FBF2F3C4F82C
:101FC800983010BD012010BD000000000000000086
:101FD80040420F00042310B580F88030C36E0446D9
:101FE80043B94269A36FE26620469847002384F804
:101FF800883010BD0022F5E70521C26F80F88010F7
:10200800104700BF2DE9F04F87B00D4600230C2282
:10201800064602930DEB020102AB284603F0FCF9D9
:1020280080B9029B0C2B0DD103F18C43039A03F169
:10203800461303F592439A4209D00124204607B07B
:10204800BDE8F08F0224204607B0BDE8F08F744B3E
:10205800059A9A42F1D186F8AC00EA686B699A420F
:102068000446F0D9DFF8D4816E4FDFF8D491DFF859
:10207800D4B115E0BB4208D1059B4B4500F09780D1
:102088005B4536D0684A934227D0049904396B6976
:102098002846194403F090FA6A69EB689A42D2D24A
:1020A8000C2202AB0DEB0201284603F0B5F90446F9
:1020B8000028C7D1029B0C2BC4D1039B4345D9D11F
:1020C80004996B69C6F8EC1004391944043BC6F846
:1020D800E830284603F070FADEE704996B69C6F821
:1020E800F4100439C6F8F0301944284603F064FAAD
:1020F800D2E796F8AC10049BD6F8A80001930131FA
:10210800C9B286F8AC10C1EBC101C9000FF076F86E
:1021180002ABC6F8A800082203A9284603F07CF9F8
:1021280000288FD1029B082B8CD1039B3F4A9342F6
:1021380083D196F8AC30D6F8A8106FF03700382263
:1021480012FB03031944284602AB03F065F9002883
:102158007FF478AFDDF808A0BAF1380F7FF472AFDA
:1021680002AB082203A9284603F056F900287FF499
:1021780069AF029B082B7FF465AF2D4B039A9A42F7
:102188007FF45BAF96F8AC206FF037031AFB023A86
:10219800D6F8A830274A53F80A3093421BD002F6E3
:1021A800EB32934229D0019BA3F14C016FE702ABBC
:1021B800402206F16801284603F02EF900287FF432
:1021C80041AF029B402B7FF43DAFB36E1A4A934256
:1021D8003FF462AF31E702AB282206F1AD01284691
:1021E80003F01AF900287FF42DAF029B282B7FF407
:1021F80029AF019BA3F1740149E702AB102206F154
:10220800D501284603F008F900287FF41BAF029B8C
:10221800102B7FF417AF019BA3F15C0137E700BFD8
:10222800415649204C4953546D6F766973747268EE
:102238007374726676696473617669686964783103
:102248006864726C7374726C1AB140F8041B013ABA
:10225800FBD170472C4A136823F0070343F00203AD
:1022680010B51360136803F00703022BFAD127494E
:10227800274B0A6822F4404242F400420A601A6876
:1022880042F480321A601A689203FCD51A68214910
:1022980042F400221A6058681F4A01400A435A60F3
:1022A80059681B4A21F440315960196841F080711E
:1022B800196013689B01FCD59368154C23F0F00353
:1022C8009360936823F4E05343F4805393609368D6
:1022D80023F460439360936823F0030343F00203FD
:1022E8009360A36803F00C03082BFAD10B4802F0A3
:1022F8002FF80A4802F04EF8D4F88C3023F0807397
:10230800C4F88C3010BD00BF003C02400070004093
:10231800003802400080BFFF192A400000BD0105B7
:102328002DE9F04FC94ACA4B1168CA4C41F40071F3
:102338002DED088B1160116841F4806111601168FE
:1023480041F480711160596CC24A41F4804159646A
:10235800596CD5B001F4804111911199196C41F073
:10236800805119641B6C03F080531093109BD16843
:10237800B94B4FF6FF0001400B43D360D368C3F35A
:102388000223C3F107011A1D042928BF0421062AC4
:1023980088BFDA1E4FF0FF3303FA01F398BF00221B
:1023A800DB4393401B01DBB284F82330FFF752FF75
:1023B800AA4BAB4A1B68A2FB03239B09013BB3F161
:1023C800807F09D24FF0E022F020536100210723DB
:1023D80084F82300916113610027CDE92C77CDE9BA
:1023E8003877CDE93A779A4A9E48136B9E4EDFF8C4
:1023F800888243F004031363136B03F004031A93F6
:102408001A9B136B43F080031363136B03F0800371
:102418001B931B9B136B43F001031363136B03F0B4
:1024280001031C931C9B136B43F002031363136B90
:1024380003F002031D934FF400531D9A83611C237C
:10244800B36141F20203C8F8183036A94FF40052BC
:102458000123CDE936234FF0020A01F0F1FC4FF0D9
:10246800000B36A90C2201233046CDE9362301247E
:10247800CDE938AB3A9701F0E3FC36A910220123E5
:102488003046CDE93623CDE938AB3A9401F0D8FC93
:1024980036A941F2020201234046CDE93623CDE9AF
:1024A80038AB3A9401F0CCFC704A93680F2123F0C2
:1024B8000F0391FAA1F193609368F02123F0F003E0
:1024C80091FAA1F1936011694FF4706393FAA3F341
:1024D800B3FA83F321F4706104FA03F30B43136135
:1024E80003252CA82C94ADF8B4408DF8B65001F013
:1024F80047FC2CA8ADF8B4408DF8B650CDF8B0A084
:102508004FF4806901F03CFC2CA8ADF8B4408DF87C
:10251800B650CDF8B09001F033FCF16894FAA4F20B
:10252800B2FA82F294FAA4F3A240B3FA83F305FA5A
:1025380002F2A34021EA020204FA03F31343F36010
:10254800F1689AFAAAF2B2FA82F29AFAAAF3A240C7
:10255800B3FA83F305FA02F2A34021EA020204FA6D
:1025680003F31343F360D8F80C1099FAA9F2B2FAFE
:1025780082F299FAA9F3A240B3FA83F305FA02F2B8
:10258800A34021EA020204FA03F31343C8F80C300B
:10259800326894FAA4F3B3FA83F3A34005FA03F379
:1025A80022EA030394FAA4F4336032689AFAAAF38D
:1025B800B3FA83F35B0005FA03F322EA03039AFAFA
:1025C800AAFA3360D8F8002099FAA9F3B3FA83F38A
:1025D8005B009D4022EA050599FAA9F91D4BC8F848
:1025E8000050DB681A4CDFF894A0DFF89480204E86
:1025F800C3F30223C3F10702042A03F1040128BF2D
:102608000422062988BFDF1E4FF0FF339340DB43C7
:1026180003F00103BB40174A0E491B01DBB24020FF
:1026280082F806331060CB68C3F30223C3F10701B5
:102638001A1D042928BF0421062A88BFDA1E4FF074
:10264800FF3303FA01F36FEA03031BE0003C024087
:102658000038024000ED00E00003FA050400002005
:10266800D34D6210000802400000024000380140CB
:102678000004004000E100E000040240003800408F
:102688000030014098BF002203F0010393401B0172
:10269800C14AC249DBB2802082F807331060CB6898
:1026A800C3F30223C3F107011A1D042928BF04211B
:1026B800062A88BFDA1E4FF0FF3303FA01F36FEAE8
:1026C800030398BF002203F001039340B249B44AC0
:1026D8001B01DBB24FF4807081F828334860136B1C
:1026E80043F400131363136B03F400131893189B3C
:1026F800136B43F480031363136B03F48003199380
:10270800199BD1F80C3CC3F30223C3F107011A1D2E
:10271800042928BF0421062A88BFDA1E4FF0FF3398
:1027280003FA01F36FEA030398BF002203F00203E0
:1027380093401B01984A9949DBB24FF4804082F8D4
:102748000E331060CB68C3F30223C3F107011A1DCF
:10275800042928BF0421062A88BFDA1E4FF0FF3358
:1027680003FA01F36FEA030398BF002203F00203A0
:1027780093401B01884A8949DBB24FF4004082F834
:102788000F331060CB68C3F30223C3F107011A1D8E
:10279800042928BF0421062A88BFDA1E4FF0FF3318
:1027A80003FA01F36FEA030398BF002203F003035F
:1027B80093401B01784ADBB24FF00061002582F894
:1027C8003B3336A85160282200210EF019FC2F95C2
:1027D800236C744843F480432364236C03F48043DC
:1027E8001693169B236B43F002032363236B03F0BA
:1027F80002031793179B4FF4604202234FF003091B
:10280800CDE92C232CA901220523CDE93023CDF8CD
:10281800B89001F015FB644B9A6D22F060629A65DE
:102828009A6D22F0C0029A659A6D22F4403242F401
:1028380080329A659A6D22F490729A659A6D22F4A4
:1028480000729A659A6D42F480629A659A6D22F4D4
:10285800C0529A659A6D22F4C0429A65DA6E42F0C7
:102868000402DA66DA6E42EA0902DA669A6D22F042
:10287800C07242F080729A659A6D22F4C0029A651D
:102888001A6F22F060621A671A6F22F0C00242F0D3
:1028980040021A671A6F22F4403242F480321A67F3
:1028A8001A6F22F490721A671A6F22F400721A676C
:1028B8001A6F42F480621A671A6F22F4C0521A67BC
:1028C8001A6F22F4C0421A67D3F8842042F0040237
:1028D800C3F88420D3F8842042EA0902C3F884208C
:1028E8001A6F22F0C07242F080721A671A6F9FED59
:1028F800228B9FED23BB9FED24AB9FED259B22F4FC
:10290800C0021A6736A9302200235046CDE93C237D
:102918008DED388B8DED36BB8DED3AAB8DED3E9B55
:1029280001F066FBDAF8043023F01003CAF804302B
:102938002822294636A80EF063FBCDE92F55636C93
:102948001A4843F480536364636C03F4805314930C
:10295800149B236B43F001032363236BCDF8B890DA
:1029680003F001031593159B0523A0222CA931938D
:102978000223CDE92C231BE000000000000000002A
:102988000000000004010000000000000002000038
:10299800000000000A00000000E100E000ED00E097
:1029A800003802400004024000600240000002407B
:1029B80001F046FAB84B9A6D22F0606242F0C062AC
:1029C8009A659A6D22F0C00242F040029A659A6DAB
:1029D80022F440329A659A6D22F490729A659A6D43
:1029E80022F400729A659A6D42F480629A659A6D33
:1029F80022F4C05242F400629A659A6D22F4C042F1
:102A080042F400529A65DA6E42F00402DA66DA6E2F
:102A180042EA0902DA669A6D22F0C07242F08072C8
:102A28009A659A6D22F4C0029A6536A94FF400623D
:102A380000234046CDE938238DED36BB8DED3AAB0A
:102A48008DED3E9B8DED3C8B01F0D2FAD8F8043029
:102A58000DF1880B23F01003C8F8043020222295CA
:102A68002946CBE90155CBE9035536A80EF0C8FA3B
:102A7800CDE92C55CDE92E55CDE93055236C43F0E1
:102A880002032364236C03F002031293129B40F2A7
:102A9800E7335946ADF888303046D123249301F006
:102AA8002FFB33684FF0804723F080033360D7F85B
:102AB80018344FF0600843F008034FF00009C7F8D6
:102AC800183436AACDE93689012130464FF000087E
:102AD8004FF06909CDE938893A9501F05DFBD7F8DF
:102AE80018346E4823F00403C7F81834736823F0C9
:102AF80070037360B36823F08003B360236B43F003
:102B080001032363236B03F001031393139B4022F8
:102B18000223CDE92C232CA900220223CDE930235E
:102B28008DED2E8B01F08CF90DF0CAFF5C4AD2F8BE
:102B3800FC3013F080730CD1D2F8FC1041F0807196
:102B4800C2F8FC10A2F55D425360136843F001031C
:102B58001360032324930823ADF898300423ADF8B9
:102B6800A0301023ADF8A83049A3D3E900234D4C79
:102B7800DFF828A1CDF894A0CDE9222394E80F002E
:102B88001EAD0BAF85E80F00CDF89CA0CDF8A4A032
:102B980087E80F00444B0893444B0793444B069334
:102BA800444B059302230A930023CDE902334FF4E3
:102BB800A07E4FF0F00C4FF001093F4FCDF804E034
:102BC800CDF800C0CDF824B0CDF810907246634619
:102BD80036A93868394EDFF8008100F0CDFA05468D
:102BE800386000F0BDFB3146284600F00DFC10347B
:102BF80033493448002202F09BFB0FCC0DF1B00C96
:102C0800ACE80F000FCCACE80F0094E803008CE8A8
:102C1800030004F09BF82946836B04469847AB8869
:102C2800EA880092E76B00222046063B0621B84757
:102C3800236C2CA920469847636C23492046984763
:102C48004A462046A76C03230021B8470223009375
:102C58001E4B1F484FF0030119701E494FF4806343
:102C68004A46CDE901135346514601F099FB00212C
:102C7800174801F05BFC2846FEF732FE314628462D
:102C880000F0C2FB0521204604F0A2F83CE000BF9A
:102C9800003001400064024000640240000002402D
:102CA80000ED00E050140108813D0008793D00085E
:102CB800553D0008193D0008B8030020B19B3100BC
:102CC800800300205401002008000020AC340020BC
:102CD8008403002000040240A83D0108A36D20469B
:102CE8009847E36D814620469847EB880293AB8866
:102CF8000146CDE9007348463B462A46FEF724F8CC
:102D08003146284600F080FB236D20469847636DC6
:102D18002046984707460028E0D0E368002203923F
:102D2800DA6802925B6801932369009300224346A4
:102D38001421284600F022FE05F02CFE0028FBD0C6
:102D48003146284600F060FBDEE700BFFEE700BF23
:102D5800FEE700BFFEE700BFFEE700BFFEE700BFDB
:102D6800704700BF704700BF704700BF024A136832
:102D780001331360704700BFB0030020164A10B536
:102D8800546914F0010400D110BD012113485161A8
:102D980001F020FB012814D0022808D0042817D0FD
:102DA800082817D0102801D02028EDD104460C4A55
:102DB8001378132BE8D80B48591C40F8234011709E
:102DC80010BD074A1378132B4FF00204DCD8F2E742
:102DD8000824ECE70424EAE7003C014084030020CF
:102DE800AD340020B0340020144B5A69920700D447
:102DF800704710B5022412485C61214601F0EAFAD6
:102E080001280BD0A04208D0042813D0082813D0DA
:102E180010280DD020280BD010BD0124094A1378A2
:102E2800132BF9D80848591C40F82340117010BDDD
:102E38000446F3E70824F1E70424EFE7003C0140E7
:102E480084030020AD340020B0340020704700BF58
:102E5800704700BF154B5A69520500D470474FF4AC
:102E6800806210B512485A61032101F0B3FA0128B3
:102E780015D0022808D0042813D0082813D0102809
:102E880003D0202801D010BD01200A4A1378132B43
:102E9800F9D8094C591C44F82300117010BD0220C0
:102EA800F3E70820F1E70420EFE700BF003C01400A
:102EB80084030020AD340020B034002001480321F1
:102EC80000F0DEBE00640240F8B52B4C636859057B
:102ED8000DD463681B0506D4274B4FF47C62DA6077
:102EE800BFF34F8FF8BD254D2868C0B9F4E7234DCF
:102EF800286810B3FFF76EF808BB2868D0F8981058
:102F0800D0F89C40DFF870C0D0E92423561844EB71
:102F18000307C0E92467DCF804301A05DCD5FFF79D
:102F280059F8D0B92B68D3E92401D3E926268418A7
:102F380046EB0105C3E92445CEE76368CCE70522E3
:102F480021460F480DF02AFF2868FFF755F8286832
:102F5800FEF7BAFF00202860D0E707490848052295
:102F68000DF01CFF2868FFF747F82868FEF7ACFF4C
:102F780000232B60D7E700BF00600240500100200B
:102F8800003C004010B50C4C0C4B0D492268591AF6
:102F98002AB11044884207D82060104610BD094A5B
:102FA800226010448842F7D90DF0C8FF0C234FF077
:102FB800FF320360104610BDB4030020000001205A
:102FC8000004000010350020034AD2F8883043F48A
:102FD8007003C2F88830704700ED00E0DFF834D0A5
:102FE8000D480E490E4A002302E0D458C450043359
:102FF800C4188C42F9D30B4A0B4C002301E0136030
:103008000432A242FBD3FFF7DFFF0DF09DFFFFF76D
:1030180087F97047000001200000002030010020DF
:10302800AC9201083001002010350020FEE70000B6
:10303800036C13B1B0F844209A617047026C1AB15E
:10304800B0F844301B049361704700BF836B828FD4
:103058009A617047F8B5456A2B685B06044623D425
:1030680094F865302BB9236C1BB1B4F844201204D2
:103078009A612B6823F42C432B602B6843F04003A0
:103088002B600B78012B4ED0022B6DD093B194F8A6
:10309800653023B9236C13B1B4F844209A612B68C6
:1030A80023F040032B60F8BD00BF636A1B685F060E
:1030B800D6D5F9E7A28F636AA66B48781204B26185
:1030C80018739A68960707D400BF9A689007FBD5CB
:1030D8009A68120603D500BF9A681206FBD48E7848
:1030E80001F1030E002E45D070460EEB060C636A04
:1030F800A76B10F8012BA18FB9611A739A6897070B
:1031080007D400BF9A689107FBD59A68120603D5C1
:1031180000BF9A681206FBD46045E8D10EEB0601A1
:103128000B78012BB0D14E7801F1020E16B3704620
:103138000EEB060C636AA76B10F8012BA18FB9611F
:103148001A739A68970707D400BF9A689107FBD546
:103158009A68120603D500BF9A681206FBD4604528
:10316800E8D10EEB0601DBE748788E1C01F000F988
:10317800314686E7714684E72DE9F04F83B01F4654
:10318800BDF938300093BDF93C30BDF83090BDF83A
:1031980034809DF840B09DF858A001930C46002952
:1031A80000F0D080002105461646204674220DF016
:1031B80027FFDDF854C084F848A0BCE80F0004F1EC
:1031C800240EAEE80F00BCE80F00AEE80F00DCF8F4
:1031D8000030CEF80030A36A002B3CD0E26A5F4989
:1031E800895C5A5822F001025A505A58D20703EB08
:1031F800010005D500BF0268D207FBD494F848A0A7
:10320800BAF1010F0BD0BAF1020F0ED15A5822F4BD
:10321800F0425A505A5842F420525A5005E05A582F
:1032280022F4F0425A505A585A505A5822F48022DE
:1032380022F00E025A50426922F0800242615A5826
:1032480042F010025A505A5822F400725A505A58F2
:1032580042F480625A50B742394638BF3146BE42BE
:1032680028BF3E46BBF1000F3CD1009B6381019B08
:10327800A381A680E180A4F80090A4F802804E45BE
:103288004DD888454BD3119B002B48D0129B002B5F
:1032980045D0119A6261129AA261139AE26117AB42
:1032A800149A22620FCB002704F14C0684F808B068
:1032B80086E80F00C4E91B7784F86470002D41D0BC
:1032C8002B6F4BB101221D461B6F511C1046CAB211
:1032D800002BF8D184F864002046E5662C6703B01B
:1032E800BDE8F08FBBF1020F22D0BBF1010F2DD04A
:1032F800BBF1030F13D1009BA381019BA8EB030330
:103308005B1A638132464B46A180E680A4F80080B0
:10331800A4F802900E46C14611469846AFE77422BB
:10332800002120460DF06CFE002003B0BDE8F08FB0
:10333800009BA9EB0302019B921BA8EB030362818C
:103348005B1A95E7204603B0BDE8F08F019B6381C7
:10335800009BA9EB03039B1BA381D3E7BC3D01089A
:10336800036B10B504465BB1828E12049A61192072
:1033780000F0FEFF236BA28E9A61192000F0F8FF7F
:103388006369207A984701462046FFF763FE94F860
:103398005A10E26C64290B4628BF642384F85A301B
:1033A8000AB3D16A174801FB03F3216DA0FB03039D
:1033B800B1F5807F4FEA531322D00FD801291AD0D4
:1033C800102908BF93631368DB0706D4136A1943EF
:1033D8001162136843F00103136010BDB1F5805FFB
:1033E800F1D11364EFE7636D002BF6D0B4F85820E1
:1033F80019B19A6110BD5363E5E712049A61F9E7C0
:10340800D363E0E71F85EB5110B5C4888388013C7E
:1034180082B00022A4B2013BCDE900419BB2114623
:1034280000F0BFFB02B010BD2DE9F04F1F4689B078
:10343800B9421646BDF94830139A0C4600F0A780E9
:103448009E4200F09380A3EB0608A7EB0109B8F1B0
:10345800000FB8BFC8F10008B9F1000FB8BFC9F133
:103468000009C8451D463146BE46A44640F395802E
:103478003D4621461F46344673466646CA46BC4208
:103488000ADD491BB446254681EAE17A1E463C46D8
:10349800AAEBE17A63462F464A4DC2F3C40105EA16
:1034A80012255209294302F4F8620A4391B2A7EBA4
:1034B800040B4FF6FF72CBF3C035B342C8BF0122ED
:1034C8004BBA05FA8BF59BB21FFA8BFBCDF80CB003
:1034D8001FFA8AFA04916D1002920593834630E030
:1034E800B34252DDBBF80630A3424EDD002E4CDB62
:1034F800002CA4B215DBB3B20094224619465846F4
:1035080000F072FADDE904319BF848205846012A98
:1035180008BF0B4601220DF11E01ADF81E3000F068
:10352800C5FAA5EB0A031DB2002D9BB205DA029A73
:103538001644039A134436B21DB2013424B2A7428A
:1035480020DBC845BBF80430CADCA3421DDDBBF84C
:103558000630B34219DD002C17DB002EA4B2E0DBE5
:10356800B2B20092214658462346C9E7B94225DD42
:10357800002C07DB8188B94204DD002B02DBC188FF
:10358800B1420CDC09B0BDE8F08FA4B2C9E79E4295
:10359800EEDD31461E460B46EAE7C2466FE7139258
:1035A80027EAE77126EAE6729BB2129392B2A3B2B7
:1035B80089B209B0BDE8F04F00F0F3BA39462746A2
:1035C8000C46D5E700F8FFFF2DE9F04383B0044629
:1035D800DDF82C90BDF9288000920E461546CDF8EE
:1035E80004901F46FFF720FF33462A4631462046FF
:1035F800CDE90089FFF718FF31463B464246204691
:10360800CDE90089FFF710FF3B462A463946204698
:10361800CDE90A8903B0BDE8F043FFF705BF00BF55
:1036280030B49942BDF908C0039D02DD0C46194625
:103638002346624502DD14466246A446002B08DB99
:1036480084888C4205DDBCF1000F02DBC4889442FB
:1036580001DC30BC70471FFA8CF422EAE27221EADE
:10366800E171039502949BB230BC92B289B200F02A
:1036780098BA00BF2DE9F04F8BB0AE4C0591934638
:10368800159ADDF850909DF85CC004EA1224C2F344
:10369800C4015209214302F4F8620A4390F8481021
:1036A80092B201290492169A00F03981049DA14E24
:1036B800C2F3C40406EA12265209344302F4F8623B
:1036C8002243012994B201D164BAA4B299F808A09E
:1036D8009A4504D899F809209A4280F085804FF0DD
:1036E800000A99F800104F1EFF100137042F78DCEC
:1036F800D9F8043099F8012007FB0AFA02FB0A3AC4
:10370800FB00013B01269E40BCF1000F71D0002A4E
:1037180067D0049BCDF850905BBAB9469BB24FF086
:103728000008B9F1010F0793CDF80C805F4653D01C
:10373800B9F1020F00F0E380B9F1030F00F0E28065
:10374800B9F1040F08BFDAF80080CA44002948D04C
:103758000FFA87FBBBF1000F34DB059C002503E063
:1037680001348D42A4B22BDA08FA05F3334205F18D
:103778000105F5D0838822B29342F1DDC3885B4509
:103788002346EDDD002AEBDB21463A4600970690FA
:1037980000F02AF90698079990F84820049B012A16
:1037A80008BF0B460DF126010122ADF8263000F0C6
:1037B8007DF9149B0698197801348D42A4B2D3DBA5
:1037C800149B5A78039B01339A42039309DD01370E
:1037D800B9F1010FBFB2ABD19AF80080CA440029F1
:1037E800B6D10BB0BDE8F08FA3EB0A0A5FFA8AFAEC
:1037F80077E70BF1FF3313449BB20093059BD0F896
:1038080024800390013B0B445A4605999BB200F073
:10381800EBF80398026C1AB1B0F844301B049361BA
:10382800836B828F9A61D8F8003023F04003C8F880
:103838000030D8F8003023F42C43C8F8003090F852
:103848004830022B6FD0D8F8003043F04003C8F856
:10385800003099F80130ABB399F800304FF0000E02
:103868008446012F79D0022F7AD0032F7BD0DAF843
:103878000000BA4403B3002200FA02F1D8F8083075
:10388800314214BF294621469B0704D400BFD8F80B
:1038980008309B07FAD59CF84830022B4CD1C8F861
:1038A8000C1099F8003001329342E5DC99F80120B8
:1038B8000EF1010E9645D4DBD8F808309A07604619
:1038C80009D400BFD8F808309A07FAD5D8F80830D4
:1038D8001B0604D500BFD8F808301B06FAD4D8F860
:1038E8000030026C23F04003C8F80030002A3FF48F
:1038F80078AFB0F8443093610BB0BDE8F08FBAF8F8
:10390800008022E79AF802809AF801304FEA0848C6
:1039180048EA03289AF8003048EA030815E7049CA7
:1039280065BAADB2C3E6D8F8003043F40063C8F80E
:10393800003088E700F8FFFFCBB288F80C30D8F8E1
:1039480008309B07C1F3072104D400BFD8F808301A
:103958009B07FAD588F80C10A3E79AF8000088E7C7
:10396800BAF8000085E79AF802009AF801200004E6
:1039780040EA02209AF8002010437AE72DE9F04F38
:103988001F4685B01B780E9E9DF844A0DDE90F897F
:1039980005460C46934603B396F800C0AA88A4448B
:1039A8009445284609DD7178EC888B441FFA8BFB17
:1039B8005944A1424FF000040FDC2146CDE9029A98
:1039C800CDE900685A46FFF755FE96F800C017F88B
:1039D800013F6444A4B2002BE0D1EC81A5F810B0FB
:1039E80005B0BDE8F08F00BF30B52C25B0F80CE06D
:1039F800BDF80C407444724434B42B25B0F80AE086
:103A080003EB0E0401EB0E032A223CB4D0F824E0A9
:103A1800036C846BB0F84450B0F83CC0DEF800008A
:103A2800010010F04000F9D121F42C4141F040018F
:103A3800CEF8001013B14FEA054098614FEA0C40E8
:103A4800A06101BC8EF80C00DEF8081011F002012C
:103A5800FAD0DEF8081011F08001FAD12C281AD01B
:103A6800C4F818C0022201BC4FEA10218EF80C10CD
:103A7800DEF8081011F00201FAD08EF80C00DEF81A
:103A880008108900FBD0013AEDD1DEF8081011F0DA
:103A98008001FAD1D2E703B19D61DEF8000020F081
:103AA800400040F40060CEF8000030BD30B56D40F5
:103AB800D0F824E0DEF800309C4613F04003F9D13A
:103AC8004CF0400CCEF800C0036C23B1B0F844C0F1
:103AD8004FEA0C449C61846B808FA0610888CEF803
:103AE8000C002D4305B90231DEF8080010F0020081
:103AF800FAD0013AF2D1DEF8080010F08000FAD1CD
:103B08000BB1C3F818C0DEF8000020F04000CEF872
:103B1800000030BDD0F828C05CEA0C0C3FF4C6AFFA
:103B280030B56D40D0F824E0DEF800301C0013F00A
:103B380040037FF4BFAF44F04004CEF80040DEF805
:103B4800044044F00204CEF80440036C1BB1B0F802
:103B5800444024049C61836B848F9C6100F1600461
:103B6800C06A182300FB03CC0CF110004FF6FF735A
:103B78009A42CEBFD21A13460022226043600EF149
:103B88000C0EC0F808E0C16001682D430CBF41F479
:103B9800806121F4806141F0010121F4007101602C
:103BA80030BD30B59942C2BF8E4619467346BDF83E
:103BB8000C40A242C2BF964622467446B0F804E0C2
:103BC800AEF1010E714531DCB0F806C0ACF1010C64
:103BD80062452BDC7345C8BF73466445C8BF64465D
:103BE80082B000945D1A05F10105A41A05FB04557D
:103BF8000400FFF7F9FE02B00498C0F3C401C0F353
:103C0800852241EA4211C0F3C44241EAC221A4F824
:103C18006810200000F168012A000125D0F828C0AA
:103C28005CEA0C0C3FF444AFFFF77CBF30BD30B505
:103C3800B0F804E0714521D201EB030CF4451DD81E
:103C4800B0F806E0724519D2039C1519754515D8C8
:103C580004FB03F4013D82B00095ACF101030500BB
:103C6800FFF7C2FE02B0280004992200059BBDE8B8
:103C780030401B433FF41AAFFFF74CBF30BD000084
:103C880000B50B00032BC6BF043B4FF00C0E4FF0E2
:103C9800080E0FF2740C1CF803C03F2202FA0CF253
:103CA80040F80E20182201FB020000F11000016804
:103CB80021F001010160016811F00101FBD1134BF2
:103CC8001B681A6E6AB14FF6FF718A42CEBF521A4C
:103CD8001146002241601A66016841F00101016045
:103CE80000BD586A416821F002014160816811F005
:103CF8008001FBD11A6C12B1B3F8441091610168CC
:103D080021F04001016000BD00061016B803002034
:103D180058B102280ED0012811D003280A4814BF30
:103D28000023F82380F8413070470748482380F87B
:103D38004130704704489C2380F84130704702485E
:103D48002C2380F8413070471400002010B4074C31
:103D580049BA618120715BBA000A110AE070617189
:103D68002046A271A3815DF8044B7047A80000208B
:103D780000487047BC00002000487047C40000207D
:103D880010B403460079A8B1186880B15A79012A9D
:103D98002FD0022A1BD01AB301229B79002B3AD0CC
:103DA800022B30D0032B44D0012B38D001205DF8F2
:103DB800044B7047214A1C68116821EA040111600C
:103DC800536823EA040353605DF8044B70471B49AA
:103DD8000C6804430C604C68044300224C60DCE728
:103DE80016494C6824EA00044C600C6804430C60D3
:103DF800D3E712490C6824EA00040C604C680443B9
:103E080000224C60C9E70D4B996821EA00019960CE
:103E1800D9680843D86010465DF8044B7047074BD3
:103E2800D96821EA0001D96099680843986010466A
:103E3800BDE7024B99680143E9E700BF003C014038
:103E48002DE9F0470C6894FAA4F2B2FA82F234FA37
:103E580002F37DD04FF0010E4FF0030C4FF00F0A24
:103E680017E0D0F8008093FAA3F7B7FA87F793FA28
:103E7800A3F3B3FA83F37F000CFA07F75B0028EA91
:103E8800070705FA03F33B430360013234FA02F3F0
:103E98005ED00EFA02F32340F7D04D686F1E012F53
:103EA8001FD8D0F8088093FAA3F7B7FA87F793FAE0
:103EB800A3F98E68B9FA89F97F000CFA07F74FEA77
:103EC800490928EA070706FA09F947EA090787604E
:103ED8004768CE6827EA030706FB03F847EA08079E
:103EE8004760D0F80C8093FAA3F7B7FA87F793FAEC
:103EF800A3F90E69B9FA89F97F000CFA07F74FEAB6
:103F0800490928EA070706FA09F947EA0907022DC5
:103F1800C760A6D193FAA3F7B7FA87F7072F1ADC79
:103F2800D0F8208093FAA3F7B7FA87F793FAA3F9A2
:103F38004E69B9FA89F9BF000AFA07F74FEA890901
:103F480028EA070706FA09F947EA0907076288E72E
:103F58000020BDE8F087D0F824901F0A97FAA7F848
:103F6800B8FA88F897FAA7F74E69B7FA87F74FEAC9
:103F780088080AFA08F8BF0029EA080806FA07F7C5
:103F880048EA070747626CE7B0F5000F01D0002048
:103F98007047134A93681B0220D4106810F0006021
:103FA8001BD051680F4B10B45468D2F88400D2F873
:103FB800842011F4800FC0F3881104F03F0C0A48E4
:103FC8005DF8044BC2F3027218BF1846B0FBFCF050
:103FD80001FB00F0B0FBF2F07047704703487047F0
:103FE8000038024040787D010024F4000080BB00C6
:103FF8000246006810F0400028D1136830B423F45A
:104008007F4CD1E900352B438D684C692B43CD6833
:104018002B430D692B438D6923432B43CD692B43D8
:104028000D6A2CF0BF0C2B4343EA0C031360536852
:1040380023F0040343EA1443B5F5005F53600BD043
:10404800D36923F4006330BCD3617047D36923F488
:1040580000630120D36170478B8C1361F0E700BFC8
:10406800C3695B053AD470B50D460446C1692B682F
:10407800D5E9012021F433611A4321F00F016B695E
:104088000A4302431A432B6942F40062022BE2619D
:1040980026D000284FF400000CBF20264026FFF74A
:1040A80073FFEA68B2F5007F1FD0B0FBF6F303EBAD
:1040B800830329695B00B3FBF1F305330F49A1FBC7
:1040C80003131909881EFD28C3F3C00394BF41EAEE
:1040D8000323022313432362002070BD012070478D
:1040E800EA6813432362002070BD000A00EB8003D6
:1040F8005B002869B3FBF0F30533DFE7CDCCCCCC0C
:10410800244A0368904230B434D0B0F1804F1DD0B7
:10411800A2F57C42904219D002F58062904215D0F7
:1041280002F58062904211D002F59A32904211D085
:1041380002F5806290420DD002F58062904209D06B
:104148008C680A880360C46282620CE04A6823F0C3
:1041580070031343CD688C680A8823F440732B439B
:104168000360C4628262436943F00103436130BC67
:10417800002070474C68CA6823F07003234323F477
:104188004073134303608A680B88C26283620B69B9
:104198000363E8E700000140B1F5807F30B470D0D8
:1041A80026D801294ED0102948D1036A156923F071
:1041B80010030362036A4468816923F0200343EA19
:1041C8000513156821F4E64141EA0521556823F0F5
:1041D800100343EA05135D4DA84200F09C80D568A2
:1041E8004460002281618563036230BC10467047D9
:1041F800B1F5805F22D1036A156923F48053036205
:10420800036A4468C16923F4005343EA0533156817
:1042180021F4E64141EA0521556823F4805343EA35
:1042280005334A4DA84200F08B80D56844600022CF
:10423800C1610564036230BC104670470122104614
:1042480030BC7047036A156923F001030362036AEF
:104258004468816923F002032B43156821F0730138
:104268002943556823F001032B43384DA8423ED01B
:10427800D5684460002281614563036230BC104602
:104288007047036A156923F480730362036A4468FC
:10429800C16923F4007343EA0523156821F073010B
:1042A8002943556823F4807343EA0523274DA84220
:1042B80008D0D56844600022C161C563036230BC80
:1042C80010467047556923F4006343EA85239569CE
:1042D80024F4805444EA0514956823F4806343EA7F
:1042E8008523D56924F4005444EA4514E1E7556967
:1042F80023F0080343EA8503956924F480742C436A
:10430800956823F0040343EA8503D56924F400740F
:1043180044EA4504ACE7556923F0800343EA851372
:10432800956924F4806444EA8504956823F0400381
:1043380043EA8513D56924F4006444EAC5044EE7CA
:10434800956924F4804444EA85146EE7000001402E
:10435800064BA3FB00304FF0E0228309013B00200D
:104368000521536190611161704700BFD34D621000
:104378004FF0E02382B01B690193421C019B18BFD8
:1043880001304FF0E0221369DB03FCD50138FAD184
:1043980002B07047014B1860704700BF040000204E
:1043A8002DE9F84304460F4616460021282204301A
:1043B8001D46BDF82080BDF828900CF021FE099B11
:1043C8002760A680A560A4F80C802361A4F8149047
:1043D800BDE8F8830368B0F804C01B6982681CEA6A
:1043E800030F1269B0F80CC00CBF012300231CEAAC
:1043F800020F0269B0F814C0126908BF43F0020343
:104408001CEA020F90F8282008BF43F00403102A82
:104418001DD090F82820202A19D04A1E012A20D918
:10442800032919D13F4AC1691268914214D8817D84
:1044380003F00403002964D1817D69B963B10123C4
:1044480002F13201837582610023C16105E003290D
:1044580044D00139012904D9002380F828301846AE
:10446800704710B490F8211090F820408900C9B224
:1044780080F8211090F8211003F003020A4380F815
:10448800212090F82110426A002C01F00F01264CDF
:1044980061560CBF4FF0010C4FF0FF3C0CFB0122A2
:1044A8004262426A032A12DC426A033222DA5B075A
:1044B80045BF00238375022320230022426280F82F
:1044C800212080F828305DF8044B184670475A07B9
:1044D80045BF0023837501231023EEE7114B1B68AA
:1044E800002203F6B8338275C361134680F828208A
:1044F80018467047002380F828305DF8044B1846AA
:1045080070475BB902F132018375C1618369D21AC0
:10451800B2F5FA6F34BF042308239EE7837D002B8E
:104528008DD099E7B00300202449010880F82010B5
:10453800704700BF01F038BE01F054BD38B5054CD6
:104548004FF00055A56101F035FE4FF40053A3610B
:1045580038BD00BF000802402DE9F8430025076870
:104568008D758369002B00F0B180C36A013306465C
:104578000C4622D0F9680888D0B14FF00208A94645
:1045880035B900F5205292B2B2F5006FC0F0B48090
:1045980040F2623140EA054001F0B0FBFF28C9F162
:1045A800FF0340F29580012B00F2A880002305B19B
:1045B8000023234400229A75A57DF2691378202BE5
:1045C80099B200F0CF80052908BFE5236372012363
:1045D8005178202988B206D0052804EB030008BFCB
:1045E800E521417201339178202988B206D0052847
:1045F80004EB030008BFE52141720133D17820297B
:1046080088B206D0052804EB030008BFE5214172F3
:1046180001331179202988B206D0052804EB03005C
:1046280008BFE521417201335179202988B206D0AB
:10463800052804EB030008BFE52141720133917995
:10464800202988B206D0052804EB030008BFE5211D
:1046580041720133D179202988B206D0052804EBAC
:10466800030008BFE52141720133117A202988B27D
:104678000BD0052803F1010004EB0306204408BF12
:10468800E5212E27777202334172517A202988B2A8
:1046980006D0052804EB030008BFE5214172013369
:1046A800917A202988B25FD02344052808BFE521E4
:1046B80059720021997255B3D37A03F03F032372DC
:1046C800D3692360D38AE380138BA380BDE8F88382
:1046D800D8B1002B3FF46BAF04EB090398750123A5
:1046E800F9689944002531F8080008F10208002803
:1046F8007FF446AF4B465AE70546F4E704EB090258
:10470800030A9375D0750223EAE703464FE7637AF5
:104718001846FBB16FF0070504F1090108262D1BA7
:104728000CE0192805D8107B064203F1200700D0B9
:10473800FBB24B73681811F8013F5BB198B22E2B8E
:10474800A0F14100EDD14B73681811F8013F102614
:10475800002BF3D1204400238375137B002BABD1AE
:104768006372A9E7002333E7E11800204872002D9F
:10477800A2D1002BCBD13F23A3750120EAE700BFCC
:1047880070B54FF0FF360023B142044603718662CC
:104798003CD194F82C30B4F82A52EB2B0AD01833B9
:1047A800DBB2012B06D94AF65520854214BF0320F7
:1047B800022070BD4AF655239D420BD0B4F837301D
:1047C80094F839105A1E1A4202D1B3F5007F2BD043
:1047D800032070BD274E04F17E024FF0080C12F83A
:1047E800010B16F8011B431A02D1BCF1010CF6D1DA
:1047F800002B36D0B4F837305A1E1A4204D1B3F51C
:10480800007F94F839202ED0022070BD0D460A464C
:104818004078012304F12C01FFF790FE08B9A56246
:10482800B7E7A662042070BD0029D1D04B1E0B4209
:10483800CED1638F002BB6D094F83C30013B012BCE
:10484800B1D8B4F83D30002BADD0B4F83F307F2B51
:1048580003D8E36CB3F5803FA5D3B4F84230002BFE
:10486800A1D0002070BD002ACED0531E1342E0D044
:10487800CAE700BF344901082DE9F0410468002364
:104888000B60002C00F09780224602E03A2B00F0E3
:104898008F8012F8013B1F2BF8D8764B1C68002C30
:1048A80000F0AA800C6023782BB16078FFF742FEF5
:1048B80010F0010579D0002360782370FFF73CFEE3
:1048C80010F0010570D129462046FFF759FF02284C
:1048D80075D0042800F08A80012800F28980B4F895
:1048E8003730B3F5007F40F08380B4F8422002B936
:1048F800226D94F83C30A76A6261591E0129E37061
:1049080076D894F8391088B26081002870D0481E93
:1049180008426DD1B4F83DE0A4F808E01EF00F0F8E
:1049280066D1B4F83F0000B9E06C668F002E5FD006
:1049380002FB03F306EB1E1C9C44844558D8A0EBED
:104948000C088845B8FBF1F052D34B4988424FD840
:104958004FF6F571884272D840F6F57188423E44A8
:1049680000F1020007EB0C01A76161622061E661BA
:1049780077D8BEF1000F3BD03344236200EB4003ED
:1049880000F0010000EB5303012103F2FF13B2EB27
:10499800532F2DD3394A217013883949E1600133E7
:1049A8009BB21380E38000E003252846BDE8F08130
:1049B800A31C9A4222D00B252846BDE8F081D4F8E2
:1049C800F211D4F80262D4F81282D4F82272D1B962
:1049D8000EBBB8F1000F28D157B139462046FFF772
:1049E800CFFE01287FF67BAF042801D10125DCE743
:1049F8000D252846BDE8F0810C25D6E72378302B15
:104A0800D9D1026049E72046FFF7BAFE01287FF6B0
:104A180066AF002EDDD031462046FFF7B1FE0128F3
:104A28007FF65DAFB8F1000FD6D041462046FFF7BC
:104A3800A7FE01287FF653AF002FD9D0CDE707EBAB
:104A48000C016162B4F85610A761831C3E4451EA18
:104A58000E01E6612361CBD1A16D21629B00032188
:104A680093E7BEF1000FC3D0334423620221430011
:104A78008BE700BFBC030020F5FFFF0FC003002039
:104A8800C4030020012930D9036999422DE9F04176
:104A98000C46054602D30120BDE8F0810378022BBD
:104AA80034D0032B23D0012BF5D1C169806A04EBE4
:104AB800540801EB5827874247D1C8F3080308F187
:104AC80001082B4401EB5827874293F82C6047D103
:104AD800C8F308031D44E30795F82C0046EA0020B4
:104AE8004CBF0009C0F30B00D6E701207047C66928
:104AF800836A06EBD1169E4200F12C071CD1A40054
:104B080004F4FE74385920F07040C5E7C669836A1A
:104B180006EB11269E4200F12C0704D1640004F430
:104B2800FF74385BB8E74078012332463946FFF70F
:104B380005FDF8B9AE62F1E74078012332463946FF
:104B4800FFF7FCFCB0B9AE62D9E768783A4605F1E0
:104B58002C01FFF7F3FC68B9E969AF623846ACE7A6
:104B6800687801233A4605F12C01FFF7E7FC08B9FC
:104B7800AF62ADE74FF0FF30A8628DE72DE9F84F3F
:104B88008468D0F8008000230646036184BB98F847
:104B98000030022B27D8B8F8083003B3D8F82030F3
:104BA800B3617461DBB108F12C03F3610025284679
:104BB800BDE8F88FFD69BB6A05EBD4159D4207F186
:104BC8002C095ED1A40004F4FE7459F8044024F0C2
:104BD8007044012C03D9D8F81030A3420CD8022510
:104BE8002846BDE8F88FD8F82030002BD3D01C46D3
:104BF800B8F80A20002A6ED1012CF0D937683B6931
:104C08009C42ECD23D78022D24D0032DD2D0012D28
:104C1800E5D1F869B96A04EB540B00EB5B298945C7
:104C280038D1CBF308030BF1010B3B4400EB5B29B4
:104C3800894593F82CA03AD1CBF308031F4497F881
:104C48002C304AEA032AE3074CBF4FEA1A14CAF386
:104C58000B04BEE7FD69BB6A05EB14259D4207F10D
:104C68002C0905D1640004F4FF7439F80440B0E756
:104C7800787801232A464946FFF760FC10BBBD62DD
:104C8800F0E7787801232A464946FFF757FCC8B968
:104C9800BD6297E778782B464A4607F12C01FFF763
:104CA8004DFCA0B9F869C7F828904946B9E7787863
:104CB80001234A4607F12C01FFF740FC38B9C7F831
:104CC8002890B9E74FF0FF33BB6201256FE74FF03B
:104CD800FF33BB626BE7D8F81010A01E0239884278
:104CE80005D2D8F8243000FB0233B36159E700231A
:104CF800C6E9054373E700BF2DE9F04F2DED028BA0
:104D080089B00368039380460F4611F8013B2F2BA7
:104D1800FAD05C2BF8D00023C8F808303B781F2B5A
:104D280040F2B482039BDE680024B51E17F8010B1D
:104D3800A8B904254CB106EB440232F8023D202BF9
:104D480001D02E2B38D1013CF7D1002333804FF00E
:104D58000609484609B0BDEC028BBDE8F08F40F269
:104D6800623100F0E9FF03460028F0D01F289F4A6F
:104D7800DFD92F2B12D05C2B10D07F2B08D812F83C
:104D8800010B08B19842FAD1013A1278002ADED113
:104D9800FF2CDCD025F8023F0134C7E73B461A78E0
:104DA8002F2A1F4603F10103F9D05C2AF7D01F2AE6
:104DB8008CBF00250425BDE7002326F81430318870
:104DC800202908BF324640F0D48132F8021F20293A
:104DD8009A4603F10103F8D00AF1020A45F00305E7
:104DE800EDB206EB440333F8022D2E2A01D0013C24
:104DF800F9D108F1200202920B2320201B4303D093
:104E080002F8010B013BFBD1002900F078824FF03A
:104E1800000B0822D9463B46202918D02E2900F03D
:104E28008181914580F08D81544500F07E817F29F4
:104E380000F2B0816E4F17F8010B08B18842FAD121
:104E4800013F3878002800F0D6812F46B9E145F0B7
:104E58000305EDB236F81A100AF1010A0029DBD170
:104E68001F4698F82030E52B04BF052388F820302A
:104E7800082A00F071810BF00C030C2B00F07581EF
:104E88000BF00303032B00F0708105F002035BB9FC
:104E98001BF0010F1CBF45F01005EDB21BF0040F0D
:104EA8001CBF45F00805EDB288F82B504046D8F8ED
:104EB80000B0FFF763FE8146002840F02D82D8F845
:104EC80018900697FF224FF0FF330192C8F82C3054
:104ED80015460BF12C064F46DBF82830BB4215D09F
:104EE8009BF8010001233A463146FFF727FB58B1EA
:104EF8004FF001094FF0FF334846CBF8283009B08E
:104F0800BDEC028BBDE8F08FCBF82870D8F81C40B8
:104F18002278D2B1E37AE52A03F03F0188F8061037
:104F280005D013F008092FD00F2900F08A804FF020
:104F3800FF33C8F82C30FF25D8F810402034B4F5DA
:104F4800001F05D30023C8F8183098F82B30E3E089
:104F5800D8F81870002FF8D0C4F30802D8F8003039
:104F68005AB9D8F814100137C8F81870002941D177
:104F78001889B0EB541F40F2CB802C331A44C8F880
:104F88001040C8F81C20A7E70F295AD0002D6ED072
:104F980098F82BC01CF0010FC9D1029D0B2214F800
:104FA800010B15F8011B471A01D1013AF7D1002F5F
:104FB800BDD1069F664672073FF5CBAED90640F1D4
:104FC800AE800399D8F8102001F12C03C2F308022F
:104FD8000978134403295A8B04BF9B8A42EA034287
:104FE800C8F80820D8F800309DE600BF40490108FD
:104FF8004C490108B3F80AA00AF1FF3A1AEA542A00
:10500800BBD1184605920493FFF73CFD012840F2F6
:10501800B980471C00F0B380049B059A196988423F
:1050280080F0B3800239C8F81400023888423BBFC8
:10503800B3F80A90596A174600FB0917C8F81870A0
:105048009BE798F82B3058063FF576AF51065CD5AC
:10505800D8F8103002F0BF05627B0192C8F82C30F6
:10506800637B019A934200F0CF80FF2564E72178A3
:105078006078CA0142EA51021118C1F34602A078C9
:1050880042EAC11250FA82F2C2F34601E07841EADC
:10509800C21150FA81F2C2F34601207941EAC211E5
:1050A80050FA81F1C1F34602607942EAC11250FA1E
:1050B80082F1C1F34602A07942EAC11250FA82F2A3
:1050C800C2F34601E07941EAC21150FA81F2C2F313
:1050D8004601207A41EAC21150FA81F1C1F3460231
:1050E800607A42EAC11250FA82F1C1F34602A07A0C
:1050F80042EAC11250FA82F20199D2B28A427FF48E
:1051080047AF069F98F82B6055E7AA42ADD1A7E7AD
:1051180098F82B30C8F81810580700F1FA804FF0AB
:10512800050916E654457FF492AE0B2A00F0B980C3
:105138004FEA8B0B5FFA8BFBA2460B224FF0080954
:1051480088E60B2A00F0AD805445F1D045F0030500
:10515800EDB2FFF485AEEBE74FEA8B0B0BF00C03D7
:105168000C2B5FFA8BFB7FF490AE45F00205EDB295
:105178009AE62E294FF0010A7FF433AE2EE64FF05F
:105188000109E6E54FF00209E3E598F82B30C8F885
:1051980018A0C1E7084640F262310493019200F07A
:1051A800ADFD45F0020710F0800F019A049BFFB295
:1051B800014611D000F07F015B48415C002940F0B6
:1051C800B18047F00305EDB25F2108EB090009F152
:1051D800010980F820103DE6FF28EFD9501E8145CF
:1051E8006CD208EB09003D460F0A09F1010980F865
:1051F8002070C9B2E9E7A1F1410080B2192862D84C
:105208004BF0020BC9B2E0E7638B002B7FF42DAFA4
:1052180094F80090DFF814A1059509F03F0909F109
:10522800FF3909EB490309EB8309DBF80C30CDF8AA
:10523800108008EE106A07930AF10D0701201D4639
:10524800A04611E0B9F1FF0F204619D800F088FDFB
:10525800034635F81900994600F082FD81450FD1C3
:105268002046B146BA4538D01AF8013B09F1010683
:1052780038F803400028E5D14FF6FF739C42F1D07F
:10528800DDF8108018EE106AFF2555E680234046A9
:1052980088F82B3009B0BDEC028BBDE8F04FFFF762
:1052A8006DBC1F4698F8203045F00305E52BEDB29C
:1052B8007FF4E1AD052388F82030DCE545F00305EF
:1052C800EDB29146C6E5A1F1610080B219289CBFF4
:1052D80020394BF0010BC9B277E7444618EE106A43
:1052E80023785B06DDE9048506D528B1079B33F8EA
:1052F8001930002B7FF4B9AE013DEDB21CE698F8E9
:105308002030E52B7FF4D0AD05238B4688F820307C
:10531800BBE54FF004091CE5042898F82B307FF40E
:1053280018ADF9E63D4685E554490108D449010818
:1053380000B583B0CDE9001011B38C4601E03A2BDB
:105348001AD01CF8013B1F2BF9D8114B196811B161
:10535800002018600870019911B1002008801960B8
:105368001AB9104603B05DF804FB01A96846FFF7B7
:1053780083FA03B05DF804FB11F8023B8C4503D0B7
:105388000B2003B05DF804FB302BF9D1DDE700BF3B
:10539800BC03002030B591B00191002837D00446F5
:1053A80003A901A81546FFF767FA18B1002323607F
:1053B80011B030BD039B0199049304A8FFF79CFC2E
:1053C8000028F3D19DF93B30002B23DB9DF81630E4
:1053D80013F0100001D00420E8E7039B0B9A93F820
:1053E80000C0518BBCF1030F04BFB2F814C041EAEE
:1053F8000C41A160D169E16005F00102D988236000
:105408000023A18022746374E3616361D0E70920FB
:1054180011B030BD0620C9E72DE9F04F1F46002323
:1054280083B03B6050B1036804463BB116461A7816
:1054380022B1DA8888468188914205D04FF009095F
:10544800484603B0BDE8F08F5878FFF773F8C107F6
:10545800F4D494F81190B9F1000FF1D1237C13F032
:105468000103009300F08D806169E268521A964248
:1054780028BF1646002EE3D0A346C1F308025BF806
:1054880020AB002A35D1BAF80A30013B13EA512380
:1054980042D0A069DAF810200238023A904248D285
:1054A800BAF80A10DAF8242001FB0022002A40D0BA
:1054B800B6F5007F1A4444D303EB562088424FEADE
:1054C800562588BFCD1A9AF801002B464146FFF7AA
:1054D80035F8002846D161696B023A6819441A44C4
:1054E800F61A3A6098446161AAD0C1F30802002A0A
:1054F800C9D0C2F50073B34228BF33465A44454663
:105508009C465CEA0C0C06D012F8010B05F8010B5E
:10551800BCF1010CF8D1E0E761BBA068012808D90B
:10552800421C1FD0DAF81020A061023A02389042DB
:10553800B6D34FF00209484684F8119003B0BDE88D
:10554800F08FE369934208D09AF801000192012391
:105558005946FEF7F3FF019A20B96169E261C1F388
:105568000802C6E7DDF8009001234846637403B0DB
:10557800BDE8F08FA16920680193FFF783FA019BCA
:10558800CCE74FF007095BE798B1036810B504460C
:105598002BB11A781AB18188DA88914201D0092092
:1055A80010BD5878FEF7C6FF10F00100F7D1206053
:1055B80010BD0920704700BF2DE9F04F83B040B1FE
:1055C800036804462BB11A781AB18088DA889042A9
:1055D80005D04FF00909484603B0BDE8F08F587868
:1055E8000091FEF7A7FFC207F3D494F81190D4F8FE
:1055F80000B0B9F1000FEED1E3680099994228BFD5
:1056080019466369C4F814900029E4D0BBF80A600D
:10561800760213B3013B4A1EB3FBF6F0B2FBF6F277
:1056280082421AD37242A76913406361002F40F087
:10563800D680C3F30803002BCDD0E369BB42CAD0A0
:105648009BF8010001233A4604F12001FEF776FF9A
:105658008146002835D1E761BDE7A568A561002D21
:10566800B9D08A460023564580F0B7803344012DCF
:10567800636107D0AAEB060A5F46CDF800903B6944
:10568800AB4204D84FF0020984F81190A3E73B78A5
:10569800022B35D0032B19D0012BF3D1FA69B96A43
:1056A80005EB550802EB5829894545D078784A46D4
:1056B80007F12C01FEF742FF002839D04FF0FF33E5
:1056C800BB624FF0010984F8119084E7FA69BB6A5C
:1056D80002EBD518984507F12C0909D078780123F1
:1056E80042464946FEF72AFF0028E7D1C7F8288036
:1056F800AD0005F4FE7559F8055025F0704533E006
:10570800FA69BB6A02EB1528984507F12C0909D0FC
:105718007878012342464946FEF710FF0028CDD18C
:10572800C7F828806D0005F4FF7539F805501BE0AF
:10573800FA69C7F828904946C8F3080308F1010830
:105748003B4402EB58228A4293F82C901CD1C8F3B0
:105758000808474497F82C3049EA0329EB074CBF5F
:105768004FEA1915C9F30B05012D8BD9DBF8103059
:10577800AB4287D95645A56112D26369276833447D
:10578800AAEB060A63617AE778780192012307F1A8
:105798002C01FEF7D3FE019A00288FD1BA62D6E712
:1057A8006369DDF800905344CAF308076361002F6A
:1057B8003FF43FAFDBF81020023D023A9542BFF4B8
:1057C80061AFBBF80A20DBF8247005FB0277002FD5
:1057D8003FF458AF07EB5A272BE70B46E4E73D4663
:1057E800A1EB030A3FE700BF10B584B00191002880
:1057F80030D0044603A901A8FFF73EF818B10023EA
:10580800236004B010BD039B019923602046FFF775
:1058180073FAD8B994F92B30002B1EDBA379DB0679
:1058280016D5039BE16918784A8B032804BF898A37
:1058380042EA0142A260DB88A3802046FFF79EF976
:10584800042805D00028DAD104B010BD0428D6D128
:105858000520D4E7092004B010BD039BEBE700BF87
:1058680098B1036810B504462BB11A781AB181882B
:10587800DA88914201D0092010BD5878FEF75AFE07
:1058880010F00100F7D1206010BD0920704700BF5B
:105898002DE9F04F85B048B10368044633B11A7852
:1058A80022B1DA8889468188914205D04FF0090AE9
:1058B800504605B0BDE8F08F5878FEF73BFE10F073
:1058C800010AF3D1B9F1000F00F0C480A669276876
:1058D80086B3FF230193984607F12C0BBB6AB342AA
:1058E80012D07878012332465946FEF727FE50B188
:1058F8004FF0010A4FF0FF3200235046BA62A3610D
:1059080005B0BDE8F08FBE62E369197891B1DA7A23
:10591800E52902F03F02A27105D02E2903D022F01A
:10592800200008284FD125694FF0FF082035B5F52C
:10593800001F0DD30023A36149462046FEF70CFE45
:1059480025692035B5F5001F54D30023A361AFE7BF
:10595800A669002EEED0C5F3080223686AB961690A
:105968000136A66171B91A89B2EB551FE2D92C33F9
:105978002561E361002EB1D1DEE72C331A4425619D
:10598800E261ABE75A89013A12EA5522EFD118468B
:1059980003920293FFF776F8012840F2D380421C65
:1059A80000F0CD80029B19698842C3D20239606138
:1059B80002388842039A80F0BD805E895A6A00FBEB
:1059C8000626A661D3E70F2A40F0BF8048060CD50B
:1059D8005A7B2569019201F0BF08E56211465A7B9E
:1059E8008A423DD04FF0FF08A0E741452569F9D12B
:1059F8000199F4E7A369002B3FF45AAFC5F30807F0
:105A0800266817BB61690133A361002900F08D8006
:105A18007389013B13EA552817D13046FFF732F84E
:105A2800012840F26881431C00F062813369984282
:105A38008BD2023B60610238984204D2B6F80A80E1
:105A4800736A00FB0838C4F818802C363E44256178
:105A5800E6612DE7204605B0BDE8F04FFFF78EB8A8
:105A68005A8B002ABED11A7822F04002013A02EB82
:105A7800420102EB8102FF2AB3F80110B2D8F8689C
:105A880020F812104FEA420CB3F80360002940F0E6
:105A9800AD804FF6FF729642A4D1B3F805E04FF6F9
:105AA800FF7296459ED1B3F807604FF6FF72964293
:105AB80098D1B3F809E04FF6FF72964592D1DE8986
:105AC8004FF6FF7296428DD1B3F810E04FF6FF7291
