:020000040800F2
:1000000000000120CD2F0008A12C0008A52C00081D
:10001000A92C0008AD2C0008B12C0008000000003D
:10002000000000000000000000000000B52C0008E7
:10003000B92C000800000000BD2C0008C12C0008ED
:100040001D3000081D3000081D3000081D3000085C
:100050001D3000081D300008D12C0008AD2D00080F
:100060001D3000081D3000081D3000081D3000083C
:100070001D3000081D300008292E00082D2E000814
:10008000BD2E00081D3000081D30000800000000D3
:100090000000000000000000000000001D3000080B
:1000A0001D3000081D3000081D3000081D300008FC
:1000B0001D3000081D3000081D3000081D300008EC
:1000C0001D3000081D3000081D3000081D300008DC
:1000D0001D3000081D3000081D3000080000000021
:1000E000312E00081D3000081D30000800000000FF
:1000F0000000000000000000000000001D300008AB
:10010000000000001D3000081D3000081D300008F0
:1001100000000000000000000000000000000000DF
:100120001D3000081D3000081D300008B12E0008E9
:100130001D3000080000000000000000000000006A
:100140000000000000000000000000001D3000085A
:100150001D3000081D3000081D3000081D3000084B
:100160001D3000081D3000080000000000000000E5
:10017000000000000000000000000000000000007F
:10018000000000001D30000800000000000000001A
:040190001D30000816
:1001980010B5054C237833B9044B13B10448AFF3B9
:1001A80000800123237010BD1C0100200000000006
:1001B800340E010808B5034B1BB103490348AFF3DC
:1001C800008008BD0000000020010020340E010856
:1001D8002DE9F04F82B001904FF000744FF0007895
:1001E8004FF000054FF0000952F804CB52F804EB29
:1001F8000868CB6DC0FB0C45D1F88000CEF1000E2D
:10020800C3FB0E45D1F8DC30C0FB0C89C3FB0E895B
:1002180052F804CB52F804EB48688B6DC0FB0C45D0
:10022800D1F88400CEF1000EC3FB0E45D1F8D830CA
:10023800C0FB0C89C3FB0E8952F804CB52F804EBBF
:1002480088684B6DC0FB0C45D1F88800CEF1000ED4
:10025800C3FB0E45D1F8D430C0FB0C89C3FB0E8913
:1002680052F804CB52F804EBC8680B6DC0FB0C4580
:10027800D1F88C00CEF1000EC3FB0E45D1F8D0307A
:10028800C0FB0C89C3FB0E8952F804CB52F804EB6F
:100298000869CB6CC0FB0C45D1F89000CEF1000E7C
:1002A800C3FB0E45D1F8CC30C0FB0C89C3FB0E89CB
:1002B80052F804CB52F804EB48698B6CC0FB0C4530
:1002C800D1F89400CEF1000EC3FB0E45D1F8C8302A
:1002D800C0FB0C89C3FB0E8952F804CB52F804EB1F
:1002E80088694B6CC0FB0C45D1F89800CEF1000E24
:1002F800C3FB0E45D1F8C430C0FB0C89C3FB0E8983
:1003080052F804CB52F804EBC8690B6CC0FB0C45DF
:10031800D1F89C00CEF1000EC3FB0E45D1F8C030D9
:10032800C0FB0C89C3FB0E8901984FF4FE4E4EF0BA
:10033800FF0E4FEA946444EA851404F30F0401B4F1
:10034800DFF8EC06007804FB00F44FEA241401BC43
:100358004FEA986848EA891808F30F0801B4DFF8EB
:10036800D006007808FB00F84FEA281801BC048082
:10037800A0F8028002F5707201F580514FF0007408
:100388004FF000784FF000054FF0000952F804CB09
:100398000868D1F88030C0FB0C45C3FB0C8952F8C3
:1003A80004CB4868D1F88430C0FB0C45C3FB0C89EA
:1003B80052F804CB8868D1F88830C0FB0C45C3FBE1
:1003C8000C8952F804CBC868D1F88C30C0FB0C45B6
:1003D800C3FB0C8952F804CB0869D1F89030C0FBF4
:1003E8000C45C3FB0C8952F804CB4869D1F894300A
:1003F800C0FB0C45C3FB0C8952F804CB8869D1F8C3
:100408009830C0FB0C45C3FB0C8952F804CBC86973
:10041800D1F89C30C0FB0C45C3FB0C8901984FF404
:10042800FE4E4EF0FF0E4FEA946444EA851404F33E
:100438000F0401B4DFF8F805007804FB00F44FEA74
:10044800241401BC4FEA986848EA891808F30F0891
:1004580001B4DFF8DC05007808FB00F84FEA28183B
:1004680001BCA0F84040A0F84280A2F57872A1F53E
:1004780070614FF00F0C00F10400CDF800C001903E
:100488004FF000744FF000784FF000764FF0007A8C
:100498004FF000054FF000094FF000074FF0000B38
:1004A80052F804CB52F804EB0868CB6DC0FB0C453E
:1004B800C0FB0E67CEF1000EC3FB0C67C3FB0E45F5
:1004C800D1F8DC30D1F88000C3FB0E89C3FB0CAB3C
:1004D800CEF1000EC0FB0C89C0FB0EAB52F804CB6A
:1004E80052F804EB48688B6DC0FB0C45C0FB0E67E7
:1004F800CEF1000EC3FB0C67C3FB0E45D1F8D83014
:10050800D1F88400C3FB0E89C3FB0CABCEF1000EFF
:10051800C0FB0C89C0FB0EAB52F804CB52F804EBBD
:1005280088684B6DC0FB0C45C0FB0E67CEF1000E12
:10053800C3FB0C67C3FB0E45D1F8D430D1F8880053
:10054800C3FB0E89C3FB0CABCEF1000EC0FB0C89BC
:10055800C0FB0EAB52F804CB52F804EBC8680B6D25
:10056800C0FB0C45C0FB0E67CEF1000EC3FB0C6749
:10057800C3FB0E45D1F8D030D1F88C00C3FB0E89EF
:10058800C3FB0CABCEF1000EC0FB0C89C0FB0EAB5D
:1005980052F804CB52F804EB0869CB6CC0FB0C454D
:1005A800C0FB0E67CEF1000EC3FB0C67C3FB0E4504
:1005B800D1F8CC30D1F89000C3FB0E89C3FB0CAB4B
:1005C800CEF1000EC0FB0C89C0FB0EAB52F804CB79
:1005D80052F804EB48698B6CC0FB0C45C0FB0E67F6
:1005E800CEF1000EC3FB0C67C3FB0E45D1F8C83033
:1005F800D1F89400C3FB0E89C3FB0CABCEF1000EFF
:10060800C0FB0C89C0FB0EAB52F804CB52F804EBCC
:1006180088694B6CC0FB0C45C0FB0E67CEF1000E21
:10062800C3FB0C67C3FB0E45D1F8C430D1F8980062
:10063800C3FB0E89C3FB0CABCEF1000EC0FB0C89CB
:10064800C0FB0EAB52F804CB52F804EBC8690B6C34
:10065800C0FB0C45C0FB0E67CEF1000EC3FB0C6758
:10066800C3FB0E45D1F8C030D1F89C00C3FB0E89FE
:10067800C3FB0CABCEF1000EC0FB0C89C0FB0EAB6C
:1006880001F5807101984FF4FE4E4EF0FF0E4FEACF
:10069800946444EA851404F30F0401B4E448007830
:1006A80004FB00F44FEA241401BC4FEA986848EAB6
:1006B800891808F30F0801B4DD48007808FB00F832
:1006C8004FEA281801BC4FEA966646EA871606F3F1
:1006D8000F0601B4D648007806FB00F64FEA261646
:1006E80001BC4FEA9A6A4AEA8B1A0AF30F0A01B464
:1006F800CF4800780AFB00FA4FEA2A1A01BCDDF855
:1007080000C000EBCC0E2EF8026B2EF802AB20F8DE
:10071800024B20F8028BBCF1010C7FF4AEAE02B0A4
:10072800BDE8F08F2DE9F04F82B001904FF00074D2
:100738004FF0000552F804CB52F804EB0868CB6D73
:10074800CEF1000EC0FB0C45C3FB0E4552F804CB9E
:1007580052F804EB48688B6DCEF1000EC0FB0C45D7
:10076800C3FB0E4552F804CB52F804EB88684B6D76
:10077800CEF1000EC0FB0C45C3FB0E4552F804CB6E
:1007880052F804EBC8680B6DCEF1000EC0FB0C45A7
:10079800C3FB0E4552F804CB52F804EB0869CB6C46
:1007A800CEF1000EC0FB0C45C3FB0E4552F804CB3E
:1007B80052F804EB48698B6CCEF1000EC0FB0C4577
:1007C800C3FB0E4552F804CB52F804EB88694B6C16
:1007D800CEF1000EC0FB0C45C3FB0E4552F804CB0E
:1007E80052F804EBC8690B6CCEF1000EC0FB0C4547
:1007F800C3FB0E4501984FF4FE4E4EF0FF0E4FEA34
:10080800946444EA851404F30F0401B4884800781A
:1008180004FB00F44FEA241401BC048002F5707252
:1008280001F580514FF000744FF0000552F804CBE9
:100838000868C0FB0C4552F804CB4868C0FB0C455F
:1008480052F804CB8868C0FB0C4552F804CBC86842
:10085800C0FB0C4552F804CB0869C0FB0C4552F8A4
:1008680004CB4869C0FB0C4552F804CB8869C0FB2F
:100878000C4552F804CBC869C0FB0C4501984FF4ED
:10088800FE4E4EF0FF0E4FEA946444EA851404F3DA
:100898000F0401B46648007804FB00F44FEA2414FE
:1008A80001BC0484A2F57872A1F570614FF00F0CB9
:1008B80000F10200CDF800C001904FF000744FF035
:1008C80000764FF000054FF0000752F804CB52F8BD
:1008D80004EB0868CB6DC0FB0C45C0FB0E67CEF17E
:1008E800000EC3FB0E45C3FB0C6752F804CB52F84D
:1008F80004EB48688B6DC0FB0C45C0FB0E67CEF15E
:10090800000EC3FB0E45C3FB0C6752F804CB52F82C
:1009180004EB88684B6DC0FB0C45C0FB0E67CEF13D
:10092800000EC3FB0E45C3FB0C6752F804CB52F80C
:1009380004EBC8680B6DC0FB0C45C0FB0E67CEF11D
:10094800000EC3FB0E45C3FB0C6752F804CB52F8EC
:1009580004EB0869CB6CC0FB0C45C0FB0E67CEF1FD
:10096800000EC3FB0E45C3FB0C6752F804CB52F8CC
:1009780004EB48698B6CC0FB0C45C0FB0E67CEF1DD
:10098800000EC3FB0E45C3FB0C6752F804CB52F8AC
:1009980004EB88694B6CC0FB0C45C0FB0E67CEF1BD
:1009A800000EC3FB0E45C3FB0C6752F804CB52F88C
:1009B80004EBC8690B6CC0FB0C45C0FB0E67CEF19D
:1009C800000EC3FB0E45C3FB0C6701F5807101984F
:1009D8004FF4FE4E4EF0FF0E4FEA946444EA85143D
:1009E80004F30F0401B41248007804FB00F44FEA42
:1009F800241401BC4FEA966646EA871606F30F06EA
:100A080001B40B48007806FB00F64FEA261601BC35
:100A1800DDF800C000EB8C0E2EF8026B20F8024BBC
:100A2800BCF1010C7FF446AF02B0BDE8F08F0000C6
:100A380000000020034613F8012B002AFBD1181AE6
:100A48000138704753B94AB9002908BF00281CBFAC
:100A58004FF0FF314FF0FF3000F06AB9ADF1080CEC
:100A68006DE904CE00F006F8DDF804E0DDE90223C4
:100A780004B070472DE9F047089D0C46002B4ED175
:100A880094468C458646B2FA82F262D94AB1C2F1DE
:100A98002003914020FA03F30CFA02FC194300FAF0
:100AA80002FE4FEA1C471FFA8CF6B1FBF7F44FEA37
:100AB8001E4307FB141143EA014304FB06F1994264
:100AC8000AD91CEB030304F1FF3080F0128199422C
:100AD80040F20F81023C6344591A1FFA8EF3B1FBAE
:100AE800F7F007FB101143EA014300FB06F69E42AC
:100AF8000AD91CEB030300F1FF3180F0FC809E4211
:100B080040F2F980634402389B1B40EA044000210C
:100B18001DB1D3400022C5E90032BDE8F0878B4201
:100B280005D90DB1C5E9000100210846F5E7B3FA7A
:100B380083F1002946D1A34202D39042C0F0F0804D
:100B4800861A64EB03030120002DE6D0C5E9006393
:100B5800E3E7002A40F09080A1EB0C044FEA1C4820
:100B68001FFA8CF70121B4FBF8F64FEA1E4308FB85
:100B7800164443EA044307FB06F0984208D91CEBE5
:100B8800030306F1FF3402D2984200F2CD802646D4
:100B98001C1A1FFA8EF3B4FBF8F008FB104443EA62
:100BA800044300FB07F79F4208D91CEB030300F13D
:100BB800FF3402D29F4200F2B0802046DB1B40EA9D
:100BC8000640A5E7C1F120068B4022FA06F71F432D
:100BD80020FA06FC04FA01F343EA0C03F44000FA95
:100BE80001F8380C4FEA1349B4FBF0FE1FFA87FCF2
:100BF80000FB1E4449EA04440EFB0CF9A14502FA25
:100C080001F20AD93C190EF1FF3A80F08480A1451F
:100C180040F28180AEF1020E3C44A4EB09041FFAB5
:100C280083F9B4FBF0F300FB134449EA044403FBE3
:100C38000CFCA44507D93C1903F1FF3067D2A44541
:100C480065D9023B3C4443EA0E40A0FB0293A4EB67
:100C58000C049C42CE469C4651D34ED055B1B8EBBD
:100C68000E0364EB0C0404FA06F6CB401E43CC409A
:100C7800C5E90064002150E7C2F1200320FA03F11E
:100C88000CFA02FC24FA03F394400C434FEA1C4884
:100C980000FA02FE1FFA8CF7B3FBF8F008FB1031DC
:100CA800230C43EA014300FB07F1994208D91CEBE6
:100CB800030300F1FF362CD299422AD90238634443
:100CC8005B1AA4B2B3FBF8F108FB113344EA0344FE
:100CD80001FB07F3A34208D91CEB040401F1FF361A
:100CE80013D2A34211D902396444E41A41EA0041FB
:100CF80039E70446F0E6084606E7C845AED2B9EB40
:100D0800020E63EB070C0138A8E73146EDE703460E
:100D180099E73046D4E7D6467FE7634402384DE783
:100D28000646234608460FE7023E634430E700BF05
:100D3800704700BF2DE9F04FADF2946D15461C4683
:100D480002460B4602202F49BDF8B896BDF8BC767E
:100D5800BDF8C0860FF094FB01220646014694A810
:100D680004F076FA824630460FF05CFEBAF1000FC6
:100D780003D00DF2946DBDE8F08F5146F82256A8C5
:100D88000FF09AFF94A956A801F0F4F89DF858318D
:100D980040EA030616F0FF060BD094A804F044FBC3
:100DA80080980028E5D00FF03DFE0DF2946DBDE867
:100DB800F08F929994A804F04FFB7B9B984507D934
:100DC800A8EB030303EBD37309EB63031FFA83F95F
:100DD8007A9B9F4205D9FB1A03EBD37304EB630399
:100DE8009CB2DDF81522084B9A4203D1BDF82D328A
:100DF800552B0BD0809808B10FF014FE94A804F07E
:100E080013FBB6E7D40F01084D4A50470DF58E6B1A
:100E18004FF4087294A958460FF0A8FF4FF4F761F1
:100E280001200FF0DBFD824601F002F8CD4BCE49E0
:100E380018601AAB94AA0193CC4B1A920093CC4A2F
:100E4800CC4BCDF86CA001F02BF8C64B186801F01C
:100E580041F8C44B186801F043F8C24BC6481B68F8
:100E6800012219690FF02CFDC44BC54ACDF870B0AA
:100E78004FF0000AC3F800A0012313700321729BEE
:100E880009935046CDF854A00EF0C8FDBD4A049011
:100E98005023CDE900325146C82352460EF028FEB1
:100EA800049880210EF020FE022104980EF0B6FD71
:100EB80003224D236FF07F41CDE900311146C52350
:100EC8000EF016FEB04B186859689A68B3F80CC053
:100ED8002FAB07C3242251460DF1CA00A3F800C066
:100EE8000FF0EAFEA64AA94B1178A94A012914BFB6
:100EF800114619460DF1C90318460FF08BFA062161
:100F080004980EF08BFDA34902910A22A249009190
:100F18002FAB1146CDF804A00EF03AFEDFF890E2B0
:100F2800BEE80F000DF1F00CACE80F00DEF8003061
:100F3800CCF800301E22514641A80FF0BDFE974B59
:100F4800974A1B68934240F2FE8202F17852A2F55A
:100F58005A02A2F51F72A2FB0323980C0A220DF273
:100F680003110FF08DFE062104980EF057FD894BF2
:100F78004FF0000A0DF1F00CCDE901A3864B009368
:100F8800172263460A210EF003FEDFF828E2BEE8C6
:100F98000F000DF5927CACE80F00DEF80030CCF8BD
:100FA80000301E2251464EA80FF086FE06210498F6
:100FB8000EF034FD7749784A00920DF5927C63462D
:100FC8002D22CDE901A10A210EF0E2FD50460EF0D6
:100FD800D5FC01234FF47F02514606900EF0EAFC3F
:100FE800069801234FF47F4232210EF0E3FC0123DF
:100FF800FF22069864210EF0DDFC06985A210EF0B7
:101008000BFD032104980EF009FD4623FF21CDE9CD
:1010180000313C22BE230A2105900EF069FDDDE96E
:1010280005010EF05FFDDFF890E1BEE80F000DF15D
:10103800A40CACE80F009EE803004CF8040B0498DD
:10104800ACF8001006210EF0E9FC6FF07F4C524A14
:101058000092CDE901AC29AB3B2210210EF098FD9E
:10106800032104980EF0DAFC4FF47F0C1723CDE926
:10107800003C0A22C22306210F900EF039FD0F987A
:1010880080210EF031FDEA88A9880498503AC839C1
:1010980002EBD27201EBD171521049100FF030F906
:1010A800032150460EF0BAFCDFF8D8E0059029235A
:1010B800CDE9003E5246C82351460EF019FD059869
:1010C80080210EF011FD022105980EF0A7FC6FF0AB
:1010D8007F4303220193262311460093C5230EF074
:1010E80007FD304B05981E930521CDF87CA08DF89F
:1010F80080A00EF093FC142210231521CDF800A037
:1011080007900EF03DFD0DF1780C614607980EF042
:10111800E7FC032105980EF081FC234B0E90052176
:1011280005982193CDF888A08DF88CA00EF076FC58
:10113800142210231521CDF800A00C900EF020FDEC
:101148000DF1840C61460C980EF0CAFC174B93E81D
:1011580003008DF85C101690062105980EF05EFCD1
:101168000D4A2BE03C010020AD1C0008211E0008A0
:10117800D11D0008011E0008003C00403801002075
:1011880001000020A9A9A900D80F0108BC0F010877
:10119800C80F010800FFFF0008000020040000201D
:1011A800FFE0F505A41B0108941B0108E80F0108DE
:1011B8004C0E0108800E0108F00F0108AF4900929B
:1011C800029116AB2821CDF804A00E2210900EF043
:1011D800DFFCAB4B1978002900F0C3810B1F052BEE
:1011E80040F2BD8109298CBF4FF47F434FF47F0340
:1011F80001EBC10101EB011101931A220B110E98A9
:10120800009228330E2228210EF072FC0C9800213F
:101218000EF06CFC109800210EF068FCEA88A98892
:101228000598DFF878A22A3AC83902EBD27201EBA6
:10123800D171521049100FF063F8924B00211B68CE
:101248000B93284602F0A2F88F4A904913689048F9
:1012580000220D925A699B6E9200009205220FF0AF
:1012680099FA09990D9A0B9B11934908CDE91247F0
:101278000A9114461746DBF81420DBF80C309A4222
:101288007BD24FF48033CAF88030BFF34F8FBFF35F
:101298006F8F082215AB18A9584604F017F84FF4B9
:1012A8008033CAF80030002867D1159B082B64D119
:1012B800189B784A934200F0F980199BDBF81420B8
:1012C8000892DA0748BF01331D93BDF8623046F231
:1012D8006432934200F0928044F24432934200F028
:1012E8008D80002307931D9B9BB14FF48033CAF870
:1012F8008030BFF34F8FBFF36F8F089B1D995846FF
:10130800194404F0A9F84FF48033CAF800300028D3
:1013180033D14FF48033CAF88030BFF34F8FBFF317
:101328006F8F594B1B68002B00F0B181D3E9242340
:101338000A9E4FF48031901BCAF8001063F1000137
:10134800844277EB010148D3B01843F10001A04271
:10135800B94142D30026504B049A1B68934200F0CF
:10136800E580059A9A4200F0D48007F053FA0028E5
:1013780073D1079B002B3FF47EAF484B4FF480326C
:10138800C3F88020BFF34F8FBFF36F8F3E4C2368A5
:1013980063B13E493E4805220FF058FA206800F034
:1013A800E3FD206800F048FD002323603B4B4FF429
:1013B8008032C3F8802158461A6004F035F88098C6
:1013C80008B10FF02FFB06980EF0E2FA04980EF021
:1013D8005DFB05980EF05AFBCBE4A24273EB0701C4
:1013E80039D2A01A67EB03014FF47A720023FFF792
:1013F80029FB0028AED002F05DFFABE7099B1B1963
:101408001C461D9B47F10007002B3FF434AF002E0C
:101418007FF467AF1CABCDE900830296194EDDE976
:1014280012134A462846366805F07CFD154B07908E
:1014380018681B4B1B4A1B68A2FB03231A4A801B14
:1014480012689B090DF23711B2FBF3F30A22C01A96
:101458000FF016FC47E701267DE707F0BDF90E4AB5
:10146800049913688B4200F0C48010F0080F7CD0F8
:10147800044B11601B680B937BE700BF00FFFF0064
:1014880000000020A00300203C0100200060024072
:10149800003C0040524946463801002000E100E087
:1014A80004000020D34D6210983400204FF480339C
:1014B800CAF88030BFF34F8FBFF36F8F102215AB80
:1014C80024A9584603F002FF4FF48033CAF80030CD
:1014D80000287FF452AF159B102B7FF44EAF874B3B
:1014E800249A9A427FF449AF03F17C43259A03F585
:1014F8001F2303F20B339A427FF43FAF03F1A95342
:10150800279A03F5493303F221239A427FF435AF32
:10151800B1E67B4B119A1B689B1A41F287329342C2
:101528007FF623AF774A002313601EE7744A0B99AE
:101538001268521A42F20F718A427FF612AF714A4C
:10154800002313600DE7704AA2FB0323980C0A22BC
:10155800202341A98DF803310FF092FB03E56B4B73
:1015680046E60E980EF0C2FA58E6002B00F083808B
:10157800810748D566490A780F2A33D8531C033A9D
:10158800DBB2052A0B7040F28780092B8CBF4FF421
:101598007F424FF47F0203EBC30303EB0313019273
:1015A8001B111A220E98009228330E2228210EF0C1
:1015B8009FFAEA88A9880E982A3AC83902EBD272AB
:1015C80001EBD171491052100EF060FE0E98012106
:1015D8000EF08CFA0C9800210EF088FA1098002171
:1015E8000EF084FA474B059A1A60454B1B68119315
:1015F800BFE610F0080137D0424A00231360404B81
:101608001B680B93B5E6C2077FF5B3AE404A137863
:10161800002BE7D0591EC9B2117000295BD0053BD9
:10162800052B56D909298CBF4FF47F434FF47F030C
:1016380001EBC10101EB011101931A220B110E9864
:10164800009228330E2228210EF052FAEA88A9883F
:101658000E982A3AC83902EBD27201EBD1715210B6
:1016680049100EF013FEB5E7C30708D50D9B53BB11
:1016780000230D93C3E743073FF57FAE78E7820762
:101688000CD50D9B002B32D001230D93B7E74FF4F7
:101698008033CAF8003070E61C4A7CE710F0300F3F
:1016A800ADD00D9B002B3BD11A4A1B491378012B57
:1016B8001A4B0DF1C9000ABF194601230323137001
:1016C8000EF0A8FED4E70F986FF00C020EF0DEFDC6
:1016D800CEE70E4BACE70E980EF008FA0C980121F5
:1016E8000EF004FA109801210EF000FA7AE70F982C
:1016F80019460D220EF0CAFDC6E700BF41564958EB
:10170800A00300203801002083DE1B4300FFFF00F8
:101718000000002001000020BC0F0108C80F0108CC
:10172800414B1968414B99424CD0A820404B9A68CC
:1017380022F0030242F001029A609A6802F00C0259
:10174800042AFAD11A6822F080721A60D3F804C009
:10175800384A0CEA020242EA801242F4800242F05D
:1017680019025A605A6822F440325A601A6842F0E4
:1017780080721A602E4A13689B01FCD5936823F087
:10178800030343F002039360294A936803F00C03B0
:10179800082BFAD1284B994222D0234A27491360B3
:1017A8004FF0E023264A5961F02182F823100022E5
:1017B8009A6107221A610DF203110A2278200FF0AC
:1017C8005FFA61E71F4A136823F0070343F0030336
:1017D8001360136803F00703032BFAD1F020A5E781
:1017E800184A136823F0070343F0020313601368D1
:1017F80003F00703022BFAD10B480C4901604FF0A4
:10180800E0230F4A10495961F02182F82310002281
:101818009A6107221A6141A920230A2254208DF8CF
:1018280003310FF02DFA2FE70400002000BD010559
:10183800003802400080BFFF000E2707BFD4010018
:1018480000ED00E0003C02401F4801002DE9F04F88
:101858008388C688963B95B0054603EBD3735B1027
:101868000321002006930EF0D9F8EB88013B009382
:10187800AB880024013B22462146019481460EF0A4
:1018880037F920460EF07AF8AA4A079083460123D2
:1018980021460EF08FF801234FF47F025846642149
:1018A8000EF088F8584621460EF0B6F80121484651
:1018B8000EF0B4F84FF02D081E2322460746CDF847
:1018C8000880CDF8008001930F21234603940EF081
:1018D80025F9594638460EF005F9012148460EF01B
:1018E8009DF8232322468246CDE9028401931421E0
:1018F800322300940EF012F9594650460EF0F2F8D1
:10190800032148460EF08AF822464123CDF800808C
:101918003721804601940EF0EBF8594640460EF008
:10192800E1F8854B08930521484609948DF828402D
:101938000EF074F816231A4680465C2100940EF0C7
:101948001FF9404608A90EF0CBF8012148460EF0D1
:1019580065F8962216217823CDE901212D3E25220E
:1019680019468046009206EBD676072203940EF0BD
:10197800D5F8761059464046DFF8C881DFF8C8A187
:101988000EF0B0F83246069938460EF0B9FCB8E8C1
:101998000F000DF13C0EAEE80F00D8F800308EF8BD
:1019A80000309AE80F000DF12C0CACE807002CF879
:1019B800023B06211B0C48468CF800300EF02EF82E
:1019C8006FF07F43CDE901435C4B00930DF13C0C74
:1019D8006346A6F10D02A98805900EF0D9F80621F4
:1019E80048460EF01BF883460BA80EF03FFD8246D2
:1019F8000FA80EF03BFD80460BA80EF037FDA8EBB4
:101A080000084FEAC8084D4B00936FF07F424FEA39
:101A18005808CAEB4A7A0292C8EBCA0106F12D02AD
:101A28000BAB584601940EF0B3F8454AAB88C2F8A0
:101A38000090069A0FA89E1A0EF018FDC000C0F17B
:101A48009600A6EB5003A34270DD03F1FF384FEA7E
:101A5800980808F1010808EB8808DFF8F0A04FEAB9
:101A68004808FF2601E0A04533D0E1B248460EF011
:101A78003BF8F1B238460EF085FC059800226FF06D
:101A880003010EF003FC0022042158460EF0FEFB71
:101A9800E888AB88009000224FF0010CCDE901AC3A
:101AA8001146284605F03EFA083E0A3426EAE6764C
:101AB80078B9099B0833B3F5B47FA8BF4FF4B47362
:101AC800FF2C0993CFDD014648460EF00FF8A045DC
:101AD800CBD14FF4FA6002F0EDFB0024012608E0B8
:101AE8000EF00EFCE1B238460EF04CFCB4F5877FE0
:101AF80010D0E888AB88009000221146CDE901A6F5
:101B0800284605F00FFA01460F346FF003023846F5
:101B18000029E5D007980DF03BFF48460DF0B6FFC9
:101B2800074A0023136015B0BDE8F08FDFF81CA04A
:101B3800CFE700BF00FFFF00B41B0108080000202A
:101B480038010020081001081C1001082C10010899
:101B58002DE9F043D0F88430DFF8449189B00022B1
:101B6800D3E9004605460392D4F814C0E7686745F0
:101B780003AB4FF0080206A920463ED903F0A6FBA6
:101B880000283AD1039B082B37D1079BD4F814C0FF
:101B980013F0010F1A4634D05A1C069B04924B4589
:101BA80035D0BDF81A3046F277218B4203D044F283
:101BB80057218B424ED140F294739A421DDC06F1B4
:101BC800240803AB4146204603F080FB0346A0B936
:101BD800DDE90312914210D130680093EA6EAB6ED2
:101BE800CDF8148003EB820305A904AA0BF020FFAB
:101BF800002837D003300128B6D9012009B0BDE844
:101C0800F0830493002BB1D0069B4B45C9D103AB9D
:101C1800102206F12401204603F058FB0028ECD1DD
:101C2800039B102BE9D11D4B726A9A42E5D103F14F
:101C38007C43B26A03F51F2303F20B339A42DCD1CB
:101C480003F1A953326B03F5493303F221239A4276
:101C5800D3D189E702EB0C01204603F0FDFB0028F5
:101C680082D0CAE7AB68012BC8D16A69E96EAB6E4E
:101C7800002A03EB8105C1DD541E05EB840405EB46
:101C8800420232F8021D002361F30F0361F31F4380
:101C9800AA4244F80439F4D1B0E700BF4156495884
:101CA80052494646F0B5D0F88430DFF818C11C68B0
:101CB8005B6865691D628FB0002206460192BCE828
:101CC8000F0004AF0FC75CF8043B3B80BCE80F0073
:101CD8000DF1240EAEE80F00DCF80030AEF800304D
:101CE800E368AB4223D9082201AB0DEB0201204681
:101CF80003F0ECFAD8B9019B082B18D10399656950
:101D0800CB0717D50131EBD0BDF80A3046F2772260
:101D1800934217D044F25722934213D029442046C5
:101D280003F09AFB18B96569E368AB42DBD8012078
:101D38000FB0F0BD0029D3D0BDF80A3046F27722A3
:101D48009342E7D140F294739942F0DC01AB04224C
:101D58006946204603F0BAFA0028E8D1019B042B13
:101D6800E5D19DF8013013F0180F4FEAD3021CBFDC
:101D7800D24302F001019DF80220C2F3810208BF9C
:101D88000221C3F34103032AC3F10403CFD0032B79
:101D9800CDD19DF8034001EB41018B18A2090EAC8F
:101DA80004EB410104EB4303032A33F8283C31F8E0
:101DB800102C726114BF022101211022C6E90323ED
:101DC800B160B5E7B40E0108D0F8843070B5D3E936
:101DD800006504460BF026FE286020B1296A3046CB
:101DE80003F03AFB08B1012070BD2046FFF7B0FEB2
:101DF800003818BF012070BDD0F8843010B51C68B9
:101E0800FFF7A6FE30B1E3686069013B98422CBF3A
:101E18000120022010BD00BFD0F8843010B5D3E9EE
:101E2800000403F001FB20680BF0FEFD002010BD4C
:101E3800A02101200EF0D2BD80B3D0F8843010B5B7
:101E48000446586808B10EF0EDFDA06E08B10EF01A
:101E5800E9FD206808B10EF0E5FDA06908B10EF0B3
:101E6800E1FDE06908B10EF0DDFD206A08B10EF071
:101E7800D9FD606A08B10EF0D5FDE06A08B10EF030
:101E8800D1FDA06A08B10EF0CDFD206B08B10EF0AF
:101E9800C9FD2046BDE810400EF0C4BD704700BF24
:101EA800A0B199B192B18BB110B4019C84B14FF03B
:101EB800000C8367029BC467C0E91C12C0F8843019
:101EC80080F880C060465DF8044B70470120704779
:101ED8000120F8E70221026F80F88010104700BF48
:101EE80010B504464069042140000EF077FD08B3A0
:101EF8000022A066636FE26620469847D0B96269FF
:101F0800A36FE26620469847A0B99FED0B7B032399
:101F180084F880300A49636984F888002269C4F823
:101F28009C0001FB03F384ED247BB3FBF2F3C4F8BC
:101F3800983010BD012010BD000000000000000016
:101F480040420F00042310B580F88030C36E044669
:101F580043B94269A36FE26620469847002384F894
:101F6800883010BD0022F5E70521C26F80F8801087
:101F7800104700BF2DE9F04F87B00C4600230C2214
:101F8800054602930DEB020102AB204603F09EF9D1
:101F980078B9029B0C2B0CD103F18C43039A03F103
:101FA800461303F592439A4207D0012007B0BDE8D3
:101FB800F08F022007B0BDE8F08F754B059A9A4262
:101FC800F3D185F8AC00E26863699A42F2D9714F9F
:101FD800714EDFF8D891DFF8D881DFF8D8A10190E9
:101FE80015E0B34207D1059B4B4500F09680434569
:101FF80035D0534527D004990439636920461944DC
:1020080003F02AFA6269E3689A4280F0BE800C22E3
:1020180002AB0DEB0201204603F058F90028C8D1A5
:10202800029B0C2BC5D1039BBB42DAD1049963698F
:10203800C5F8EC1004391944043BC5F8E8302046CB
:1020480003F00AFADEE704996369C5F8F410043965
:10205800C5F8F0301944204603F0FEF9D2E795F8A8
:10206800AC10049BD5F8A80000930131C9B285F8DB
:10207800AC10C1EBC101C9000EF08AFD02ABC5F876
:10208800A800082203A9204603F020F9002890D1CF
:10209800029B082B8DD1414B039A9A4285D195F822
:1020A800AC30D5F8A8106FF03700382212FB0303C4
:1020B8001944204602AB03F009F900287FF479AFF0
:1020C800DDF808B0BBF1380F7FF473AF02AB08221C
:1020D80003A9204603F0FAF800287FF46AAF029BB0
:1020E800082B7FF466AF2E4B039A9A427FF45DAFBC
:1020F80095F8AC206FF037031BFB023BD5F8A830EE
:10210800284A53F80B3093421BD002F6EB32934225
:1021180029D0009BA3F14C016FE702AB402205F1E7
:102128006801204603F0D2F800287FF442AF029BF2
:10213800402B7FF43EAF1C4BAA6E9A423FF462AF2D
:1021480033E702AB282205F1AD01204603F0BEF8C3
:1021580000287FF42EAF029B282B7FF42AAF009B28
:10216800A3F1740149E702AB102205F1D50120461D
:1021780003F0ACF800287FF41CAF029B102B7FF40F
:1021880018AF009BA3F15C0137E7019812E700BF85
:1021980041564920696478314C49535473747268C4
:1021A8007374726676696473617669686864726C60
:1021B8007374726C6D6F76691AB140F8041B013A3A
:1021C800FBD170472E4A136823F0070343F002033C
:1021D80010B51360136803F00703022BFAD12949DD
:1021E800294B0A6822F4404242F400420A601A6805
:1021F80042F480321A601A689003FCD51A682349A1
:1022080042F400221A605868214A01400A435A6081
:1022180059681D4A21F440315960196841F08071AC
:10222800196013689901FCD5164A53685B04FCD5FC
:10223800154CA36823F0F003A360A36823F4E053CC
:1022480043F48053A360A36823F46043A360A368A6
:1022580023F0030343F00203A360A36803F00C0315
:10226800082BFAD10B4802F015F80A4802F034F8A6
:10227800D4F88C3023F08073C4F88C3010BD00BFC4
:10228800003C024000700040003802400080BFFF60
:10229800192A400000BD0105C949CA4B0A6842F421
:1022A800E0622DE9F04F0A605A6CC74C42F4804254
:1022B8005A64596CC44AD3B001F480411191119900
:1022C800196C41F0805119641B6C03F08053109312
:1022D800109BD168BD4B4FF6FF0001400B43D36004
:1022E800D368C3F30223C3F107011A1D042928BFC9
:1022F8000421062A88BFDA1E4FF0FF3303FA01F3E0
:1023080098BF0022DB4393401B01DBB284F82330E3
:10231800FFF758FFAE4BAF4A1B68A2FB03239B098C
:10232800013BB3F1807F09D24FF0E022F0205361E6
:102338000021072384F82300916113610025CDE96A
:102348002B55CDE93755CDE939559E4BA24F1A6B20
:10235800DFF89492A14842F004021A631A6B02F063
:1023680004021A921A9A1A6B42F080021A631A6BC4
:1023780002F080021B921B9A1A6B42F001021A6348
:102388001A6B02F001021C921C9A1A6B42F00202AC
:102398001A631B6B03F002031D931D9A4FF400533D
:1023A8001C2241F202060124836135A9BA61C9F8E9
:1023B80018604FF002083593369401F0F7FC35A900
:1023C8000C2338463593CDE938553694CDF8DC8062
:1023D80001F0ECFC102335A938463593CDE9364891
:1023E800CDE9385401F0E2FC35A94846CDE9356419
:1023F800CDE93785399401F0D9FC794A93680F21E2
:1024080023F00F0391FAA1F193609368F02123F070
:10241800F00391FAA1F1936011694FF4706393FA94
:10242800A3F3B3FA83F321F4706104FA03F30B43C3
:10243800136103262BA82B94ADF8B0408DF8B26039
:1024480001F05CFC2BA8CDF8AC80ADF8B0408DF85D
:10245800B2604FF4806A01F051FC2BA8ADF8B0408F
:102468008DF8B260CDF8ACA001F048FCF96894FA98
:10247800A4F2B2FA82F294FAA4F3A240B3FA83F374
:1024880006FA02F2A34021EA020204FA03F3134314
:10249800FB60F96898FAA8F2B2FA82F298FAA8F3FF
:1024A800A240B3FA83F306FA02F2A34021EA020239
:1024B80004FA03F31343FB60D9F80C109AFAAAF252
:1024C800B2FA82F29AFAAAF3A240B3FA83F306FAAE
:1024D80002F2A34021EA020204FA03F31343C9F803
:1024E8000C303A6894FAA4F3B3FA83F3A34006FADB
:1024F80003F322EA030394FAA4F43B603A6898FAD7
:10250800A8F3B3FA83F35B0006FA03F322EA0303A2
:1025180098FAA8F83B60D9F800209AFAAAF3B3FA17
:1025280083F35B009E4022EA06029AFAAAFA264B37
:10253800C9F80020DB68DFF8B480C3F30223C3F1D5
:102548000702042A03F1040128BF0422062988BFD0
:10255800DD1E4FF0FF339340DB4303F00103AB4034
:10256800204A1949174D1B01DBB2402082F8063377
:102578001060CB68C3F30223C3F107011A1D0429B5
:1025880028BF0421062A88BFDA1E4FF0FF3303FA5A
:1025980001F36FEA030398BF002203F0010393409D
:1025A8001B01104A0849DBB2802082F8073310600B
:1025B800CB68C3F30223C3F107011A1D042917E0EE
:1025C800003C02400038024000ED00E00003FA053C
:1025D80004000020D34D62100000024000080240B1
:1025E8000038014000E100E00004024000380040EB
:1025F80028BF0421062A88BFDA1E4FF0FF3303FAEA
:1026080001F36FEA030398BF002203F0010393402C
:10261800BA49BB4A1B01DBB24FF4807081F82833FA
:102628004860136B43F400131363136B03F4001334
:102638001893189B136B43F480031363136B03F411
:1026480080031993199BD1F80C3CC3F30223C3F1FF
:1026580007011A1D042928BF0421062A88BFDA1E8B
:102668004FF0FF3303FA01F36FEA030398BF002228
:1026780003F0020393401B01A04AA249DBB24FF4C6
:10268800804082F80E331060CB68C3F30223C3F195
:1026980007011A1D042928BF0421062A88BFDA1E4B
:1026A8004FF0FF3303FA01F36FEA030398BF0022E8
:1026B80003F0020393401B01904A9249DBB24FF4A6
:1026C800004082F80F331060CB68C3F30223C3F1D4
:1026D80007011A1D042928BF0421062A88BFDA1E0B
:1026E8004FF0FF3303FA01F36FEA030398BF0022A8
:1026F80003F0030393401B01804ADBB24FF00061F3
:10270800002482F83B3335A85160282200210EF0BE
:10271800D3FA2E942B6C7C4843F480432B642B6CA7
:1027280003F480431693169B2B6B43F002032B6331
:102738002B6B03F00203032717934FF0010A4FF4A2
:1027480060434FF0020905262BA9179A2B93309660
:10275800CDE92C97CDF8BCA001F028FB6B4B9A6D06
:1027680022F060629A659A6D22F0C0029A659A6DAD
:1027780022F4403242F480329A659A6D22F49072C3
:102788009A659A6D22F400729A659A6D42F4806295
:102798009A659A6D22F4C0529A659A6D22F4C042E5
:1027A8009A65DA6E42F00402DA66DA6E3A43DA665D
:1027B8009A6D22F0C07242F080729A659A6D22F486
:1027C800C0029A651A6F22F060621A671A6F22F0C7
:1027D800C00242F040021A671A6F22F4403242F4F3
:1027E80080321A671A6F22F490721A671A6F22F4ED
:1027F80000721A671A6F42F480621A671A6F22F41D
:10280800C0521A671A6F22F4C0421A67D3F884209C
:1028180042F00402C3F88420D3F884203A43C3F872
:1028280084201A6F22F0C07242F080721A671A6F01
:1028380022F4C0021A674FF4827336934FF4007B78
:102848000A2335A9302240463E933B92CDE93744CE
:10285800CDE93C4435943994CDF8E8B001F078FBE3
:10286800D8F8042022F01002C8F8042021462822B3
:1028780035A80EF021FACDE92E446A6C42F4805254
:102888006A646A6C02F480521492149A2A6B42EABF
:102898000A022A632A6B309602EA0A021C4E159233
:1028A800159A2BA9A02230462B92CDE92C9701F03E
:1028B8007DFA184A916D21F0606141F0C06191651F
:1028C800916D21F0C00141F040019165916D21F4B5
:1028D80040319165916D21F490719165916D21F46C
:1028E80000719165916D41F480619165916D21F45C
:1028F800C05141F400619165916D0DE000E100E087
:102908000038024000ED00E0000402400060024090
:10291800000002400064024021F4C04141F400512B
:102928009165D16E41F00401D166D16E3943D1660B
:10293800916D21F0C07141F080719165916D4FF4F6
:10294800827321F4C001916508F5784836934FF4F5
:102958000063379335A90A234046CDE93844CDE9C9
:102968003B44CDF8E8B035943D943E9301F0F0FA3D
:10297800D8F8043023F01003C8F80430F168202296
:1029880092FAA2F3B3FA83F303FA0AF307FA03F30A
:1029980021EA030392FAA2F1F360F068802191FA28
:1029A800A1F3B3FA83F303FA0AF39F4020EA07007E
:1029B80091FAA1F1F060D8F80030A54F23F0020396
:1029C800C8F80030214635A8ADF89A40CDF88A40BD
:1029D800CDF88E40CDF89240CDF896400EF06CF9C7
:1029E800CDE92B44CDE92D44CDE92F442B6C43EAA6
:1029F80009032B642B6C03EA09031293129B40F220
:102A0800E73322A9ADF888303846D123249301F062
:102A180027FB3B684FF0804823F080033B60D8F8E1
:102A2800183443F00803C8F81834602335AA51460F
:102A38003593384669233893CDE93644399401F003
:102A480057FBD8F8183423F00403C8F818347B6807
:102A580023F070037B60BB6823F08003BB602B6BA3
:102A680043EA0A032B632B6BCDF8B09003EA0A0301
:102A78001393139BCDF8C09040232BA930462B937A
:102A8800CDE92D442F9401F091F90DF079FD714AAB
:102A9800D2F8FC3013F080730CD1D2F8FC1041F05E
:102AA8008071C2F8FC10A2F55D425360136843EAD6
:102AB8000A031360684B229303F59A332393082380
:102AC800ADF89830654FDFF8C8A1CDF894A004237D
:102AD800ADF8A0301023ADF8A83097E80F004FF0FC
:102AE800030B1EAC0BAD84E80F00CDF89CA0CDF80D
:102AF800A4A0CDF890B085E80F00594B0893594B26
:102B08000793594B0693594B059322AB099302231C
:102B18004FF4A07C4FF000080A930123CDE901C8C7
:102B2800CDE903834FF0F00E514CCDF800E062463A
:102B3800734635A920684F4EDFF8589100F0EAFA3D
:102B48000546206000F0CEFB3146284600F01EFC0A
:102B580007F1100442464849484802F049FB0FCCA7
:102B68002BAF0FC70FCC0FC794E8030087E803000B
:102B780004F084F82946836B04469847EA88AB88B2
:102B88000092E76B424641462046B847236C2BA982
:102B980020469847636C3A49204698475B46414629
:102BA8002046A76C0122B84702230093354B3649CB
:102BB80083F800B04FF480630122CDE90113334854
:102BC8005346514601F08EFB4146304801F036FC31
:102BD8002846FEF73BFE3146284600F0D7FB052184
:102BE800204604F08DF815E0A36D20469847E36D64
:102BF800824620469847EB880293AB880146CDE988
:102C080000732A463B465046FEF794F8314628465C
:102C180000F0BCFB236D20469847636D204698471B
:102C280007460028E0D0E368CDF80C80DA68029205
:102C38005B6801932369009300224B4614212846C0
:102C480000F05AFE05F0E6FD0028FBD0DEE700BFE5
:102C58000004004000ED00E000300140DC0E0108F7
:102C6800FD3C0008F53C0008AD3C0008913C00081C
:102C7800A8030020B19B31009C03002070010020B4
:102C8800080000209C34002000040240400100207D
:102C98000000024044380108FEE700BFFEE700BF1D
:102CA800FEE700BFFEE700BFFEE700BF704700BFBA
:102CB800704700BF704700BF024A136801331360B2
:102CC800704700BFA0030020324A10B5546914F0C1
:102CD800010400D110BD01212F48516101F014FBFE
:102CE80001381F28F6D801A353F820F0972D0008C3
:102CF800772D0008DD2C00088F2D0008DD2C00083A
:102D0800DD2C0008DD2C0008932D0008DD2C0008C0
:102D1800DD2C0008DD2C0008DD2C0008DD2C000867
:102D2800DD2C0008DD2C0008752D0008DD2C0008BE
:102D3800DD2C0008DD2C0008DD2C0008DD2C000847
:102D4800DD2C0008DD2C0008DD2C0008DD2C000837
:102D5800DD2C0008DD2C0008DD2C0008DD2C000827
:102D6800DD2C0008DD2C00088B2D000810240B4AF0
:102D78001378132BAED80A48591C40F82340117019
:102D880010BD2024F3E70824F1E70424EFE7022428
:102D9800EDE700BF003C0140400100209D340020C9
:102DA800A03400201A4B5A69920700D470470221B8
:102DB80010B51848596101F0A7FA01381F281BD827
:102DC800DFE800F023211A1B1A1A1A1D1A1A1A1AF8
:102DD8001A1A1A1F1A1A1A1A1A1A1A1A1A1A1A1A46
:102DE8001A1A1A1020210C4A1378132B04D80B4CEA
:102DF800581C44F82310107010BD0821F3E7042173
:102E0800F1E71021EFE70121EDE70221EBE700BF31
:102E1800003C0140400100209D340020A0340020E7
:102E2800704700BF704700BF1B4B5A69520500D45A
:102E380070474FF4806210B518485A61032101F0B9
:102E480063FA01381F281BD8DFE800F023211A1B7A
:102E58001A1A1A1D1A1A1A1A1A1A1A1F1A1A1A1AC2
:102E68001A1A1A1A1A1A1A1A1A1A1A1020210C4A95
:102E78001378132B04D80B4C581C44F823101070EB
:102E880010BD0821F3E70421F1E71021EFE7012144
:102E9800EDE70221EBE700BF003C014040010020C4
:102EA8009D340020A03400200148032100F0A4BE76
:102EB80000640240F8B52A4C636859051BD463685E
:102EC8001B0506D4264B4FF47C62DA60BFF34F8FA4
:102ED800F8BD244D28680028F4D0FFF733F880BBEC
:102EE8002B68D3E92401D3E92626841846EB01058B
:102EF800C3E92445E6E71B4D2868F8B1FFF722F837
:102F080078B92868D0E92423D0F898105618D0F852
:102F18009C1041EB0307C0E9246763681A05D1D503
:102F2800DBE70522214610480DF090FC2868FFF7E2
:102F38001BF82868FEF780FF00232B60084B5B68AE
:102F4800C0E70749084805220DF080FC2868FFF70C
:102F58000BF82868FEF770FF00232B60B2E700BF6C
:102F6800006002403C010020003C00400C490D4A32
:102F78000B6810B50C4C121B2BB11844904207D8A3
:102F88000860184610BD094B0B6018449042F7D9E9
:102F98000DF0C0FE0C2303604FF0FF33184610BD40
:102FA800A40300200000012000040000383600209F
:102FB800034AD2F8883043F47003C2F88830704767
:102FC80000ED00E0DFF834D00D480E490E4A00232A
:102FD80002E0D458C4500433C4188C42F9D30B4AC5
:102FE8000B4C002301E013600432A242FBD3FFF72D
:102FF800DFFF0DF095FEFFF74FF970470000012045
:10300800000000201C0100204C8D01081C0100203C
:1030180038360020FEE70000036C13B1B0F84420F6
:103028009A617047026C1AB1B0F844301B0493617E
:10303800704700BF836B828F9A617047F8B5456A05
:1030480004462B685F06FCD494F865302BB9236CD2
:103058001BB1B4F8442012049A612B6823F42C4362
:103068002B602B6843F040032B600B78012B34D086
:10307800022B47D063B194F8653023B9236C13B1A0
:10308800B4F844209A612B6823F040032B60F8BD04
:10309800A28F636AA66B48781204B26118739A68A3
:1030A8009607FCD59A681006FCD48B78C81C002BB0
:1030B8002ED003331944636AA66B10F8012BA78F2F
:1030C800B7611A739A689207FCD59A681706FCD4F8
:1030D8008142F0D10B78012BCAD14B78881CBBB147
:1030E80002331944636AA76B10F8012BA68FBE61DF
:1030F8001A739A689607FCD59A681206FCD481421E
:10310800F0D1B2E748788E1C01F0D4F83146ACE72C
:103118000146AAE72DE9F04F83B0CDE90023BDF8B9
:103128003080BDF83490BDF93870BDF93C609DF829
:1031380040A09DF858B0002900F0B9800C467422D0
:103148000021054620460DF0B7FDDDF854C084F88F
:1031580048B0BCE80F0004F1240EAEE80F00BCE84C
:103168000F00AEE80F00DCF80030CEF80030A26A9D
:10317800002A35D0E36A5A49C95C535823F0010341
:10318800535050180368DB07FCD4BBF1010F0BD078
:10319800BBF1020F0ED1535823F4F0435350535848
:1031A80043F42053535005E0535823F4F04353504D
:1031B80053585350535823F4802323F00E0353508D
:1031C800436923F080034361535843F0100353507D
:1031D800535823F400735350535843F480635350A7
:1031E800019B009A9342194638BF1146934228BF63
:1031F80013461A46BAF1000F3FD10023184662F36E
:103208000F0068F30F0369F31F4361F31F40424542
:103218006781A6812360606044D8494542D8119BE4
:10322800002B3FD0129B002B3CD0119A6261129A5E
:10323800A261139AE26117AB149A22620FCB00279E
:1032480004F14C0684F808A086E80F00C4E91B774F
:1032580084F864706DB12B6F4BB101221D461B6F52
:10326800511C1046CAB2002BF8D184F86400E566F8
:103278002C67204603B0BDE8F08FBAF1020F1AD0D0
:10328800BAF1010F20D0BAF1030F0BD1A9EB060355
:103298005B1A944640463E460A46C8461FB26146F7
:1032A8008146AAE77422002120460DF005FD002082
:1032B80003B0BDE8F08FA8EB0707A9EB0606FF1AD5
:1032C800761A3FB236B298E7A8EB07039B1A9446E2
:1032D800404637460A46C8461EB2614681468CE7D4
:1032E80058380108036B10B504465BB1828E12048E
:1032F8009A61192000F0DEFF236BA28E9A611920D3
:1033080000F0D8FF6369207A984701462046FFF706
:1033180095FE94F85A10E26C64290B4628BF642382
:1033280084F85A300AB3D16A174801FB03F3216DB8
:10333800A0FB0303B1F5807F4FEA531322D00FD8C7
:1033480001291AD0102908BF93631368DB0706D434
:10335800136A19431162136843F00103136010BD27
:10336800B1F5805FF1D11364EFE7636D002BF6D000
:10337800B4F8582019B19A6110BD5363E5E71204F7
:103388009A61F9E7D363E0E71F85EB5110B5C4886C
:103398008388013C82B00022A4B2013BCDE9004100
:1033A8009BB2114600F0B9FB02B010BD2DE9F04FF9
:1033B8009B4689B05945BDF94840139B81469246C2
:1033C80045D0A2422DD0A61AABEB0107002EB8BFFC
:1033D8007642002FB8BF7F42BE422046DC460D46EB
:1033E80049DD58460A46A34651466446AA46B846A9
:1033F800594532DD121AA1EB0B0082EAE278C0F3DC
:10340800C03505FA80F5A8EBE278A2455A4680B2A5
:103418008B464FEA6505A24611462EDD4FF0010C9A
:103428002FE0594502DD0A4659469346BBF1000F85
:103438000ADBB9F804208A4206DDBAF1000F03DB83
:10344800B9F80620A24277DC09B0BDE8F08FA242A5
:10345800ECDC224654469246E8E7ABEB0100C0F3A9
:10346800C03505FA80F5A24580B24FEA650560DBF4
:103478004FF6FF7C05E0B046BAE74FF6FF7C8B4578
:10348800E2DBCDE9030C1FFA88F805933CE09A4586
:1034980029DAB9F806308B4225DD4AEA01010A0427
:1034A80021D41FFA8AF3009419462246484600F0B0
:1034B80057FA0599294AC1F3C40302EA11221343B2
:1034C8004A0902F4F862134399F84820012A9BB28A
:1034D80001D15BBA9BB201220DF11E014846ADF83D
:1034E8001E3000F09FFAA5EB08031DB2002D9BB219
:1034F80006DA049A9244039A13440FFA8AFA1DB220
:10350800013421B28B459FDBBE42B9F804308CB23E
:10351800BDDC9942E7DAB9F806305345E3DD4AEAFB
:1035280001010B04DFD41FFA8AF2009223462146D8
:10353800BCE74FF0010CA2E7139324EAE4721FFAE8
:103548008AF321EAE171129392B21FFA8BF389B2DE
:10355800484609B0BDE8F04F00F0DFBA00F8FFFFB9
:103568002DE9F04383B00446DDF82C90BDF928809E
:1035780000920E461546CDF804901F46FFF716FF39
:1035880033462A4631462046CDE90089FFF70EFF2B
:1035980031463B4642462046CDE90089FFF706FF03
:1035A8003B462A4639462046CDE90A8903B0BDE89C
:1035B800F043FFF7FBBE00BF30B49942BDF908C025
:1035C800039D02DD0C4619462346624502DD14467A
:1035D8006246A446002B08DB84888C4205DDBCF1DA
:1035E800000F02DBC488944201DC30BC70471FFA2C
:1035F8008CF422EAE27221EAE171039502949BB20B
:1036080030BC92B289B200F088BA00BF2DE9F04F01
:103618008BB0B24C02919046159ADDF850909DF807
:103628005CC004EA1224C2F3C4015209214302F423
:10363800F8620A4390F84810D9F8044001291FFAA3
:1036480082FE169A00F02A817746A44EC2F3C4057A
:1036580006EA12265209354302F4F8621543012995
:10366800ADB201D16DBAADB299F808209A4204D82A
:1036780099F80910994280F00E81002399F80010FA
:103688004A1ED21002F1010BBBF1040F039200F3A2
:10369800A48099F801200BFB03F302FB034A4FEACD
:1036A800CB03013B0126446A9E40BCF1000F18D0B1
:1036B800002A00F092809EFA9EF300279BB2CDF874
:1036C80050900693CDF810B0CDF81CE0B946039A97
:1036D800032A00F28780DFE812F0D000CD00D30083
:1036E800830008F1FF3313449BB20093029B013B14
:1036F8000B444246029902909BB200F031F90298BD
:10370800026C1AB1B0F844301B049361836B818F4B
:103718009961236823F040032360236823F42C4332
:10372800236090F84830022B00F0BC80236843F0F7
:103738004003236099F80130002B40D099F800E04D
:103748004FF0000CBBF1010F00F0C280BBF1020F7B
:1037580000F0C180BBF1030F00F0C280DAF800105E
:10376800DA44BEF1000F25D0002201FA02F33342F9
:103778000CBFAE46BE46A3689B07FCD590F8483000
:10378800022B40F09480C4F80CE099F800E0013274
:1037980096450DDD01FA02F3334214BFB846A84638
:1037A800A3689B07FCD501329645C4F80C80F1DC70
:1037B80099F801300CF1010C6345C3DC026CA36875
:1037C8009907FCD5A3681B06FCD4236823F04003A3
:1037D800236012B1B0F8443093610BB0BDE8F08FAC
:1037E800DAF80070049B9A440029F6D0029C002560
:1037F8000FFA88FB03E00134A942A4B22FDD07FACF
:1038080005F3334205F10105F5D0828823B29A42C7
:1038180048EA040CEFDDC3885B45ECDD1CF4004F7F
:103828002346E8D121464246CDF80080059000F0B5
:1038380097F8059890F84830012BDDE906230DF13B
:10384800260108BF13460122ADF8263000F0EAF839
:10385800149B059819780134A942A4B2CFDC149BB3
:103868005B7809F101094B45B7DD08F101081FFA3A
:1038780088F82CE7BAF80070B4E79AF80070B1E756
:103888009AF802709AF801303F0447EA03279AF839
:1038980000301F43A6E79B1ADBB2EFE69EFA9EF7BD
:1038A800BFB2D2E6236843F4006323603EE75FFAC1
:1038B8008EF32373CEF3072EA3689B07FCD584F8F9
:1038C8000CE099F800E0013296453FF74EAF6FE7FC
:1038D8009AF8001044E7BAF8001041E700F8FFFF33
:1038E8009AF802109AF80120090441EA02219AF88C
:1038F8000020114334E700BF2DE9F04F1F4685B083
:103908001B780E9E9DF844A0DDE90F8905460C46FC
:103918009346F3B13178AA8821449142284609DDBB
:103928007278E98893441FFA8BFB5A448A424FF015
:1039380000040EDC2146CDE9029ACDE900685A461A
:10394800FFF764FE317817F8013F0C44A4B2002B4E
:10395800E1D1EC81A5F810B005B0BDE8F08F00BF4B
:1039680030B52C25B0F80CE0BDF80C407444724416
:1039780034B42B25B0F80AE003EB0E0401EB0E0378
:103988002A223CB4D0F824E0036C846BB0F844508D
:10399800B0F83CC0DEF80000010010F04000F9D19A
:1039A80021F42C4141F04001CEF8001013B14FEA48
:1039B800054098614FEA0C40A06101BC8EF80C00EC
:1039C800DEF8081011F00201FAD0DEF8081011F044
:1039D8008001FAD12C281AD0C4F818C0022201BCE0
:1039E8004FEA10218EF80C10DEF8081011F00201D1
:1039F800FAD08EF80C00DEF808108900FBD0013AE6
:103A0800EDD1DEF8081011F08001FAD1D2E703B148
:103A18009D61DEF8000020F0400040F40060CEF820
:103A2800000030BD30B56D40D0F824E0DEF800303D
:103A38009C4613F04003F9D14CF0400CCEF800C07E
:103A4800036C23B1B0F844C04FEA0C449C61846B0A
:103A5800808FA0610888CEF80C002D4305B902318B
:103A6800DEF8080010F00200FAD0013AF2D1DEF8D0
:103A7800080010F08000FAD10BB1C3F818C0DEF8C6
:103A8800000020F04000CEF8000030BDD0F828C07B
:103A98005CEA0C0C3FF4C6AF30B56D40D0F824E0BA
:103AA800DEF800301C0013F040037FF4BFAF44F091
:103AB8004004CEF80040DEF8044044F00204CEF89A
:103AC8000440036C1BB1B0F8444024049C61836B30
:103AD800848F9C6100F16004C06A182300FB03CC4A
:103AE8000CF110004FF6FF739A42CEBFD21A13465C
:103AF8000022226043600EF10C0EC0F808E0C1609D
:103B080001682D430CBF41F4806121F4806141F0CC
:103B1800010121F40071016030BD30B59942C2BF86
:103B28008E4619467346BDF80C40A242C2BF96465F
:103B380022467446B0F804E0AEF1010E714531DC5E
:103B4800B0F806C0ACF1010C62452BDC7345C8BF68
:103B580073466445C8BF644682B000945D1A05F197
:103B68000105A41A05FB04550400FFF7F9FE02B08D
:103B78000498C0F3C401C0F3852241EA4211C0F39E
:103B8800C44241EAC221A4F86810200000F168018B
:103B98002A000125D0F828C05CEA0C0C3FF444AF99
:103BA800FFF77CBF30BD30B5B0F804E0714521D2D5
:103BB80001EB030CF4451DD8B0F806E0724519D2A4
:103BC800039C1519754515D804FB03F4013D82B013
:103BD8000095ACF101030500FFF7C2FE02B0280012
:103BE80004992200059BBDE830401B433FF41AAFFF
:103BF800FFF74CBF30BD000000B50B00032BC6BF5C
:103C0800043B4FF00C0E4FF0080E0FF2740C1CF82A
:103C180003C03F2202FA0CF240F80E20182201FBE2
:103C2800020000F11000016821F001010160016843
:103C380011F00101FBD1134B1B681A6E6AB14FF6E4
:103C4800FF718A42CEBF521A1146002241601A669D
:103C5800016841F00101016000BD586A416821F026
:103C680002014160816811F08001FBD11A6C12B128
:103C7800B3F844109161016821F04001016000BD72
:103C880000061016A803002003289CBF034B1B5CEA
:103C9800034888BF002380F841307047C0430108BB
:103CA8003800002000B54FEA102C4FF0000E6CF3DE
:103CB800070E60F30F2E100A60F3174E62F31F6EA3
:103CC8004FF0000C0A0A62F3070C61F30F2C1A0A72
:103CD800054862F3174C63F31F6CC0F803E0C0F8A3
:103CE8000AC05DF804FB00BF2400002000487047AC
:103CF8001C00002000487047140000200279016869
:103D080003468AB1C9B14279012A2AD0022A16D0BB
:103D1800F2B101209B7933B1022B2BD0032B3BD07E
:103D2800012B30D0012070471F4B1A6822EA01028C
:103D38001A605A6822EA01025A60002070471A4A3B
:103D48001068084310605068084350600020E1E79D
:103D5800154A506820EA0100506010680843106056
:103D6800F4E7114A106820EA01001060506808431F
:103D78005060EBE70C4B9A6822EA01029A60DA6815
:103D88000A43DA607047084BDA6822EA0102DA600F
:103D98009A680A439A607047034B9A680A439A6084
:103DA800DA680A43DA607047003C01402DE9F043C5
:103DB8000C6894FAA4F2B2FA82F234FA02F378D0D8
:103DC8004FF0010E4FF0030C15E0076893FAA3F6C5
:103DD800B6FA86F693FAA3F3B3FA83F376000CFAED
:103DE80006F65B0027EA06079D402F43076001326D
:103DF80034FA02F35DD00EFA02F32340F7D04D688F
:103E08006E1E012E1DD8876893FAA3F6B6FA86F6B9
:103E180093FAA3F876000CFA06F627EA0609B8FA28
:103E280088F88E684FEA480706FA07F749EA07064E
:103E380086604668CF6826EA030603FB07F73E4319
:103E48004660C76893FAA3F6B6FA86F693FAA3F81B
:103E580076000CFA06F627EA0606B8FA88F80F691B
:103E68004FEA480807FA08F73E43022DC660ACD16E
:103E780093FAA3F7B7FA87F7072FD1F814804FEA18
:103E8800132619DC076A93FAA3F9B9FA89F993FAA0
:103E9800A3F6B6FA86F6B60008FA06F64FEA8909D6
:103EA8004FF00F0808FA09F827EA08073E430662A8
:103EB8008BE70020BDE8F083476A96FAA6F9B9FABD
:103EC80089F996FAA6F6B6FA86F6B60008FA06F85A
:103ED8004FEA89090F2606FA09F627EA060747EA8C
:103EE8000807476271E700BFB0F5000F01D0002056
:103EF8007047134B9A68120220D4186810F00060BB
:103F08001BD010B45C685968D3F88420D3F8843087
:103F18000C4814F4800F0C4CC2F3881218BF2046CA
:103F280001F03F01C3F30273B0FBF1F05DF8044BFD
:103F380002FB00F0B0FBF3F070477047034870478E
:103F4800003802400024F40040787D010080BB0066
:103F580003685B06024629D430B414680B684D68C0
:103F6800486924F47F4C8C682B432343CC68234353
:103F78000C6923438C6903432343CC6923430C6AAC
:103F88002CF0BF0C234343EA0C031360536823F05F
:103F9800040343EA1043B4F5005F53600CD0D369BF
:103FA80023F40063002030BCD3617047D36923F445
:103FB80000630120D36170478B8C1361EFE700BF6A
:103FC800C3695B053AD470B5C2690C46D1E90031C2
:103FD80022F4336205460B43A068216922F00F02E0
:103FE800134362690343134343F400630229EB61FB
:103FF80026D000284FF4000014BF40262026FFF7E3
:1040080073FFE268B2F5007F1FD0B0FBF6F303EB55
:10401800830321695B00B3FBF1F305330F49A1FB6F
:1040280003131909881EFD28C3F3C00394BF41EA8E
:104038000321022111432962002070BD012070472D
:10404800E26811432962002070BD000A00EB80007D
:1040580021694300B3FBF1F30533DFE7CDCCCCCCCA
:1040680030B4204D8C6803680A88A8422BD0B0F180
:10407800804F16D0A5F57C45A84212D005F580657D
:10408800A8420ED005F58065A8420AD0164DA84270
:104098000BD0164DA84208D005F58065A84208D176
:1040A80003E04D6823F070032B43C96823F4407381
:1040B8000B430360C4628262436943F001034361B6
:1040C80030BC002070474D6823F070032B43CD6847
:1040D80023F440732B430360C46282620B69036359
:1040E800EAE700BF000001400040014000440140F1
:1040F800B1F5807F30B468D023D8012949D0102980
:1041080044D1036A156923F010030362036A446803
:10411800816923F0200343EA0513156821F4E64179
:1041280041EA0521556823F0100343EA0513584D69
:10413800A84200F09180D268446081618263036282
:1041480021E0B1F5805F21D1036A156923F480531A
:104158000362036A4468C16923F4005343EA0533E0
:10416800156821F4E64141EA0521556823F4805396
:1041780043EA0533464DA84200F08380D268446084
:10418800C16102640362002030BC7047012030BC6A
:104198007047036A156923F001030362036A4468E0
:1041A800816923F002032B43156821F07301294329
:1041B800556823F001032B43354DA84238D0D26807
:1041C8004460816142630362DDE7036A156923F491
:1041D80080730362036A4468C16923F4007343EA85
:1041E8000523156821F073012943556823F480736A
:1041F80043EA0523264DA84205D0D2684460C16130
:10420800C2630362BFE7556923F4006343EA852369
:10421800956924F4805444EA0514956823F480636E
:1042280043EA8523D56924F4005444EA4514E4E7B5
:10423800556923F0080343EA8503956924F48074DB
:104248002C43956823F0040343EA8503D56924F4D5
:10425800007444EA4504B2E7556923F0800343EA51
:104268008513956924F4806444EA8504956823F0ED
:10427800400343EA8513D56924F4006444EAC5047D
:1042880059E7956924F4804444EA851476E700BF29
:1042980000000140064BA3FB00239B094FF0E022DE
:1042A800013B00200521536190611161704700BFF7
:1042B800D34D62104FF0E02382B01B690193421C7A
:1042C800019B18BF01304FF0E0221369DB03FCD5D6
:1042D8000138FAD102B07047014B1860704700BF2F
:1042E8000400002010B4019C80E81E0000238361B4
:1042F800C361036243628362C362DDE902235DF83E
:10430800044BC0E9042370470346026810B484686C
:1043180010695A6824691042D8680CBF012200222B
:104328000442D3E90440246908BF42F0020204426F
:1043380093F82C000CBF42F00404144610281CD03B
:1043480093F82C00202818D0481E012820D90329CA
:1043580018D1384A196A1268914213D8197E04F0A4
:104368000404002955D1197E61B95CB1012002F11C
:1043780032011876DA61196204E003293CD0013968
:10438800012905D9002083F82C005DF8044B7047FB
:1043980093F8251093F824008900C9B283F82510F2
:1043A80093F825100A4383F8252093F825109A6A74
:1043B800002801F00F012048415614BF4FF0FF308C
:1043C800012000FB01229A629A6A032A0DDC9A6A8C
:1043D8000332D7DA620743BF00221A762020022070
:1043E80000229A6283F82520CDE7610743BF0022A7
:1043F8001A7610200120F3E70E490968002201F619
:10440800B8311A76196283F82C2010465DF8044BEF
:1044180070475CB902F132011C761962D969521AE7
:10442800B2F5FA6F2CBF08200420ACE7197E0029EA
:104438009CD0A7E7A0030020C443010880F82410FB
:10444800704700BF01F08CBE01F09CBD38B5054C2B
:104458004FF00055A56101F089FE4FF40053A361A8
:1044680038BD00BF000802402DE9F8430023066864
:104478008B758269002A00F0A280C26A0132054663
:104488000C4600F09E80F2681088D8B11F464FF0A5
:104498000208994637B900F520539BB2B3F5006F6F
:1044A800C0F0AA8040F2623140EA074001F05EFBAA
:1044B800FF28C9F1FF0340F28B80012B00F29E8098
:1044C800002307B10023234400229A75E869A17DDF
:1044D8000378202B7AD0052B08BFE52363720122CD
:1044E8004378202B05D0A518052B08BFE5236B7250
:1044F80001328378202B05D0A518052B08BFE523AA
:104508006B720132C378202B05D0A518052B08BF84
:10451800E5236B7201320379202B05D0A518052BF2
:1045280008BFE5236B7201324379202B05D0A5180B
:10453800052B08BFE5236B7201328379202B05D048
:10454800A518052B08BFE5236B720132C379202B10
:1045580000F09780052B04EB020508BFE5236B727A
:10456800531C027A202A09D05D1CE618052A254426
:1045780008BFE5222E27777202336A72427A202A10
:1045880071D0052A04EB030508BFE5226A72827A16
:10459800202A03F101033AD02344052A08BFE52263
:1045A8005A7200229A72002936D0C37A03F03F0368
:1045B8002372C3692360C38AE380038BA380BDE8A9
:1045C800F883E86919460378202B84D1002287E70D
:1045D800D8B1002B3FF475AF04EB0903987501239C
:1045E800F2689944002732F8080008F10208002808
:1045F8007FF450AF4B4664E70746F4E704EB090243
:10460800030A9375D0750223EAE7034659E7234462
:1046180000225A720029C8D1637AE3B104F1090271
:1046280008250CE0192903F1200603D8017B0D4267
:1046380000D0F3B253735378511C53B10A462E2B52
:10464800A3F14101EED1537353781025511C002B6F
:10465800F4D1131B083B234400229A75037B002BDB
:10466800A3D16372A1E7827A202A95D1E2180025A6
:104678005572002999D1002BCED13F23A375012370
:10468800E9E713466DE700BF70B54FF0FF3600232A
:10469800B14204460371866238D194F82C30B4F8DC
:1046A8002A52EB2B0AD01833DBB2012B06D94AF673
:1046B8005520854214BF0320022070BD4AF65523B9
:1046C8009D4209D0B4F837305A1E1A4202D1B3F5C8
:1046D800007F29D0032070BD284E04F17E024FF0E0
:1046E800080C12F8010B16F8011B431A02D1BCF191
:1046F800010CF6D1002B36D0B4F837305A1E1A42C6
:1047080002D1B3F5007F30D0022070BD0D460A46B5
:104718004078012304F12C01FFF798FE08B9A5623F
:10472800BBE7A662042070BD94F83930002BD1D0C5
:104738005A1E1A42CED1638F002BB8D094F83C3061
:10474800013B012BB3D8B4F83D30002BAFD0B4F8FF
:104758003F307F2B03D8E36CB3F5803FA7D3B4F881
:104768004230002BA3D0002070BD94F83930002BC4
:10477800CAD05A1E1A42C7D1DDE700BFD443010888
:10478800F8B5046800230B60002C00F09B802246DB
:1047980002E03A2B00F0908012F8013B1F2BF8D86A
:1047A800694B1C68002C00F08F800C6023786078BF
:1047B80023B1FFF747FEC7076CD560780023237045
:1047C800FFF742FE10F0010166D12046FFF75CFFBB
:1047D800022863D0042800F0818001286AD8B4F840
:1047E8003730A06AB3F5007F64D1B4F8421001B93C
:1047F800216D94F83C206161531E012BE27059D859
:1048080094F839306381002B54D05D1E1D4251D17C
:10481800B4F83D5025812E074CD1B4F83FC0BCF107
:10482800000F01D1D4F84CC0678F002F42D001FB94
:1048380002F207EB1516164466453BD8ACEB060C9E
:104848009C45BCFBF3FE35D3404B9E4532D84FF612
:10485800F57CE645064407440EF1020368D840F6A5
:10486800F57CE645A06166622361E76155D90DB321
:104878003A445B00022003F2FF13B1EB532F22628C
:1048880018D3334A33491388207001339BB21380FD
:10489800E380E1600020F8BD0320F8BDD4F8F211F0
:1048A800D4F80252D4F81272D4F82262C1B9FDB910
:1048B8003FBB5EB90D20F8BD2378302B02D10234FE
:1048C800A24228D00B20F8BD0C20F8BD3146204666
:1048D800FFF7DAFE012882D90428EBD10120F8BDC0
:1048E8002046FFF7D1FE01287FF679AF002DDFD0F3
:1048F80029462046FFF7C8FE01287FF670AF002F33
:10490800D7D039462046FFF7BFFE01287FF667AFAC
:10491800002ECFD0DAE7026042E7002DCAD003EBC1
:10492800430003F0010303EB50033A440120A2E7DC
:10493800B4F8562023612A43C4E906076662B9D150
:10494800A26D9B00032096E7B0050020F5FFFF0F3E
:10495800AC050020AC030020012930D90369994235
:104968002DE9F0410C46054602D30120BDE8F0814F
:104978000378022B34D0032B23D0012BF5D1C16946
:10498800806A04EB540801EB5827874247D1C8F3E3
:10499800080308F101082B4401EB5827874293F8D4
:1049A8002C6047D1C8F308032B4493F82C3046EA0F
:1049B8000320E3074CBF0009C0F30B00D6E7012032
:1049C8007047C669836A06EBD1169E4200F12C0730
:1049D8001CD1A40004F4FE74385920F07040C5E7D7
:1049E800C669836A06EB11269E4200F12C0704D1A2
:1049F800640004F4FF74385BB8E74078012332465A
:104A08003946FFF723FDF8B9AE62F1E74078012394
:104A180032463946FFF71AFDB0B9AE62D9E7687871
:104A28003A4605F12C01FFF711FD68B9E969AF6253
:104A38003846ACE7687801233A4605F12C01FFF7C0
:104A480005FD08B9AF62ADE74FF0FF30A8628DE70A
:104A58002DE9F047846807680023064603618CB98E
:104A68003B78022B0AD83B8993B13B6AC6E90543D8
:104A780073B12C37F7610020BDE8F0873B6A002B43
:104A8800F1D01C467B89002B40F08480012C02D198
:104A98000220BDE8F0873D462B69A342F8D92B7860
:104AA800022B3AD0032B28D0012BF1D1E869A96A4F
:104AB80004EB540800EB582989455ED1C8F3080374
:104AC80008F101082B4400EB582A8A4593F82C90EA
:104AD80031D1C8F308032B4493F82C3049EA032951
:104AE800E3074CBF4FEA1914C9F30B04012CCFD9C3
:104AF8003B699C42CCD23568CEE7EA69AB6A02EBE7
:104B0800D418984505F12C0920D1A40004F4FE74AA
:104B180059F8044024F07044E8E7EA69AB6A02EB0C
:104B28001428984505F12C091CD1640004F4FF747D
:104B380039F80440DAE768780123524605F12C0178
:104B4800FFF784FC48B9C5F828A0C2E768780123B4
:104B580042464946FFF77AFC28B34FF0FF33AB6271
:104B6800012096E76878012342464946FFF76EFC24
:104B78000028F2D1C5F82880D7E768784A4605F1B9
:104B88002C01FFF763FC0028E7D1E869C5F82890F5
:104B9800494693E73A69A11E023A914206D27A6AD7
:104BA80001FB032362E7C5F82880AEE70023C6E9C6
:104BB80005436DE72DE9F04FD0F800E08BB00446CF
:104BC8000D4611F8013B2F2BFAD05C2BF8D00023AF
:104BD800A36028781F2840F2A48273467746D3F84A
:104BE8000CA038B90023AAF80030062210460BB0F2
:104BF800BDE8F08F0135AAF10208002640F26231C3
:104C080000F0D0FF03460028EFD01F289B4A40F24F
:104C1800B3822F2800F0D2825C2800F0CF827F2850
:104C280008D812F8010B08B19842FAD1013A127863
:104C3800002ADAD1FF2ED8D028F8023F15F8010B48
:104C480001360028DAD14FF004080AEB460232F8A0
:104C5800023D202B01D02E2B04D1013EF7D1AAF81A
:104C68000060C2E700232AF81630BAF80020202A8C
:104C780040F00F82514631F8022F202A994603F15D
:104C88000103F8D009F1020948F003080AEB4603CA
:104C980001E0013E03D033F8021D2E29F9D104F1B9
:104CA800200102910B2320201B4303D001F8010BA4
:104CB800013BFBD1002A00F06582002120468B468B
:104CC8000C46082311462A460546202900F0A781EC
:104CD8002E2900F0AE815B4500F2BD810B2B00F060
:104CE800AD814E4500F0DB8148F003084E4580F069
:104CF800D68121462C46154694F82020E52A04BF83
:104D0800052284F82020082B05BF8B00D9B201F0BA
:104D18000C0303F00C030C2B00F0B88101F0030323
:104D2800032B00F0B38118F0020F07D1CA0748BF60
:104D380048F010084B0748BF48F0080884F82B8053
:104D48002046D4F80090FFF783FE0246002843D19E
:104D5800D4F81880CDE905754FF0FF0C42464FF0A6
:104D6800FF3A09F12C03C4F82CA0CDF804C0E046A2
:104D78009B461646D9F82830B34212D099F801005C
:104D8800012332465946FFF761FB40B101224FF03B
:104D9800FF331046C9F828300BB0BDE8F08FC9F8CA
:104DA8002860E1690878B0B1CB7AE52803F03F05BF
:104DB800A57104D013F008022AD00F2D60D0C4F8D2
:104DC8002CA04FF0FF08256927682035B5F5001F8E
:104DD80008D30023A3610422042A94F82B307FF41B
:104DE80005AF17E1A669002EF5D0C5F3080353B93E
:104DF80061690136A661002940F093803A89B2EBD7
:104E0800551F40F204812C371F442561E761B1E743
:104E18000F2D35D0B8F1000F00F0A68094F82BC004
:104E28001CF0010FCBD1029F0D460B2615F8010B84
:104E380017F8011BB0EB010E01D1013EF6D1BEF10E
:104E4800000FBCD1DDE90575E3461BF0040F7FF4C4
:104E5800CDAEDB0640F1E18022693978C2F3080261
:104E680007F12C03134403295A8B04BF9B8A42EA97
:104E78000342A26023682878B1E600BFE043010836
:104E880094F82B305E069ED4450640F1BC804A7BE0
:104E98002369019200F0BF08E3624B7B019A9342B9
:104EA8008FD14B8B002B8CD10E78D9F80C20BE4FAC
:104EB800CDF8208006F03F06013E06EB460306EBE0
:104EC800830601230494099207F10D051846CDF8CD
:104ED8000C9088461446CDF81CB011E0FF2E4846C9
:104EE8001AD800F073FE844634F81600664600F0BF
:104EF8006DFE864210D148465E46AF4200F01A81E8
:104F080017F8012B06F1010B38F802900028E5D1BB
:104F18004FF6FF739945F0D0DDE90394DDF81CB036
:104F28004FE77A89013A12EA55227FF46CAF384686
:104F3800CDE90332FFF710FD012840F2B980411C8A
:104F480000F0B48039698842DDE9033280F0B2802C
:104F580002396061023888423BBF7A897E6A1E4600
:104F680000FB0266A6614EE70D784878EE0146EA36
:104F780055060644C6F34605887845EAC61550FA2C
:104F880085F5C5F34606C87846EAC51650FA86F68A
:104F9800C6F34605087945EAC61550FA85F5C5F3FE
:104FA8004606487946EAC51650FA86F6C6F3460517
:104FB800887945EAC61550FA85F5C5F34606C879D5
:104FC80046EAC51650FA86F6C6F34605087A45EA53
:104FD800C61550FA85F5C5F34606487A46EAC51659
:104FE80050FA86F68D7AC6F3460040EAC61055FA9E
:104FF80080F0019DC0B2A8427FF410AFDDE90575CD
:1050080094F82BB021E740457FF4DBAE45E794F8F0
:105018002B30A1615A0700F1C5800522E6E548F06A
:1050280003083AF8191009F1010900297FF44DAE77
:105038005FE64E45F3D10B2B7FF458AE21462C4644
:10504800154694F82030E52B00F0A88048F00308B6
:1050580001F00C035FE64E45EDD07F292ED8DFF82E
:105068004CC11CF8010B08B18842FAD1BCF1010C03
:105078009CF8000000283AD048F003085F2105EBAF
:105088000B000BF1010B80F82010CAE748F002086A
:1050980054E62E2A4FF001097FF4F8ADF4E5A40098
:1050A800E4B2B1460B234FF0080BBAE7012293E6AE
:1050B800022291E694F82B30A261ABE7084640F251
:1050C80062310393019200F051FD014611F0800F07
:1050D800019A039B48F0020012D0DFF8D4C001F017
:1050E8007F011CF8011080460029C5D0B7E7A1F15F
:1050F800410080B2192835D844F00204C9B2BEE78D
:10510800FF29F0D903F1FF3CDC4553D9804605EB74
:105118000B004FEA112C0BF1010B80F820C0C9B22B
:10512800ADE78023204684F82B300BB0BDE8F04F64
:10513800FFF78EBC414603460A78DDF80C90DDF88F
:105148002080049CDDF81CB0500606D52BB1099BC5
:1051580033F81630002B7FF434AE08F1FF385FFACD
:1051680088F830E6A1F1610080B219289CBF203987
:1051780044F00104C9B282E74FF00408002E7FF41E
:1051880064AD2FE594F82030E52B04BF052384F89F
:10519800203018F002013FF4CDADCFE5052384F8A7
:1051A800203053E7042221E574440108EC43010848
:1051B800F443010848F003089B4632E72B4693F86E
:1051C8000080B8F12F0F1D4603F10103F7D0B8F1A5
:1051D8005C0FF4D0B8F11F0F8CBF4FF000084FF0F0
:1051E80001084FEA8808002E7FF42FADFAE400BFCB
:1051F80000B583B0CDE9001021B38C4601E03A2B0D
:105208001AD01CF8013B1F2BF9D8104B196811B1A3
:10521800002018600870019911B1002008801960F9
:105228001AB9104603B05DF804FB01A96846FFF7F8
:10523800A7FA03B05DF804FB0B78302B02D10231DA
:105248008C45E2D00B2003B05DF804FBB0050020CC
:1052580070B590B00191E8B1044603A901A81546BC
:10526800FFF78EFA18B10023236010B070BD039EBB
:105278000199049604A8FFF79DFC0028F3D19DF935
:105288003B30002B09DB9DF8163013F0100006D0D8
:105298000420E8E7092010B070BD0620E3E7317864
:1052A8000B9B03295A8B04BF998A42EA0142A260E8
:1052B800DB69E360F388A38005F001020023266020
:1052C80022746374E3616361CFE700BF2DE9F04F97
:1052D8001F46002383B03B6050B1036805463BB1CD
:1052E80014461A7822B1DA8888468188914203D018
:1052F800092003B0BDE8F08F5878FFF7A3F8C1077D
:10530800F6D4687C0028F4D12B7C13F0010B00F054
:1053180088806969EE68D5F80090761AA64228BF99
:105328002646002EE5D005F1200A0090C1F30803B7
:10533800E3B154461C44C3F50073B34228BF334657
:1053480042469C465CEA0C0C06D014F8010B02F8A5
:10535800010BBCF1010CF8D13A6819441A44F61A49
:105368003A6098446961E1D10098C2E7B9F80A3017
:10537800013B13EA512322D0A869D9F8102002383A
:10538800023A904228D2B9F80A10D9F8242001FB31
:1053980000220AB3B6F5007F1A4422D303EB562045
:1053A80088424FEA562488BFCC1A99F80100234650
:1053B8004146FFF74BF838BB69696302CCE749BB44
:1053C800A868012808D9421C1ED0D9F81020A86165
:1053D800023A02389042D6D30220687403B0BDE87E
:1053E800F08FEB69934205F1200408D099F8010089
:1053F800019201232146FFF729F8019A20B969692A
:10540800EA61C1F3080395E7012358466B7403B0BA
:10541800BDE8F08FA96928680193FFF79DFA019B01
:10542800CFE7072065E700BF98B1036810B50446C9
:105438002BB11A781AB18188DA88914201D00920F3
:1054480010BD5878FEF7FEFF10F00100F7D120607C
:1054580010BD0920704700BF2DE9F04F83B048B157
:105468000368044633B11A7822B1DA880D46818878
:10547800914204D00927384603B0BDE8F08F587828
:10548800FEF7E0FFC207F5D4677C002FF3D1E3688D
:105498006269D4F800B067619D42284628BF184663
:1054A8000028E8D0BBF80A60760222B3013A431E0E
:1054B800B2FBF6F5B3FBF6F3AB421CD37342D4F858
:1054C800188013406361B8F1000F40F0D380C3F334
:1054D8000803002BCFD0E3694345CCD09BF80100EB
:1054E8000123424604F12001FEF7B0FF002871D1E4
:1054F800C4F81C80BFE7A568A561002DBBD0814614
:1055080000234E4580F0B4803344012D636106D0FA
:105518000097A9EB06095F463B69AB4202D8022710
:105528006774A8E73B78022B43D0032B31D0012BBB
:10553800F5D1FA69B96A05EB550802EB582A8A458C
:1055480061D1C8F3080308F101083B4402EB582273
:105558008A4293F82CA063D1C8F30808B84498F895
:105568002C304AEA032AEB074CBF4FEA1A15CAF354
:105578000B05012DD3D9DBF81030AB42CFD9B1459B
:105588006369A56158D9334427686361A9EB0609A3
:10559800C2E7FB6903EBD518BB6A984507F12C0AEB
:1055A80026D1AD0005F4FE755AF8055025F0704572
:1055B800DFE7FB6903EB1528BB6A984507F12C0A5E
:1055C8000BD16D0005F4FF753AF80550D1E74FF09F
:1055D800FF33BB62012767744DE7787801234246A1
:1055E8005146FEF733FF0028F1D1C7F82880E8E7D5
:1055F8007878012342465146FEF728FF0028E6D175
:10560800C7F82880CDE77878524607F12C01FEF7D5
:105618001DFF0028DBD1FA69C7F828A0514690E79A
:1056280078780192012307F12C01FEF70FFF019A08
:105638000028CCD1BA628FE7009F4B44C9F3080811
:105648006361B8F1000F3FF442AFDBF81020023D70
:10565800023A9542BFF463AFBBF80A00DBF8242096
:1056680005FB0022002A3FF45AAF02EB59282EE727
:105678000346E3E74546A0EB030942E730B585B0AA
:10568800019170B3044603A901A8FFF779F818B18E
:105698000023236005B030BD039D01992560204695
:1056A800FFF788FAC8B994F92B30002B0BDBA379E4
:1056B800DB0614D52978E2690329538B04BF928A43
:1056C80043EA0243A360EB88A3802046FFF7C0F9B2
:1056D800042804D00028DDD0DAE70428D8D1052032
:1056E800D6E7092005B030BD98B1036810B5044667
:1056F8002BB11A781AB18188DA88914201D0092031
:1057080010BD5878FEF79EFE10F00100F7D120601A
:1057180010BD0920704700BF2DE9F04F85B048B192
:105728000368044633B11A7822B1DA888946818839
:10573800914205D04FF0090A504605B0BDE8F08FF8
:105748005878FEF77FFE10F0010AF3D1B9F1000F87
:1057580000F0C180A6692768002E33D0FF2301938B
:10576800984607F12C0BBB6AB34212D07878012314
:1057780032465946FEF76AFE50B14FF0FF32002319
:10578800BA62A3614FF0010A504605B0BDE8F08F38
:10579800BE62E369197899B1DA7AE52902F03F0225
:1057A800A27105D02E2903D022F02000082878D134
:1057B80025694FF0FF082035B5F5001F236837D35A
:1057C8000023A36149462046FEF74EFE2569266858
:1057D8002035B5F5001F7BD2A369002BACD0C5F3EB
:1057E800080707BB61690133A361002900F0D9806C
:1057F8007389013B13EA552815D13046FFF7ACF8F9
:10580800012840F2AF81431CBCD0336998425FD273
:10581800023B60610238984203D27289736A00FBC6
:105828000238C4F818802C363E442561E66183E7C7
:10583800A669002EC4D0C5F3080222B12C33134444
:105848002561E3618FE761690136A66149B91A8963
:10585800B2EB551FB4D92C332561E361002E82D1F8
:10586800B0E75A89013A12EA5522F4D11846039250
:105878000293FFF771F8012840F29E80421C25D060
:10588800029B196988429BD20239606102388842BA
:10589800039A80F08C805A895E6A00FB0266A661D2
:1058A800D9E70F2A40F08B80480625690BD55A7B2B
:1058B800019201F0BF08E5625A7B01998A4210D033
:1058C8004FF0FF0877E74145FAD1F5E74FF0010AB5
:1058D8000023A36130E7204605B0BDE8F04FFFF78D
:1058E800B7B85A8B002AEBD11A7822F04002013A55
:1058F80002EB420102EB8102FF2AB3F80110DFD864
:10590800F86820F812104FEA420CB3F80360002937
:1059180040F0A6804FF6FF729642D1D1B3F805E069
:105928004FF6FF729645CBD1B3F807604FF6FF727A
:105938009642C5D1B3F809E04FF6FF729645BFD13C
:10594800DE894FF6FF729642BAD1B3F810E04FF6EF
:10595800FF729645B4D15E8A4FF6FF729642AFD178
:10596800B3F814E04FF6FF729645A9D1DE8A4FF6D8
:10597800FF729642A4D1B3F818E04FF6FF7296452D
:105988009ED19E8B4FF6FF72964299D1B3F81EE0D6
:105998004FF6FF739E4593D108F1FF385FFA88F8F8
:1059A80009E73389B3EB551F3FF63DAF90E72C333A
:1059B800A2612561E36105E74FF0020A88E7B8F1C3
:1059C800000F49D1197858785D7ACA0142EA510224
:1059D8000244C2F34601987841EAC21150FA81F1B3
:1059E800C1F34602D87842EAC11250FA82F2C2F3F1
:1059F8004601187941EAC21150FA81F1C1F3460211
:105A0800587942EAC11250FA82F2C2F346019879F3
:105A180041EAC21150FA81F1C1F34602D87942EA4B
:105A2800C11250FA82F2C2F34601187A41EAC21151
:105A380050FA81F1C1F3460242EAC11255FA82F2E4
:105A4800987AC2F3460343EAC21350FA83F3019AE1
:105A5800DBB293423FF4B6AE4FF0FF33E362B1E6F8
:105A6800FF2A02F101013FF42BAF20F81160490031
:105A7800B3F805E0002E3FF453AFFE2A3FF420AF01
:105A88000144A1F802E0B3F80760BEF1000F3FF44B
:105A98004DAFFD2A3FF414AF8E80B3F809E0002E15
:105AA8003FF44AAFFC2A3FF40BAFA1F806E0DE89C9
:105AB800BEF1000F3FF445AFFB2A3FF401AF0E8162
:105AC800B3F810E0002E3FF442AFFA2A3FF4F8AEE4
